:020000040001F9
:10B00000A8310020F5B001000FB1010011B101001D
:10B010000000000000000000000000000000000030
:10B0200000000000000000000000000013B101005B
:10B03000000000000000000015B1010017B1010080
:10B0400019B1010019B101006DB4010019B101007D
:10B0500019B10100000000006DB2010019B101003A
:10B0600019B1010019B1010019B1010019B10100B4
:10B0700019B1010019B1010019B1010019B10100A4
:10B0800019B10100B9B3010019B1010019B10100F2
:10B09000D9B3010019B10100E1B3010019B10100F8
:10B0A00019B1010019B1010000000000000000000A
:10B0B0000000000000000000000000000000000090
:10B0C0000348854600F094F800480047F1EB010082
:10B0D000A8310020401E00BF00BF00BF00BF00BF5E
:10B0E00000BF00BF00BF00BF00BF00BF00BFF1D165
:10B0F000704700000321094802680A4302600848BB
:10B1000002680A4302600748804707480047FEE795
:10B11000FEE7FEE7FEE7FEE7FEE70000240500404D
:10B120005405004001B40100C1B0010030B50B4628
:10B13000014600202022012409E00D46D5409D4211
:10B1400005D31D469540491B254695404019154697
:10B15000521E002DF1DC30BD70B5002425460028BC
:10B1600001DA01244042002901DA01254942FFF7B2
:10B17000DDFFAC4200D04042002C00D0494270BDFF
:10B1800003460B439B0703D009E008C9121F08C000
:10B19000042AFAD203E00B780370401C491C521EAB
:10B1A000F9D27047D2B201E00270401C491EFBD2B6
:10B1B00070470022F6E710B513460A4604461946C2
:10B1C000FFF7F0FF204610BD421C0178401C00290B
:10B1D000FBD1801A704730B504460020034600E0DA
:10B1E0005B1C934203D2E05CCD5C401BF8D030BDC9
:10B1F000064C0125064E05E0E36807CC2B430C3CCA
:10B2000098471034B442F7D3FFF75EFF8C09020071
:10B21000AC09020070B58C180578401C6B075B0FF9
:10B2200001D10378401C2A1106D10278401C03E0AA
:10B2300006780E70401C491C5B1EF9D12B0705D403
:10B240000023521E0DD40B70491CFAE70378401CF2
:10B25000CB1A921C03E01D780D70491C5B1C521E1A
:10B26000F9D5A142D8D3002070BD0000F8B5002464
:10B27000FF250135012627460094284603F098FF54
:10B28000002808D034484068304204D033480021B8
:10B290002818344301602D1D76007F1CADB2042FA9
:10B2A000EBD3FF207D3003F083FF002807D02C482C
:10B2B00000210160400704432A48006900902A4F9A
:10B2C000200712D00126002526420AD02748AA00CE
:10B2D000111808690969C004C00E8903BA58890F9A
:10B2E000904776006D1C042DEED3002C30DA00243C
:10B2F0001D4E0021301940304156491C25D0077899
:10B30000BD06AD0E284601F021FF80003658002E04
:10B310001BD0BF090121A940154AA8008018006868
:10B32000009A8003800F114202D0022802D00CE064
:10B3300003280AD1032F05D102280AD0022128466A
:10B3400003F026FF39462846B047641C042CCFD3AF
:10B35000F8BD0321F3E700000063004000600040F7
:10B360007C61004000050050242900200065004059
:10B37000000700508307FF22DB0E9A408907090E61
:10B38000994000280BDA0007000F083883080848A6
:10B390009B001818C36993430B43C361704783082C
:10B3A00004489B001B1818689043084318607047B6
:10B3B00000ED00E000E400E010B506490020086060
:10B3C00048608860C860034940390860486005F0FB
:10B3D00089F810BD4011014010B505F019F810BDF5
:10B3E00010B506484068002805D08047002801D0E5
:10B3F00000F0ECF910BD03F063FA10BDA0200020AE
:10B4000010B503F05FFD002805D011490F484860D2
:10B41000C8131049886103F06BFD002802D00E4963
:10B420000120886003F07AFD00280AD00B480168EB
:10B43000012904D00A49016001680129FCD1C02119
:10B44000416109490748086010BD0000DFFF07C0DF
:10B4500000050040006C00400006004000EC064083
:10B46000759300000024F4009C1F002010B505F027
:10B470009FF810BD30B47446641E2578641CAB423E
:10B4800000D21D46635D5B00E31830BC184702E044
:10B4900008C8121F08C1002AFAD17047704700205F
:10B4A00001E001C1121F002AFBD17047F7B584B03B
:10B4B0000025168807461580406B1446002813D0D7
:10B4C00003780598032E51D302210170218811229F
:10B4D000491C89B2218042542188491C89B22180AB
:10B4E00043542088401C2080386B00281DD005461E
:10B4F0002088059902461232B24237D811220A54E6
:10B5000020881022401C80B220800A542088401CD1
:10B5100020800F202A5C2388401ECA54228840B213
:10B52000521C22800028F5DA00253846203002908F
:10B53000807B002806D033462246059903F05AFA4C
:10B54000050014D10298407B002806D032462146DF
:10B55000059800F075FF050009D1B878002823D0C0
:10B56000059886462088001DB04202D90C2007B0FD
:10B57000F0BD684679DF0028F9D1218803207246A2
:10B58000505420881921401C80B2208011542088FA
:10B590007146401C80B2208041186846008805F042
:10B5A0009BF8218840182080F878002817D021883F
:10B5B00003230A46FB56C91C0598B142D6D802217E
:10B5C000815421880122491C89B22180425421885A
:10B5D000491C89B2218043542088401C208078680F
:10B5E000002817D021880023C3560A46C91C059895
:10B5F000B142BBD80221815421880A22491C89B258
:10B60000218042542188491C89B2218043542088DA
:10B61000401C2080388900280AD0009438460196C2
:10B62000062202210830059B05F0D5F805009ED1C1
:10B63000388A00280AD00094384601960722032150
:10B640001030059B05F0C7F8050090D1388B002815
:10B650000AD0009438460196152214211830059B13
:10B6600005F0B9F8050082D1386A002806D03346C3
:10B670002246059901F016FF0500D8D1786A002806
:10B6800006D033462246059903F093FB0500CED140
:10B690000298007B002807D0334622463846059999
:10B6A00004F0A3FC0500C2D13878002807D0334647
:10B6B00022463846059903F0B0FB0500B7D128466D
:10B6C00055E710B501220221002001F011FB0028EE
:10B6D00001D0072812D107220221012001F008FB26
:10B6E000002801D0072809D100210A22084601F0CC
:10B6F000FFFA002801D0072800D1002010BD00006B
:10B70000044842680121C9050B46934383600A40FF
:10B71000C26070470005005070B50024064D06E079
:10B720006968E000085C012103F042FC641C287891
:10B730008442F5D3002070BD5C200020F8B515468A
:10B740000C460646052A01D20720F8BD03F006FD87
:10B75000002803D103F0D8FC0028F6D110490020BE
:10B760004E600C70C8608D6008610E4D0DE0E00009
:10B7700069688019009181786A46517000780A4A98
:10B78000694603F065FC0028DFD12046641EE4B260
:10B790000028ECD1054A0021024800F013F9F8BD59
:10B7A0005C2000208409020019E501006DD601002B
:10B7B000BFF34F8F04490348C860BFF34F8F00BFEA
:10B7C000FDE700000400FA0500ED00E00EB50021E1
:10B7D000029000916A4601910148FFF7E9FF0000DD
:10B7E00001400000014B1B6818470000282800207A
:10B7F00038B50C46A2680C235A43064B09789D586D
:10B80000054A126A00920246204608302369A8477A
:10B8100038BD0000182900203820002010B5064946
:10B8200014230A785A435118091DFFF7E1FF042039
:10B8300004F03AFC10BD00004C28002070B50F4BFE
:10B8400005241D785E78AE4215D01D781C789E8840
:10B85000B44201DA641C00E000241C705C88DE68DD
:10B860006C43A41904609B68E800C418A4880C8089
:10B87000185800241060204670BD00007020002081
:10B88000F7B5394C82B060880F4681426AD80020F3
:10B89000694608703649354E4868C005C00D18D055
:10B8A000103840B2002807DA0207120F083A92084F
:10B8B00092005118C96904E081082E4A890089184C
:10B8C00009688007C00EC1400806850F012D01D10F
:10B8D00008E00425684636DF02280AD0002801D097
:10B8E000FFF774FF22786078A188884203DA401C51
:10B8F00002E072B6F6E70020C0B2904207D0667848
:10B900006078884201DA401C00E000206070012D60
:10B9100009D062B66846007837DF022803D00028D5
:10B9200001D0FFF753FF1148864219D0A068F500F7
:10B9300004994151029900290CD0002F0AD0608847
:10B940003A464643E0683018FFF71AFCA06828180A
:10B95000878002E0002128188180002005B0F0BD1A
:10B960000420FBE70920F9E770200020FFFF00001A
:10B9700000ED00E000E400E00EB504E068468188D8
:10B98000029A0098904702AA01A96846FFF756FF5D
:10B990000028F3D00EBD000030B5CB0008339DB2B7
:10B9A00093070024002B01D0072030BD044B9A6080
:10B9B0005219DA605C701C7058809980002030BD8C
:10B9C000702000200A4B9B68002B07D0002A07D06C
:10B9D000002805D00068037C002B03D008207047A6
:10B9E0000720704700230374417442611846704772
:10B9F0008020002010B50446082902D00020FFF75F
:10BA0000E5FE21686068884710BD00001CB5019103
:10BA10000090034A08216846FFF732FF1CBD000072
:10BA2000F5B90100FFB59007002581B014460E4618
:10BA3000002832D11B4F002C31D004F00FFA0498AB
:10BA400078610320387033461821224600204B438A
:10BA5000BC601834C10089180D704D708E704C6038
:10BA60001C19401C0328F5DBFD607D7001240E4885
:10BA7000BD702405046003211420FFF77BFC0B48F4
:10BA800004600B4C0198A06003211120FFF772FCA9
:10BA900060683861002005B0F0BD0720FBE7BD609D
:10BAA000FBE700008020002080E200E000E100E0F1
:10BAB00000150140FEB50D461B491746896804462E
:10BAC00000292AD0002C28D0052D01D20720FEBD48
:10BAD0006069002821D0607C012820D0002604F075
:10BAE0003DFEC0001049019089684018694604F085
:10BAF0005FFE002815D0012101700C49446049689F
:10BB00000830E2C008490198896841186846007801
:10BB1000487004F0BFFC0020FEBD0820FEBD2E468C
:10BB2000DDE70420FEBD000080200020001501405C
:10BB3000F8B5134D0446A96800291CD0002C1AD072
:10BB40006069002817D00026267404F007FEC7009D
:10BB5000A8686946381804F02BFE00280DD0022191
:10BB600001704460A868391868460078487004F08D
:10BB700091FC3046F8BD0820F8BD0420F8BD000057
:10BB80008020002000B585B014216846FFF711FB26
:10BB90000021012268460091027102916421017323
:10BBA0001146203141731146203181730020014636
:10BBB0006846C1731146203101746946044800F09B
:10BBC00079FB002801D0FFF701FE05B000BD0000A1
:10BBD0000C250020F0B50546007D002493B00E46EC
:10BBE00000280DD0012001466846103103940173EE
:10BBF000717B4173817BF92001406846891C817308
:10BC00001C2104A8FFF7D5FA6946087C02210843E5
:10BC1000694608742A7DEF21002A02D010221043C1
:10BC200000E008406A461074059407940894287D43
:10BC3000002800D003A8099001270A9410469771A4
:10BC4000304A82800094B27B0270F27B427080782E
:10BC5000F9221040F722801C1040EF2108404108D3
:10BC6000490068468170317B017214210BA8FFF7EF
:10BC7000A0FA01A80B9068460C908786C4860787B7
:10BC800002A80F90A888AB1D0BAA04A9A2DF002868
:10BC900035D1B068002830D0684687711A49818054
:10BCA0000094317C01700020014668464170807824
:10BCB000F9210840F721801C0840EF210840410885
:10BCC00049006846817011A8B16800F0FFFD064682
:10BCD00014210BA8FFF76DFA01A80B9068460C9091
:10BCE0008686C486068711A80F902A46E8880E32F9
:10BCF0000BA9A3DF002802D100E0EC81002013B0E3
:10BD0000F0BD0000192A00000829000010B50B49F9
:10BD10000B4804F05DF9C1B20848183800F090FAF9
:10BD2000002809D0082807D00649884204D00649CF
:10BD3000884201D0FFF74AFD10BD000024250020F5
:10BD4000281F00200430000001340000F0B50C462C
:10BD500093B01F216A461180072600279180002892
:10BD600009D0C17849070DD502A9FFF79FFB00282C
:10BD700009D102AD01E000251780002C0ED0E0783B
:10BD8000002802D0304613B0F0BD01AA0AA920460F
:10BD9000FFF78CFB0028F6D10AAA02E068460022D1
:10BDA000878068468088C3B268460088C1B228464A
:10BDB00072DFE8E710B5FFF709FD10BD70B50D465D
:10BDC00004991646040042D0002E40D0424800227A
:10BDD0004271C3600161242231464048FFF7D0F927
:10BDE00000F0ECF83D49343108461038016020314C
:10BDF000816038215C38FFF7DCF938482178383821
:10BE00000170A1788170E178C170617841706269D8
:10BE1000216942610161E268A168C26081600146F6
:10BE2000E369A269CB618A61616A002919D0014680
:10BE3000AC310246B83241628A60636A1B880B806B
:10BE4000616A436A898899800021436A06E00E206E
:10BE500070BD666AB668765C5654491C9E888E42F0
:10BE6000F7D8A16A00291CD01C4AAC3211460C3903
:10BE70008A608162A36A9B888B80A16A836A098831
:10BE800019800021836A04E0A66AB668765C56547D
:10BE9000491C9E888E42F7D82C210A5D0F4918391B
:10BEA0000A73216A002909D00B4914310162226A00
:10BEB00052884A80216A026A0988118061680029D3
:10BEC00004D00549891D41606168416003482946E5
:10BED0003838FFF73BFF70BDA01F00201826002058
:10BEE00010B502881C4C102A17D00021112A1AD034
:10BEF000192A11D1807900280ED1607901281ED02D
:10BF0000022822D0032822D0042805D12171E2681A
:10BF10000846002A00D0904710BD017D0129FBD1C1
:10BF20008088208110BD6170808821898842F9D184
:10BF3000012005E021690029F4D0884710BD0220C6
:10BF400000F064F80028F5D110BD0320F8E70320C5
:10BF500020710420F4E70000A01F002010B5022883
:10BF600001D003280ED1084C207800280AD00020E8
:10BF70002070607900F04AF8002803D02169002978
:10BF800000D0884710BD0000A01F002030B50A4B2C
:10BF9000D97800290ED01A46017818321170002184
:10BFA000441855186478491C6C700629F8DB002089
:10BFB000D87030BD082030BDA01F002010B507216B
:10BFC0000148FFF7F6F810BDB81F002010B50D4866
:10BFD0000078012814D10C4C6078002810D16079C9
:10BFE000002802D074DF00280BD101206070607936
:10BFF00000F00CF8002803D02169002900D0884700
:10C00000002010BD18260020A01F0020F0B5754CA0
:10C0100087B06071002606A8069603F07DFB012715
:10C02000082806D000286FD10698002802D0277073
:10C03000D4E00696FFF7C2FF6B4D6878002802D067
:10C040006079012805D0A87800280AD060790228F4
:10C0500007D1E168002903D0E7700820884700E095
:10C06000E6706079012808D16878002809D05D4819
:10C07000193003F0B2FA002803D06079022802D008
:10C080000CE002206071A878002805D055481930CE
:10C0900003F0A3FA002801D103206071287B002857
:10C0A00004D16079032801D104206071287E002822
:10C0B00004D16079042801D166712671E1680029F4
:10C0C0000AD06079032801D0042805D128780028F7
:10C0D00002D06078002818D0A67018216846FFF7B3
:10C0E00068F8684606700196067203966079012822
:10C0F0000FD0022816D03C4E243637465C3F03282A
:10C100001CD004285ED13BE069E0A7700720884777
:10C11000E3E734481830019068460770468206828B
:10C12000277152E02F48183001906846077029891E
:10C130004182A98801820220207146E0A88A6946CE
:10C140004882288A08822848243004F0B3FB00285B
:10C1500005D02878002802D06078002801D003207C
:10C160002FE002206946087204200396F8701E48EA
:10C1700000213838FFF7EAFD002830D1052020E003
:10C18000A88B69460882288C48821748243004F01E
:10C1900091FB002805D02878002802D0607800287C
:10C1A00001D004200DE002206946087204200396A5
:10C1B000F8700D4800213838FFF7C8FD00280ED16F
:10C1C000062020716079002803D0684673DF0028BC
:10C1D00005D1E168002901D020798847002007B007
:10C1E000F0BD0000A01F002018260020F0B5124B63
:10C1F0009978002908D0114905790D71047B0C73D9
:10C200000E4E0021303606E00820F0BD8A00876817
:10C21000491CBF58B7508C42F8D8084C0021103444
:10C2200004E08A000668491CB658A6508D42F8D82A
:10C2300000209870F0BD0000A01F00203C260020C8
:10C2400073B586B004002FD06A46217C127F00208F
:10C25000914227D00025012668460095068045803A
:10C2600007A80190E188608A6A46A4DF002819D1F6
:10C270006846007F2074608A0D49884216D0207D70
:10C28000002813D00295039504950595E18868462A
:10C290000181867241888181049001980590608AAD
:10C2A00002A9A6DF08B070BD0E20FBE70820F9E761
:10C2B000FFFF000038B50D4604001AD0002D18D03D
:10C2C000286820600020C043608228792075FF2004
:10C2D000207401216846817007490180221D69464A
:10C2E0000120A0DF002803D129462046FFF772FC79
:10C2F00038BD0E2038BD00000F18000038B50028EA
:10C3000024D0002922D00A88102A1AD0112A1AD043
:10C31000502A1BD1027D002A18D0CA884389891D62
:10C320009A4213D10A8B022A10D10268002A0DD03A
:10C33000CB7E8C7E19022143C907C90F07D000218B
:10C3400006E0898801E00021C943418238BD01210E
:10C350006B4619706946904738BD000070B50546B8
:10C3600001461C220E48FEF70BFF0E4C00262670DD
:10C370002968002906D00822201DFEF701FF201D94
:10C380007ADF02E00748001D7BDF002807D1401E4E
:10C3900060806670044A00210448FFF713FB70BDFB
:10C3A00004270020C01F0020F9060200280902000F
:10C3B000F8B5214C028800271E4DE689102A15D0B9
:10C3C0001E49112A21D0122A2DD0502A1CD1C288F0
:10C3D000801DB24218D1028B022A15D1C27E837E03
:10C3E00010021843C007C00F0CD112E08188698089
:10C3F00001461048082216310C30FEF7C1FE6F705E
:10C40000002E01D101F096F8F8BD0020C0436880ED
:10C410006F700868FFF78CFB0028F5D0A169002930
:10C42000F2D08847F8BD811D024808220C30FEF783
:10C43000A7FEE7E7C01F002004270020280902000C
:10C440007CB5054608880C460930904201D90C207D
:10C450007CBD684671DF0028FAD121880820685425
:10C4600020881B21401C80B220802954208800A9EC
:10C47000401C80B22080401906220131FEF780FE68
:10C4800020886946801D80B220800978002900D06C
:10C49000012129542088401C208000207CBD000000
:10C4A0007FB504460121684681714A4981804A4A24
:10C4B00001A90120A0DF00287ED1228825463C3535
:10C4C000002A09D044482B46801C009043486168EC
:10C4D00000F044FE00287BD12289002A0AD03E4881
:10C4E0002B460A3000903D48E168401F00F036FEC0
:10C4F00000286DD1228A002A0AD037482B461230F4
:10C50000009036486169001F00F028FE00285FD1C6
:10C51000228B002A0AD030482B461A3000902F4830
:10C52000E169801E00F01AFE002851D1228C002AF9
:10C530000AD029482B46223000902848616AC01E44
:10C5400000F00CFE002843D1228D002A0AD0224898
:10C550002B462A3000902148E16A401E00F0FEFD83
:10C56000002835D1216B00290ED002A803F01AFF54
:10C5700019482B46323000901848082202A9801F23
:10C5800000F0ECFD002823D1606B00280BD012498D
:10C590002B463A310091027901681048401C00F0A6
:10C5A000DDFD002814D1A16B002910D002A803F0F2
:10C5B00053F80948423000E00AE0009007482B4653
:10C5C000072202A9273000F0C9FD002800D1002071
:10C5D00004B070BD0A180000D41F0020292A0000F2
:10C5E00010B5044601F0B6F9204600F09FFA204647
:10C5F00002F040FE2046FFF773FC2046FFF7D8FE0E
:10C600002146044800F0FAF821460348FFF776FE79
:10C6100010BD0000942300200C25002030B5FF3011
:10C620000C464130C18E104B85B0994219D06B46F3
:10C630001C8000210191029103910491C5899D8084
:10C6400001259D71198103930492C08E01A9A6DF73
:10C65000002804D169460988A14200D00C2005B009
:10C6600030BD0820FBE70000FFFF0000FEB50546D7
:10C67000887A0C460A2805D8207C0A2802D8207E11
:10C680000A2801D90720FEBD20682860606868601C
:10C69000A07AA874217C78204155217EDE20415566
:10C6A000FF2000217730C943415301216846817141
:10C6B000384981802A46083201A90120A0DF0028DC
:10C6C000E1D100262746203709E0A06B7100415ACE
:10C6D00028896A46A1DF0028D5D1761CF6B2B87D3C
:10C6E000B042F2D8207A002802D1607A002806D021
:10C6F00021463C31284602F0CBFF0028C3D1214619
:10C70000284602F09FF80028BDD12146284602F0B5
:10C7100033FF0028B7D12146284601F06BFD0028E1
:10C72000B1D12146284603F0B9FA0028ABD1207ACE
:10C73000002812D02846FF304F3023460090433364
:10C7400008221549284600F029F900289BD12146E6
:10C75000284600F07BF9002895D1607A00280DD09A
:10C760002846FF305F300C492346009040330822B2
:10C770001131284600F012F9002884D121462846BC
:10C7800001F074FF00289BD121463E31284601F07C
:10C7900027FFFEBD12180000222A000030B5144603
:10C7A000827C85B08A4225D90A2251430A18FF307B
:10C7B0004130C18E104D1432A94219D069460C8007
:10C7C0000025019502950395049512888A8001221F
:10C7D0008A710D8103910493C08E01A9A6DF002800
:10C7E00004D169460988A14200D00C2005B030BDB3
:10C7F0000820FBE70720F9E7FFFF000030B50446FB
:10C800000A88FF30413087B0102A22D0112A39D04F
:10C81000502A3BD0512A1AD10D46881D8979012909
:10C8200015D141886A46204603F0D4FA00280ED07C
:10C830002168204600290AD0072269460A710A8821
:10C840000A814A884A810595026801A9904707B084
:10C8500030BD8988C18661890029F8D001226946E6
:10C860000A72002300930A804B8002A9019161891A
:10C87000C08E6A46A4DF0028E9D061680029E6D0AE
:10C880008847E4E70021C943C186E0E7204602F07B
:10C89000EDFDDCE77CB500250095069C6D462A8001
:10C8A0000A22514309186B8040310194FF30413016
:10C8B000498FC08E6A46A5DF7CBD70B504460D4623
:10C8C0000846FEF781FC2080656070BD0A78027022
:10C8D000497841700220704700B585B0184B482256
:10C8E0001849082003F044FC002801D0FEF76EFF31
:10C8F0006A460121002003F00FFC002801D0FEF75A
:10C9000065FF114803F0F6FA002801D0FEF75EFF3C
:10C91000684603F0F7FB002801D0FEF757FF0B48ED
:10C9200003F0E6FB002801D0FEF750FF084803F0B3
:10C9300037FC002801D0FEF749FF05B000BD00001C
:10C94000550102009C220020001E0020E1C50100CC
:10C95000950302001CB5044681786A460C4802F033
:10C96000EFFE002812D160781C21484309491C239E
:10C9700040181A46694602F09DFF064806494430B1
:10C98000807A80000A582146684690471CBD000006
:10C9900030200020E42700203C090200FFB50024DD
:10C9A000601C91B000070F46000F694610300294DA
:10C9B000087218784872887AF9263040801C88728C
:10C9C0001D461C2103A8FEF7F4FB6946087B0221E3
:10C9D000084369460873A9780A07F721002A02D09C
:10C9E0000822104300E00840102210436A461073EA
:10C9F00002A8049408900694079409940120907169
:10CA00009780009468781070A878507090783040C3
:10CA1000801C0840EF21084040084000907014211D
:10CA20000BA8FEF7C6FB01A80B9068466A460C905F
:10CA30009486D4861398108711980F9400890BAAB6
:10CA400003A91A9BA2DF15B0F0BD0000F0B58FB0AE
:10CA50000D4606461C216846FEF7ABFB684601788A
:10CA60000E2001436846017000240194039404944D
:10CA70000594012708A80694877016496846018422
:10CA800046200794415D684601774335297941770F
:10CA9000807FF9210840F721801C0840EF210840E1
:10CAA0004108490068468177142109A8FEF781FBF7
:10CAB00008A8099007A80A9068468485C485078657
:10CAC00033460D94FF333089573309AA6946A2DFF4
:10CAD0000FB0F0BD322A00007CB5134E00250C4685
:10CAE0003060002918D06946002000F0B5F8002811
:10CAF00019D101A9012000F0AFF8002813D1684630
:10CB000001790020002901D0022004E0694609785B
:10CB1000002900D00B2020707068002802D1FEF799
:10CB2000D0FD054628467CBD941F002010B51C4C46
:10CB30000188606810290DD011290AD1401E60605B
:10CB400007D1FEF7BEFD002803D02168002900D0E0
:10CB5000884710BD00281ED100210122084600F0A0
:10CB6000C7F8002801D0072811D10722022101208F
:10CB700000F0BEF8002801D0072808D104220221C5
:10CB8000002000F0B5F8002805D0072803D0216860
:10CB9000002900D088476068401C606010BD00001C
:10CBA000941F002010B5032000F020FA002801D0C7
:10CBB000062800D1002010BDF8B507460024234800
:10CBC00002E0641C042C1AD2A2008258BA42F8D1A6
:10CBD000042C14D21D481E4E0C38002929D00129DE
:10CBE0000ED002290BD16000201880194578002D45
:10CBF00005D018480169002901D028468847F8BDAA
:10CC000061006118755C8E19717800290CD011498A
:10CC10000A224968806851430E4A521CFEF74AFFB7
:10CC2000002801D10B4847700A48B17814300155EB
:10CC3000DDE78068FEF77CFF06486100611814306C
:10CC40008919005D8D78A842D1D0F8BDF80802009E
:10CC5000B42500207C1F002004280CD2074A12694A
:10CC6000074B80001B5C01209840904300D00120BE
:10CC70000870002070470020FAE70000000500500F
:10CC8000F808020010B5184C04281FD0072826D039
:10CC90000A2818D00D2815D1A0881449884211D02F
:10CCA0000120E16801F07EFEE068401CE060A078B1
:10CCB000401CC0B2A070062804D120461430E060A9
:10CCC0000020A07010BD03F0DBF910BD1321A08877
:10CCD00076DF06E00028F8D0FEF778FD10BDFFF7FC
:10CCE00075F90828F6D110BD001F0020FFFF0000D5
:10CCF00070B50023042811D2440004190D4D012AF7
:10CD000002D101290DD0002246008019094E801958
:10CD100000290CD0012906D0022906D00723184685
:10CD200070BD0D30C2B22A55F9E74270F7E7827044
:10CD3000F5E70000B425002010B5054A0146127A37
:10CD40000020D20702D0084600F054F810BD0000C1
:10CD50007C1F002070B50E46204905464E608D6050
:10CD600000200A61A9071ED5002401221146204691
:10CD7000FFF7BEFF641C042C02D20028F5D012E09D
:10CD8000002810D1720804211548FEF7D7FC0028AE
:10CD900009D1FEF7C1FC002805D11148114A002134
:10CDA0001438FEF70FFEE90706D00F220E49520590
:10CDB0008A600023CB608A6100280DD108480B4AA5
:10CDC00000211C38FEF7FEFD002805D10448084A62
:10CDD00001211838FEF7F6FD70BD00007C1F002011
:10CDE00008090200DDD001000005005049EA0100F9
:10CDF00001B70100FEB57A4D0722EB6892059A4310
:10CE000002936B6800939C0006461B1900200121C9
:10CE1000019349050746734C3300FEF72BFB180DB1
:10CE20001515374755677C887F8891DE9E9E9E9EAC
:10CE30009EC8CED1D8DEDE140F21029A4905914357
:10CE4000A160E7602F70FEBDA260E76060680F22FE
:10CE500052055040800209D5A160E760022E02D140
:10CE6000E120C0000AE07D20400107E0E160A7600A
:10CE7000022E01D1C82001E0FF2091302E706421E4
:10CE8000FEF754F90099414300223FE0A260E760B9
:10CE900060680F2252055040800204D5A160E7600F
:10CEA00019204001EAE7E160A760E3E7A260E760DC
:10CEB00060680F2252055040800202D5A160E760F1
:10CEC000D1E7E160A760D7E7A260E76060680F2262
:10CED00052055040800202D5A160E76001E0E160A8
:10CEE000A7602E700098410000220FE0A260E7606A
:10CEF00060680F2252055040800202D5A160E760B1
:10CF000001E0E160A7602E700099002236480068B9
:10CF1000FEF7D0FDFEBDA260E7601BE06168012066
:10CF2000800502468A43A2600140E16010E060682B
:10CF3000012189050A468243A2600840E060E3E7D8
:10CF40006068012189050A468243A2600840E060CA
:10CF50000199C9E7E160A7602DE023484068FEF72A
:10CF6000E7FD11218A1B01D0002807D00F22E968B4
:10CF700052051140A160E760EF60FEBD0121C905C7
:10CF8000E960012A0CD91046C82148436421FEF704
:10CF9000CDF869680022414313484068FEF78AFDD6
:10CFA0000F22E96852051140E160A760FEBD0F2124
:10CFB0004905A160E7602E70FEBD07229205AAE731
:10CFC0000D214905A160E76001218905C2E7032120
:10CFD000C905A160E7608910BCE70F214905B9E7E1
:10CFE0007C1F002000050050EC080200F0B5002175
:10CFF0000B4C0C4D03273F048A00A258920056198F
:10D00000326801238B40034000D00323BA431B0442
:10D0100013433360491C0429EED30020F0BD000007
:10D02000F8080200000700507CB5194C0146A27FA9
:10D030000020002A19D0227F0C2326465A43203E86
:10D040009519002913D001A800902B786A78696897
:10D05000A86802F057FF0F49884208D169466A78EC
:10D0600089888A4203D329707CBD05207CBD227F3C
:10D070000C235A43002192195160227F521CD3B2D3
:10D080002377A27F521EA277052BEFD121777CBD9B
:10D090005425002004300000F0B50F4C0646A57F53
:10D0A0000020062D15D0657F0C277D432746203FA5
:10D0B000ED19AE6069602B706A70A17F491CA17781
:10D0C000617F491CC9B26177052901D100216177CF
:10D0D000F0BD0420F0BD00005425002010B50078FC
:10D0E0000221FFF769FD10BD0022D24383000449ED
:10D0F0000428CA5002D30818203002777047000075
:10D1000024290020F0B50025ED43002A02D0002399
:10D11000042601E0042308260B4C04E09F00E75995
:10D120007F1C04D05B1CB342F8D32846F0BD261800
:10D130005DB2203635709E00A151002AF5D1E1186C
:10D1400020310877F1E7000024290020024909185E
:10D15000202008567047000024290020FFB58FB01A
:10D160001E4615460F0002D10020FEF72FFB002DB2
:10D1700002D10020FEF72AFB1C216846FEF719F8B1
:10D18000684601780220014368460170002401943A
:10D19000039404940594012108A8069481706846BC
:10D1A0000F99018407943178017771784177807FF6
:10D1B000F9210840F721801C0840EF210840410870
:10D1C000490068468177142109A8FDF7F2FF08A8F5
:10D1D000099007A80A9068468585C4850586044895
:10D1E0000D9709AA69460088189BA2DF13B0F0BD0D
:10D1F000D41F0020F8B53E481422017851430C1882
:10D20000E0680C2148433A492769CC314018058928
:10D2100041890091241D466802F020FB01463846F2
:10D22000FDF784FF002932D000200099A2884D43E9
:10D230006188AE198918CD1900222E4900280A618B
:10D2400009D002F00BFB6188884222D0B54202D19E
:10D25000A08800281DD0A06802281AD002F0FEFA8B
:10D26000A188CA1901461046FDF760FF214C8808C5
:10D27000E06002F0F3FA01462846FDF757FF002967
:10D2800011D00020B5422FD000280ED02CE0012074
:10D29000CBE702F0E3FA01463846FDF747FF1549B0
:10D2A0004861032021E00120ECE7ADB2B7B202F003
:10D2B000D5FA01463846FDF739FF064602F0CEFAA8
:10D2C00001462846FDF732FF864201D1781B09E06E
:10D2D00002F0C4FA064602F0C1FA01462846FDF7FC
:10D2E00025FF701A80082061022002F0DDFEF8BDE3
:10D2F0004C2800203820002010B50748142201785F
:10D30000514308180079042802D000F059F810BDE4
:10D31000012002F0C9FE10BD4C28002010B50B48BA
:10D320001422017851430818094AC1881162007912
:10D33000012806D0032801D0042801D1FFF75AFFA5
:10D3400010BD012002F0B0FE10BD00004C280020EE
:10D350003820002014225043054A00218018017112
:10D36000C18001220161C2604161018170470000FA
:10D370004C280020F8B5104C069E65780A2D19D06F
:10D3800027787D190A2D00D30A3D14277D432D19D6
:10D3900028716A6103C92961E860EB802E81607899
:10D3A000401C607005480078002801D1FFF7B6FFE7
:10D3B0000020F8BD0420F8BD4C28002038200020B3
:10D3C00010B50D4C14212078484301190020091D87
:10D3D000FEF70EFA2078FFF7BDFF6078401E607000
:10D3E0002078401CC0B220700A2801D10020207093
:10D3F000002002F059FE10BD4C280020F8B523484B
:10D40000C16800293ED00E6821494C680769C07880
:10D41000E11B0D022D0AED1C002814D101201D4A2C
:10D42000000450601B4A403A50601B4940000860AD
:10D430001A4908601A49012008602F20FDF74AFEAA
:10D4400012490120C870B54200D23546E8190002E1
:10D450000F4B000A403318600D4A5168001B091B2E
:10D460000902090A0002000AC91C814209D9506850
:10D4700018602F20FDF72EFE012007494004803957
:10D480000860F8BD02F0EAFCF8BD00008020002032
:10D49000001501404013014080E200E000E100E09F
:10D4A00000100140F8B50646108814468446801DD9
:10D4B0000D46984201D90C20F8BD32880720062A73
:10D4C000FAD31927FF01184BBA4201D99A42F3D176
:10D4D00071880629F0D3B94201D99942ECD19A4218
:10D4E00003D0994201D08A42E6D8052160462954EA
:10D4F00020881221401C80B2208029542088401CA2
:10D5000080B220804119308803F0E6F82188401865
:10D5100080B220804119708803F0DEF8218840181D
:10D5200020800020F8BD0000FFFF000010B5FEF7CE
:10D530004DF910BDF8B5164801F0FEF9144D00265E
:10D540000C3D144C002807D0616900291CD0012033
:10D550006A461070684616E02878002805D0616990
:10D56000002911D0684606700DE0687800280DD0BB
:10D57000A168094800220068FEF79CFA002803D041
:10D58000A169002900D088472E70F8BD6168F0E7D6
:10D59000CC1F0020042700202809020070B5094B89
:10D5A00004469E7A082000250E4207D00648844291
:10D5B00002D01889A04202D10020156070BD05205C
:10D5C00070BD00001C280020FFFF00000C21484314
:10D5D000064910B5012240188272911E0181FF2177
:10D5E000C1720721FDF7E5FD10BD00001C280020D9
:10D5F00010B5134C207900071FD46069401C60618E
:10D60000E068002801D0042004E001F0A3F900281C
:10D6100003D0022002F0B4FE10BD2069002809D01A
:10D620006068C10701D00320F4E70121084360606E
:10D630000020EFE7FFF760FE10BD02F095FE10BD81
:10D640003820002010B5084841680A0708D48A0726
:10D6500002D5012211434160022002F091FE10BD6B
:10D6600002F082FE10BD000038200020F8B5002630
:10D670000124154D23E06968F000471838782146E9
:10D680002A698140114218D08A432A6101F032FD93
:10D690003A782146EB6891401940034693409942FD
:10D6A0000BD17978012901D0012100E000217B68AC
:10D6B0004140002B01D010469847761CF6B22878DE
:10D6C0008642D8D3F8BD00005C200020FEB50E468F
:10D6D000044681786A46234802F032F8002827D1B0
:10D6E00060780C21204F4843C019807A400620D42E
:10D6F000022E1ED0012E1ED01C4DA0781C214843A6
:10D7000019490023FC3941181C226846A847002803
:10D7100013D0022E0CD020780C21484312490C3132
:10D720004018807A124980000A582146684690477E
:10D73000FEBD104DE1E7104DDFE7022EF8D0607816
:10D740000C214843C019817ABF2211408172607850
:10D750001C2148430449383941181C231A4668469D
:10D76000A847D8E7302000201C280020ED02020046
:10D770002C090200F5FA010019FA010070B50546FE
:10D78000114A124800241C2363431B189B7EFF2B65
:10D7900004D0641C072CF6D3104670BD0A78022A08
:10D7A00009D01C2262431018FD2282760722103015
:10D7B000FDF7E6FC04E01C2161430818FE21817698
:10D7C0002C700022E8E700004380000020270020A2
:10D7D000F7B505250F4F06460024002E0AD01C2061
:10D7E0006043C019072231461030FDF7F4FC0028D1
:10D7F00007D00AE01C206043C019018B02988142C7
:10D8000003D101980025046002E0641C072CE4D3D6
:10D810002846FEBD202700207CB5054681B26A4619
:10D82000074801F08DFF040008D15821684601F037
:10D83000B1FF040002D1284601F0DAFE20467CBD8B
:10D840003020002070B505460C46100001D0FDF7D1
:10D85000BDFF2078142801D0212804D104222946B4
:10D860000248FDF78DFC002070BD0000101F002055
:10D870001FB5694608731A4800F056FA002801D00F
:10D88000FDF7A4FF01F0F0FF002801D0FDF79EFF97
:10D8900003A800F057FA002801D0FDF797FF01A870
:10D8A00005210130FDF785FC6A46507901210843C6
:10D8B000E1221040DF220C3010406A4650710720F0
:10D8C00090711020D0710748009005481171694689
:10D8D0000D3800F089FB002801D0FDF777FF1FBD50
:10D8E000101F002045D8010000B593B00221684602
:10D8F000017011494180114981800121C18040217D
:10D9000002A8FDF756FC0EA102A8FEF7D6FF684656
:10D9100010900120014610A820310171002001461D
:10D9200010A8417102A8FEF7BBFD002801D0FDF749
:10D930004DFF13B000BD000015190000EEEE000011
:10D940004E6F7264696353656D69636F6E6475636E
:10D95000746F7200F0B5054693B000200290FF246A
:10D96000EC480E940078002849D0EB4E306800282F
:10D9700045D001A800F0D8F9002801D0FDF726FF16
:10D98000281D05902A2069460883FF2000278871FA
:10D990000F710397E04C28880C3C10280ED0A88803
:10D9A00003AA0221FFF7FAFD002807D103980C21F2
:10D9B00041430919CA7A69468A7148712888132235
:10D9C00017287CD00FDC10281BD0112853D0132827
:10D9D00076D0142813D103980C2148430019C07A3B
:10D9E000FF2871D08DE0CD4918286BD01C286AD053
:10D9F000522804D1B07A8000095801A8884713B092
:10DA0000F0BD03AA0121C648FFF7C8FD0028F6D1E2
:10DA100003990C20484302260019867211236A4696
:10DA200013745171A988018186720722A91DFDF71F
:10DA3000A7FB687DC10707D04108B6480830405CA5
:10DA4000FF2808D00E9006E0B54A0EA9A81DFFF7E2
:10DA5000BFFE00280ED103990C22514309190E98DC
:10DA6000C8728A7A08231A438A726946887101A8A3
:10DA7000FEF770FF3AE103980C2148430119887AB8
:10DA8000FD2210408872010706D5C0090DD0002183
:10DA900001A8FFF71BFE08E068468079FF2804D044
:10DAA00001F0A6FDFF206946887103980C225043BF
:10DAB00010210019817212206946087416E17FE076
:10DAC00030E001E0D6E00FE1EA890EA90020FFF77F
:10DAD0007FFE00280ED103990C22514309190E989C
:10DAE000C8728A7A08231A438A726946887101A823
:10DAF000FEF730FF03980C2148430019C07AFF2835
:10DB000006D003981C2148438349443940180290A9
:10DB100003981C21484383494218A888002302998E
:10DB200082DF6CE768460274039B0C20584301199E
:10DB3000887A042210438872C87AFF2830D01620D1
:10DB4000694608741C204343734814212838181868
:10DB50000830FDF72EFB03980C2148430019817A09
:10DB600040221143817203990C2200204A430A90FB
:10DB70001219D27A1C235A436A4B0C90D2180B927A
:10DB80001C2251431A46C432891807910890099003
:10DB9000321DA88807AB00217FDF0028C1D1A5E096
:10DBA0000EA8FFF7EBFD002801D00746DBE769462A
:10DBB0000E98887103990C2251430919C872D2E753
:10DBC000707A0C2140084000707203986E4602463D
:10DBD0004843011984468B7AFB2003408B72142042
:10DBE0003074A879002804D0C87AFFF715FEAF7901
:10DBF0007CE0E879400779D5B079FF2876D008260F
:10DC000033438B72EB7A9B0708D51C2503466B4385
:10DC1000444D5B199D7E6D086D009D76CB7AFF2B80
:10DC200064D06346E35C022B10D01C2250433D4D70
:10DC3000072240191030FDF7A3FA684680791C21AD
:10DC400048434019817EFD2211400DE01C214A43CA
:10DC50003149443951184A8A1C21484331494018F6
:10DC60000283817E490849008176012101A8FFF7DE
:10DC70002DFD3BE0A8790209012A23D10007000FFE
:10DC800001281FD103980C2242431219927A1207DD
:10DC900018D51C2148432049283940181421083040
:10DCA000FDF787FA16206946087403980C2148434B
:10DCB0000119887A602210438872707A0221084321
:10DCC00070720FE003980C2250430019827A80236F
:10DCD0001A43827215206A461074B07A800009587F
:10DCE00001A88847002701E0684602743A4604A963
:10DCF00001A8FDF777FD6846007C122800D07EE67B
:10DD000003980C2141430919897A0129F7D0FFF7BB
:10DD10005DFC74E620200020282800204C09020029
:10DD2000FFFF000020270020002806D0FF210170FF
:10DD300041708170C1700020704701487047000039
:10DD40000E800000F0B585B0040036D029480025CB
:10DD50000560457285722846FFF738FC25481C216E
:10DD60002838FDF726FA0026FF27304601F040FC50
:10DD700021488755761C072EF7D3582168468180A5
:10DD80000721C1801D481C4900900831684601F0F8
:10DD9000E5FD00280FD1184E0120083E3070207894
:10DDA00000280CD069468888C988484381B230462B
:10DDB000103001F0EFFC05B0F0BD1148FBE7114F4A
:10DDC00000240D48A1B202AA083001F0B9FC0028D5
:10DDD00009D11C206043C01900231C2202A901F0B4
:10DDE00069FD002801D03570E5E7641C072CE8D3F5
:10DDF000E1E70000282800202820002089DE01001B
:10DE00000E800000202700200B4610B51A491B4A3F
:10DE10000978002920D0911D002805D0002B03D0BF
:10DE20000178002918D101E0084610BD144909689D
:10DE3000002911D0114A8178D21EFF290ED01C2052
:10DE4000414310480918887E800705D407221846E8
:10DE50001031FDF795F90022104610BD4078FF28DB
:10DE6000FAD00C21484306490C394118887A8007BA
:10DE7000F2D507221846ECE7202000200880000099
:10DE80002828002020270020FFB554488FB00068C4
:10DE9000189F1E4600284FD0582F4DD86846FFF7D0
:10DEA00043FF002801D0FDF791FC00246846047070
:10DEB0000471254605970696A9B20DAA484801F0B7
:10DEC0003FFC002806D108220DA90F98FDF783F921
:10DED000002819D06D1C072DEED368468078079076
:10DEE000FF2829D010982025032810D03D481C2158
:10DEF000301AFDF71BF9012707282DD204A802903C
:10DF0000119800281AD021E068468570E5E7582F5F
:10DF100003D040206946087101E0684605716946F2
:10DF20000879032108436946087104A8029001A9F1
:10DF30006846119AFDF756FC13B0F0BD07993846B4
:10DF400088402749103949680842F5D0079802F0FF
:10DF5000C9FB6846057138E020481C214438301A56
:10DF6000FDF7E4F800280BD01C4D1C21283D701B48
:10DF7000FDF7DCF800281AD0402069460871DBE77D
:10DF800004A8029068460571447014480A940C3045
:10DF90000B9050380790684680781C2148431149FF
:10DFA0004018089007A80690182005900DE0302131
:10DFB000684601714470C77008480C38807A800741
:10DFC00003D428461C21FDF7F4F81098694602286E
:10DFD000087901D00221A5E73843A5E728280020C9
:10DFE000302000202027002070B5064618480D4636
:10DFF000007800280ED01749002E0ED0002D0CD02E
:10E000002868002809D0144C2168002907D011483D
:10E010000A3870BD0F48801F70BD084670BD206073
:10E020000522691D201DFDF7ABF82879A072207A22
:10E030000221400840000843FB2210402072E07992
:10E040000123184308431040E0710020307070BD78
:10E05000202000200E800000282800207CB50446E7
:10E0600022480D460178224800292CD0811D002C21
:10E0700028D0002D26D02178002924D11D490968F7
:10E08000002920D01A496078083100281AD119488F
:10E090000C38807A012815D0A078072812D21C22CB
:10E0A0005043154A8018807EFF280BD0E96800296C
:10E0B0000ED0AA68002A0BD0142A09D22878012889
:10E0C00002D005E008467CBD0A482038FDF758F824
:10E0D0000648A1786A46103001F032FB28780749DB
:10E0E00080000A582146684690477CBD20200020C9
:10E0F0000880000028280020202700202C0902008A
:10E10000F0B5284A284B1278002A2BD09A1D0028F7
:10E110000BD0002909D00C68002C06D08C68002C8C
:10E1200003D0007800281DD101E01046F0BD1F4843
:10E130000068002816D000231C4C1A4618460C3CD8
:10E14000E57A854202D1A57AAD0724D40D7B9542AC
:10E1500011D91C2506466E43154D7519AE7EF6077E
:10E1600002D008E01846F0BD8E689700F5510D4DBD
:10E170000835A854521C0D799D420CD91C25064621
:10E180006E430B4D7519AE7EB60704D49F00103553
:10E190000E685B1CF551401C0728D1D30B710A7324
:10E1A0000020F0BD2020002008800000282800204A
:10E1B0002027002010B50E4900234A788C78A2420F
:10E1C00012D0521CD2B24A70022A00D14B704A7847
:10E1D000074B920018339A58026008691018000221
:10E1E000000A0861012010BD0360002010BD00007E
:10E1F000802000207FB50646087E0D46002827D0E7
:10E20000E869002824D000241FE0E869E1004318F1
:10E21000002069460390087B0A2108436946087379
:10E22000D9790A2060438019C907C90FE0301A1D47
:10E230000191029000921A8803A930469B1C01F0BC
:10E24000A1FC002805D1641CE4B2287EA042DCD8E1
:10E25000002004B070BD000010B5002803D01128C4
:10E2600002D0FDF7DBFA10BD0248082241681143D5
:10E27000416010BD3820002010B51C4C217820468C
:10E280004068012906D0022929D0032912D10007AC
:10E2900017D513E0000711D4154814220178514313
:10E2A0000818C188A28B891A0904090CC18002D000
:10E2B00002F01EF810BDFFF783F810BD00F064FDFA
:10E2C00010BD6069401C606100F044FB002803D071
:10E2D000207801F0E9FE10BDFFF70EF810BD607860
:10E2E000044980000858804710BD000038200020F5
:10E2F0004C2800207009020010B528DFFFF7ACFFA2
:10E3000010BD10B529DFFFF7A7FF10BD0EB5112016
:10E31000694608720F220FA102A87CDF002801D0F5
:10E32000FDF754FA0F4878DF002801D0FDF74EFAC8
:10E3300000200090019006206946088018224A803B
:10E3400088802B20C88068467ADF002801D0FDF73E
:10E350003DFA0EBD4E6F726469635F4B6579626F03
:10E3600061726400C1030000002070470020704704
:10E3700000207047F8B5064640781C2104464C43FF
:10E3800024490C2250436118224A00254B681C3254
:10E390008018AE462F469C46002B0CD0827A13463E
:10E3A000D20908D05A0606D40D461A4A614689B2E7
:10E3B000175908358E46174C00891C343B46724667
:10E3C0002946A9DF0B2819D0002800D01248012FB8
:10E3D00013D170780C214843001900890F4AA7DF38
:10E3E00000280AD00E49884212D0082810D0891C73
:10E3F00088420DD011280BD00020F8BD70780C2178
:10E40000484301230019008972462946A9DFE0E745
:10E410000148F8BD0028002041800000FFFF0000F7
:10E420000230000070B50C46014660781C22084D91
:10E4300050434019382301F03DFA002807D1617894
:10E440001C22514349194A68521C00D14A6070BDD0
:10E4500000280020F3B587B00D4614206946888255
:10E4600068780C2103274843224E3B4680190089D7
:10E4700005AA6946AADF002838D168781C214843DC
:10E48000741A001969468A8A0830FCF7A4FE00282D
:10E49000687807D01C2148430119496800290DD02C
:10E4A000154E0CE00C2141438919897A89071DD446
:10E4B0001C2148430019FCF77CFE17E00F4E275043
:10E4C0006846828A68781C2148430019426068784F
:10E4D0004843001969460830FCF752FE68781C2151
:10E4E0004843011938231C220798B047002009B07F
:10E4F000F0BD00001C280020F5FA010019FA010007
:10E5000010B5FFF737FF10BD10B5FFF78BFF10BD3B
:10E5100010B5FFF79FFF10BDF8B50746104E012557
:10E52000BD403068FDF704FB00280DD10D4C20697B
:10E53000284207D1384600F0DDFD0028E06804D00D
:10E54000284303E0A8432061F8BDA843E0602069A8
:10E55000002228432061A1683068FDF7ABFAF8BDBE
:10E56000840902005C20002070B51B4C2079000754
:10E570002ED41A481422017851430D182E6901F047
:10E580006DF90146E8882A89761E80188019FCF703
:10E59000CDFD21690025002909D06169814206D19C
:10E5A000E560606801210843606000200AE000F037
:10E5B000D1F9002802D00220E56003E0206900289C
:10E5C00003D0032001F0DCFE70BDFEF795FE70BDA8
:10E5D00001F0CAFE70BD0000382000204C28002049
:10E5E000F0B58FB00F4605461C216846FCF7E1FDEB
:10E5F00068460178042001436846017000240194B4
:10E60000039404940594012608A80694867016497C
:10E610006846018407943978017779784177807F5B
:10E62000F9210840F721801C0840EF2108404108EB
:10E6300049006846817708A8047114210AA8FCF7EC
:10E64000B8FD08A80A9007A80B906846068644867D
:10E65000868609A82B460E90FF3328896F330AAAB5
:10E660006946A2DF0FB0F0BD4C2A000070B590B033
:10E670000C4606461C216846FCF79BFD6A4610784E
:10E680000221084310700025019503950495059516
:10E69000012008AA069590711B486A469084342090
:10E6A0000795005D10773520005D5077907FF92148
:10E6B0000840F721801C0840EF2108404008400036
:10E6C0009077208E08AA1070000A50703034A0781D
:10E6D0009070E078D070042414210AA8FCF769FD3A
:10E6E00009A80A9007A80B906A4614865586948656
:10E6F00008A833460E90FF33308967330AAA69466B
:10E70000A2DF10B070BD00004A2A000070B596B0BC
:10E710000024009401940294082168460394018027
:10E7200084700125C570601C0107090F68462031FF
:10E730000171601C0107090F6846203141712946AB
:10E7400020318171058184720221C172012001464C
:10E7500068462031417301200146684620318173AB
:10E760000326482104A8FCF724FD324804903248CF
:10E7700005906846057644768576079008A805706A
:10E7800002A8099008A804724C2168460B9481865F
:10E790002A48FF210C90023110A801808470C670B5
:10E7A00084710120014608A82031129401770020CD
:10E7B000014608A841770120014610A820310171C7
:10E7C0000020014610A841710120014610A8203107
:10E7D000C1740120014610A82031017500200146B6
:10E7E00010A841750120014610A820318175012033
:10E7F000014610A82031C1750120014610A8203122
:10E8000001730120014610A8203141730020014608
:10E8100010A881730120014610A82031C17304A9FA
:10E820000748FDF723FF002801D0FCF7CFFF16B003
:10E8300070BD000099F3010079000200301F002034
:10E84000942300207FB50646887A0D46002833D0F1
:10E85000E868002830D000242BE0E868E100431885
:10E86000002069460390087B02210843694608732B
:10E870009979090702D00821084301E0F7210840EF
:10E8800010210843694608730A2060438119D8792A
:10E890001431C007C00F1A1D0291019000921A880E
:10E8A00003A930469B1C01F06DF9002805D1641CBA
:10E8B000E4B2A87AA042D0D8002004B070BD000015
:10E8C000F8B51C4C2078002833D02069002807D0E8
:10E8D0000026E068002805D00025002E04D011E0B5
:10E8E0000126F6E70125F8E7684652DF052804D03F
:10E8F000002804D0FCF76AFF04E0012602E0216949
:10E9000000988847002D10D1608869460880A0686B
:10E9100061DF052804D0002804D0FCF757FF04E08D
:10E92000012502E0E168A0688847002EDCD0002DB8
:10E93000D3D0F8BDA020002041880548028891422C
:10E9400004D34088814201D80120704700207047DD
:10E95000C41F002070B50E481422017851430C18D2
:10E96000256900F07BFF0146E08822896D1E801832
:10E970004019FCF7DBFB07494A69824206D3824211
:10E9800002D10869002801D0002070BD012070BDAF
:10E990004C28002038200020800701D0002070473C
:10E9A000012070477CB5044601A800900D46002365
:10E9B00022460D4801F0A6FA0C49884209D1684662
:10E9C0008388A34204D8224629460748FEF764FB01
:10E9D0007CBD0028FCD00828FAD005498842F7D031
:10E9E000FCF7F4FE7CBD00009423002004300000FE
:10E9F0000134000030B51588EC1C9C4201D90C2074
:10EA000030BD02244C5513881C255B1C9BB213801F
:10EA1000CD5413885B1C9BB21380012807D00228B9
:10EA200007D0032807D0042807D0072030BD0020D6
:10EA300004E0012002E0CC5401E00320C854108817
:10EA4000401C1080002030BD10B50448017AC90771
:10EA500002D00078FEF7CEF910BD00007C1F002028
:10EA6000F8B52C49C8680A690C780F798968864618
:10EA7000944600913EE00099E20055182A7836E06D
:10EA8000182353436968521CC918AB78D2B2934219
:10EA900000D100220B78022B02D0032B27D123E0D8
:10EAA0004E680346014603E0B14204D00B46C969F3
:10EAB00000291CD0F8E7002919D08B4208D1C06981
:10EAC000002805D1144F0126BE600026B446012758
:10EAD0000E68C969D961002909D00B689B190B60C0
:10EAE00005E00174C06900E000210028F9D16978CF
:10EAF0009142C5D12146641EE4B20029BBD105492B
:10EB000062460A61C8600F71704501D00120F8BDEE
:10EB10000020F8BD8020002000100140F8B5044618
:10EB200031480026C168009107784EE02E48F90070
:10EB300080680D1843E0002C02D02046E4691FE0F5
:10EB40002878182141436A68401CC0B251182870C7
:10EB5000AA78904200D12E700A784868012A30D1F4
:10EB6000027C002A2DD18A684260CA6882600A69E4
:10EB7000C260496981611C490979002900D0466059
:10EB8000194943680A699C46991A0902174B090AF0
:10EB9000994202D28268891807E06146511A090237
:10EBA0008268090A8A4202D9511A016000E00660AF
:10EBB0004660012186600174C66101F073FC002C7F
:10EBC000B9D1287869788842BAD138467F1EFFB219
:10EBD0000028ABD10448C1680098814201D00120CF
:10EBE000F8BD0020F8BD000080200020FFFF7F005E
:10EBF00098B0594B594A05210020FCF713FF002813
:10EC000001D0FCF7E3FD564A01215648FCF7DAFE35
:10EC1000002801D0FCF7DAFD534A54490320FEF7DF
:10EC200099F8002801D0FCF7D1FD01A90020FDF7DB
:10EC300053FF002801D0FCF7C9FD6846007902287F
:10EC40007FD0002069460870FDF746FE484A0A2139
:10EC50000820FCF7A1FE002801D0FCF7B7FD6846AC
:10EC60000078FEF705FEFFF751FB382101A8FCF7FD
:10EC7000A0FA022268460271012405218471C17143
:10EC800084823C48374906902422091D0FA8FCF7CE
:10EC900077FA39480090394B0FAA002101A8FDF7F7
:10ECA0008DF8002801D0FCF791FDFEF71DFEFCF762
:10ECB00069FFFFF72BFD3248512101606421846018
:10ECC0004160047301462B48223001F075F91C2184
:10ECD0006846FCF76EFA0520C00301900F2000047F
:10ECE000002402900094032168460173C4810474D7
:10ECF0002448069005946846FDF730FB002801D0B3
:10ED0000FCF764FD1E481E49303004774477847751
:10ED1000002010310C2242435218401C5460052838
:10ED2000F8D310480121002209040068FCF7C2FE54
:10ED3000002801D0FCF74AFD0320FDF767F905E044
:10ED4000FFE701207EE7FCF717FE48DF0028FAD036
:10ED5000FCF73CFDF7E700000DBA0100D4200020CD
:10ED60000DBD0100C408020085CC0100CD0C0000DF
:10ED7000E4220020061F0020B5BD0100E1F10100E2
:10ED8000242500202DD5010010B504480822416833
:10ED900091434160007801F087F910BD38200020D0
:10EDA00008B5002300936B4618809970DA700098BC
:10EDB00008BD70B5144682880E4605462088111D90
:10EDC0004118921C994201D8FE2A01D90C2070BD2D
:10EDD000521C32542088FF21401C80B220803154C4
:10EDE0002088401C80B220808119288801F074FCA2
:10EDF0002188401880B22080AA88002A09D0A968FA
:10EE0000002908D08019FCF7BBF92088A988401890
:10EE10002080002070BD072070BDF8B50F46017836
:10EE200014460546012902D16878002806D02088BA
:10EE3000821C9A422DD8012902D006E00720F8BD95
:10EE400069784118891C994223D8181A801E86B205
:10EE5000684606802188B81C081869467DDF0028AE
:10EE6000EDD12878022805D169460988B14201D838
:10EE700009210AE00821012805D16878B04202D8AA
:10EE80006A46108001E06846068068460088FE28D1
:10EE900001D90C20F8BD2288401CB8542088401CA1
:10EEA00080B22080395420886946401C208009881F
:10EEB000401820800020F8BD0020704700207047D7
:10EEC0000020704700B50948018C008DC9B20006CA
:10EED000000F012907D10300FCF7CCFA0403030556
:10EEE0000305012000BD002000BD0000C00F00F0A0
:10EEF00000B50948018C008DC9B20006000F012938
:10EF000008D10300FCF7B6FA05060604060406005D
:10EF1000012000BD002000BDC00F00F000B50B486F
:10EF2000018C008DC9B20006000F01290CD103002D
:10EF3000FCF7A0FA0D0A0A0A0A0A08080A0A0A08CF
:10EF40000A0A0800012000BD002000BDC00F00F02B
:10EF50008207D30EFF229A408907090E10B5994007
:10EF600000280BDA03071B0F083B9C080C4BA4007E
:10EF7000E318DC6994430C43DC6107E08408094B27
:10EF8000A400E418236893430B432360C106C90E11
:10EF900001208840044908600449086010BD000051
:10EFA00000ED00E000E400E080E200E000E100E0CD
:10EFB000F3B581B00F46019800F036FB012400281C
:10EFC0001E4E019817D0FEF7C1F880192030007F3F
:10EFD0008009032802D0012806D007E018480069FC
:10EFE00001998C40204201D1022100E003210198C7
:10EFF00000F0CEF8FEBD00F023FB0028FAD0019807
:10F00000FEF7A4F805468100C81D0E4AF93089189C
:10F010000A6980B222430A610B494018002101604D
:10F02000002FE7D00198FEF791F8800030580028B3
:10F03000E0D00648AC404460FEBD0000242900201A
:10F040000005005000650040006000400063004083
:10F05000FEB5044623480E460019202141560027DC
:10F06000C8171346401C01D0082738E0F27819462B
:10F070002046FEF747F80546401C2FD0B078002800
:10F0800007D01948A10009180868022290430860B7
:10F0900007E000217378204600910A46019100F0B4
:10F0A00065F8F078002810D01048AA0010183178C0
:10F0B00002690F4B1A400261E206D20C8907890BE4
:10F0C0000A4301690A43026109E00648327840199F
:10F0D0002030017F92011143017700E00427384678
:10F0E000FEBD0000242900200007005000650040FC
:10F0F000FFE0FCFF03490969C140C807C00F00D009
:10F10000012070470005005070B5124D2879002885
:10F1100001D0082070BD0F4900204039421E0B1855
:10F120002033401CC0B21A702028F8D30024204697
:10F13000FDF7DAFF641CE4B2082CF8D303210620A3
:10F14000FFF706FF01200449C0074860012028712D
:10F15000002070BD6429002000630040024800794F
:10F16000002800D0012070476429002030B55200EB
:10F170000A439900039C0A432102049D0A4329047F
:10F180000A43024980004018026030BD0007005069
:10F19000820006481018026803231B049A43026089
:10F1A000026809040A43026070470000000700502B
:10F1B000034940180068012800D000207047000073
:10F1C000006000404058002800D001207047032212
:10F1D000120280184068084000D0012070470000EB
:10F1E00000B595B00300FCF745F90916060A0C12A4
:10F1F0001414192C0A00052004E0FCF7E7FA15B0F6
:10F2000000BD0220FDF798FD0028F6D1F7E70420A5
:10F21000F8E70320F6E700F033FFF0E7082069463F
:10F220000871087304A800900CA802900F48FEF71C
:10F2300067FF002801D0FCF7C9FA6846FCF7D6FF43
:10F24000E2E70A480D300078FF28D8D00748694621
:10F250000D30FEF7D9FD06498842D0D0002801D0F4
:10F26000FCF7B4FA6846FCF791FECDE7031F0020D7
:10F27000058000007FB505460088274C11281ED068
:10F280000FDC012817D0022828D0102808D1072029
:10F29000FDF752FD002801D0FCF798FAA888A0805D
:10F2A0007FBD3A2803D051281ED05528F8D113210C
:10F2B000A08876DF15E00120FDF7B6FE7FBD0020B7
:10F2C000FDF7B2FE0020C043A08000206070112036
:10F2D000FDF732FD05E0FCF779FA7FBD0021A0883B
:10F2E00067DF0028F7D17FBDA9790029FBD0A87A74
:10F2F000042803D0062801D00528F4D1022908D01B
:10F30000012069460870FF2083308880A088A8DF2C
:10F31000E7E70220F5E70000001F00201CB5817917
:10F32000022923D1C179002920D101A8009000230E
:10F3300001221748FDF7AEFA002801D0FCF746FA83
:10F34000144C607800286846007910D080070DD4EE
:10F350001120FDF7F1FC002801D0FCF737FA0D4928
:10F3600006202031FFF71EFB002060701CBD8007C7
:10F37000FCD51020FDF7E0FC002801D0FCF726FAB0
:10F38000044906201A31FFF70DFB0120EDE70000CC
:10F3900094230020001F00201FB508460C78002190
:10F3A0000123154A022C0CD0042C07D0052C03D0C5
:10F3B000062C00D111701FBD13701FBDFFF7AEFFEB
:10F3C0001FBD6C462370029103911178002904D06F
:10F3D00080880A49884203D01FBD80790128FBD16B
:10F3E000054821461030FEF739FE0828F4D00028E1
:10F3F000F2D0FCF7EBF91FBD001F0020222A00000D
:10F4000010B5138B86B0022B16D10368002B13D0D6
:10F41000D37E947E1A022243D207D20F01D0022259
:10F4200000E003226B461A700B886A469380498875
:10F43000D18002686946904706B010BD10B50368D8
:10F4400086B0002B0FD004246B461C7014889C805F
:10F450005288DA808A8B1A81CA8B5A8120310391B3
:10F4600002686946904706B010BD0000F0B504463A
:10F47000FF300F468D1D4130C988C68D0022012303
:10F4800089B0B14215D1298B204601290CD10168E0
:10F49000002909D0A97E002908D0012904D1694694
:10F4A0000B73026803A9904709B0F0BD69460A735F
:10F4B000F7E76289914211D1298B20460129F3D1C6
:10F4C00001680029F0D0A97E002905D00129EBD1DF
:10F4D00006216A461173E4E70521FAE7428A254BC3
:10F4E000914206D1002211461846FFF759FC0290BE
:10F4F00029E0C289914206D1002211461846FFF741
:10F500004FFC02902FE01B4B428C11339142E9D00B
:10F51000C08B8142F0D002A801900022A07C1AE0AA
:10F520000A2353431B191B8B8B4212D11148012113
:10F530002B30FFF735FC009069460198098801805F
:10F540006946498841802A4602A92046FFF758FFAC
:10F55000AAE7521CD2B29042E2D802AA204600F09A
:10F5600039FC0028A0D002AA39462046FFF766FFE2
:10F570009AE70000222A00007FB50646087C0D4667
:10F58000002827D06869002824D000241FE068697B
:10F59000E1004318002069460390087B0E210843D0
:10F5A00069460873D9790A2060438019C907C90FD1
:10F5B0007A301A1D0191029000921A8803A93046F0
:10F5C0009B1C00F0DFFA002805D1641CE4B2287C03
:10F5D000A042DCD8002004B070BD0021425C002AAB
:10F5E00001D001207047491C0629F7D3002070473D
:10F5F00070B505461C200B4968434418204611305D
:10F600000621FBF7D6FD20461021FBF7D2FDFF2196
:10F6100021740020A176C0432083284601F062F8BF
:10F6200070BD000020270020044908182021415601
:10F63000042901DB012070470020704724290020A5
:10F640000449081820214156042901D2012070479D
:10F65000002070472429002070B50D00044602D117
:10F660000020FCF7B3F8002C02D10020FCF7AEF824
:10F670002878207069886170090AA170A988E170F2
:10F68000090A2171E8886071000AA07170BD00004C
:10F69000F0B58FB00F4606461C216846FBF789FD82
:10F6A00068460178062001436846017000240194F1
:10F6B000039404940594012508A8069485701549BF
:10F6C0006846018407943978017779784177807F9B
:10F6D000F9210840F721801C0840EF21084041082B
:10F6E00049006846817714210AA8FBF762FD08A843
:10F6F00005710A9007A80B906846058644868586A2
:10F7000009A80E90334630890A330AAA6946A2DF57
:10F710000FB0F0BD4E2A000007490979490701D40E
:10F7200008207047002804D004494978016000206F
:10F7300070470E2070470000382000204C28002021
:10F7400030B5124B1B795B0701D4082030BD00286F
:10F7500005D0002A03D00468002C10D101E00E204F
:10F7600030BD0B4B1D68002D09D0456818894143F9
:10F7700069185D89454358682818884201D80720D0
:10F7800030BD14600020516030BD000038200020E2
:10F7900018290020FEB5054625480E460079400789
:10F7A00001D40820FEBD002D03D02868002834D1E4
:10F7B00001E00E20FEBD1F4C216800292DD060897C
:10F7C00021894843616841186868814225D9FFF75B
:10F7D000E3F800280FD06868019029680C22514393
:10F7E0000F1979680091401A39890C46FBF79EFC85
:10F7F000002912D101E01020FEBD21463046FBF762
:10F8000095FC002909D1002E07D07889444301983E
:10F81000811900980019814201D90720FEBD0020FE
:10F8200002460090334629460320FDF7A3FDFEBDA6
:10F83000382000201829002010B507484469601CB2
:10F8400006D000F00BF801462046FBF76FFC10BD18
:10F8500001200007406910BD0010001001200007C2
:10F86000006980B27047000070B500240F4825463B
:10F87000047044702846FDF76DFD6D1C0A2DF9D308
:10F880000B4D6C80FFF7D8FF861EFFF7E7FF46435E
:10F890000648AE60CC306C610460048144812C70F9
:10F8A000AC610420EC616860002070BD4C28002031
:10F8B00038200020FFB5274881B000791F46164642
:10F8C0000D46400702D4082005B0F0BD002D06D03B
:10F8D0000198002803D02868002815D101E00E20E7
:10F8E000F2E71D4C206800280ED0618920896268EB
:10F8F000414389186A68914206D9002E04D0B0426B
:10F9000002D3F119814201D90720DDE70198FFF701
:10F9100043F800281BD03846FFF73EF8002816D0E1
:10F920006868FFF739F8002811D068683246C119B5
:10F930000198FBF725FC009628680C2148432458C1
:10F94000002202212846019BA0470020BCE710208E
:10F95000BAE700003820002018290020F8B52C4D07
:10F96000044628790E46400701D40820F8BD002C33
:10F9700020D0002E1ED0206800281BD0FFF76EFF7D
:10F980000146A088814213D3102811D3E0880028B3
:10F990000ED0FFF751FF471EFFF760FF4743E28895
:10F9A000A188A8684A431218974201D3890703D057
:10F9B0000720F8BD0E20F8BD6988012926D03160E6
:10F9C0000C22144B51437060CA1850602068585084
:10F9D000A0881081E0885081FFF740FF0646FFF7BE
:10F9E0003DFFA188E288401E514340183146FBF795
:10F9F000B3FB0446FFF732FF0146A86861430818CD
:10FA0000A8606888401C68800020F8BD0420F8BD0C
:10FA10003820002018290020F8B5044620481E464A
:10FA2000007915460F46400701D40820F8BD002F85
:10FA300005D0002C03D02068002815D101E00E204D
:10FA4000F8BD1848016800290ED042890189406834
:10FA50004A4310186268904206D9002D04D0A9428A
:10FA600002D3A819884201D90720F8BD3846FEF70D
:10FA700093FF002811D03046FEF78EFF00280CD0EF
:10FA80006068FEF789FF002807D02B463A462146DA
:10FA900001200096FDF76EFCF8BD1020F8BD0000B7
:10FAA000382000201829002010B511490246087896
:10FAB000002811D004280FD0022A16D0032A0BD117
:10FAC0000A79120711D48A69521C8A61032A08D064
:10FAD000022802D000F0E8FA10BD487800F050FC8F
:10FAE00010BD0D20FBF79AFE10BDFEF7C5FB10BD43
:10FAF00038200020F8B5044620481E4600791546F7
:10FB00000F46400701D40820F8BD002F05D0002C77
:10FB100003D02068002815D101E00E20F8BD184858
:10FB2000016800290ED04289018940684A431018B3
:10FB30006268904206D9002D04D0A94202D3A819C8
:10FB4000884201D90720F8BD3846FEF725FF002876
:10FB500011D03046FEF720FF00280CD06068FEF779
:10FB60001BFF002807D02B463A462146042000966A
:10FB7000FDF700FCF8BD1020F8BD00003820002083
:10FB800018290020FFB591B008780024C0061C9EFB
:10FB90001A9D0F4600280DDA0120014608A81031F1
:10FBA00008940170297841708178F920014008A8F3
:10FBB000891C81701C216846FBF7FBFA387869467E
:10FBC00008700194039404943878C00601D508A8FD
:10FBD00000E000200590012208A906948A712D48B2
:10FBE00069468884079468780877A8784877887F7A
:10FBF000F9273840F721801C08401B99C9000843A9
:10FC0000EF21084010436946887714210AA8FBF7C2
:10FC1000D0FA09A80A9007A869460B900C864C8672
:10FC20001398888611980E94008933460AAAA2DF99
:10FC300000282CD1012008A98871174869468884BA
:10FC4000079468780877A8784877887FF721384044
:10FC5000801C0840EF210840400840006946887732
:10FC600014210AA8FBF7A5FA09A80A9007A80B9087
:10FC70000FA81499FCF72AFE694608864C868886E8
:10FC80000FA80E903246308808320AA9A3DF15B0BB
:10FC9000F0BD00004D2A000008290000F0B597B023
:10FCA0000C4606461C216846FBF783FA694608782D
:10FCB00002210843694608700025019503950495C3
:10FCC0000595012208A906958A704048694608846E
:10FCD000274620370795387B08772D20005D487729
:10FCE000887FF9210840F721801C0840EF21084057
:10FCF00010436946887714210AA8FBF75AFA08A826
:10FD00000A9007A80B90A08C694608864D86A08CA7
:10FD10008886206A33460E90FF33308945330AAA1D
:10FD2000A2DF002808D1B879002802D0A06A0028F4
:10FD300001D0002544E0072017B0F0BD012108A83C
:10FD4000817023496846018400200790401C010708
:10FD5000090F684620310177002001466846417747
:10FD6000807FF9210840F721801C0840EF210840DE
:10FD70004108490068468177A06AA900401812AA84
:10FD800009A965DF0028D7D114210AA8FBF711FAC9
:10FD900008A80A9007A808AA0B9010796A4610864E
:10FDA00000215186908612A80E90FF2045303246E1
:10FDB000FF32805B4D320AA9A3DF0028BCD16D1C45
:10FDC000B879A842BADC0020B6E700004B2A000050
:10FDD00007290000F8B5144600221F4B857C09E076
:10FDE0000A2656433618B68A8E4201D1012120E0F8
:10FDF000521CD2B29542F3D8002278252D5C0AE03D
:10FE00000A26564336184036768F8E4201D102219B
:10FE10000FE0521CD2B29542F2D80022DE252D5CB2
:10FE200015E00A2656433618C036368C8E420CD161
:10FE300003211846FEF7B4FF009068460088208032
:10FE40006846408860800120F8BD521CD2B29542BD
:10FE5000E7D80020F8BD00004D2A000070B501244D
:10FE60000B49600408600B4940108860094940391B
:10FE70008860094D6C602F20FBF72CF9AC60074DB2
:10FE800000242F202C61FBF725F9EC7070BD0000D9
:10FE900080E100E04013014000100140802000207C
:10FEA00030B50A48FF21C57D0022094C0931094BB4
:10FEB000002D625007D09969437EC268D154417EBB
:10FEC000491C417630BD986930BD00006C29002086
:10FED00000200040002500401FB501236A46137032
:10FEE00010720348019106C8684690471FBD000084
:10FEF0006C29002008B502490020009108BD0000CF
:10FF0000001F0020FFB583B00E461C4615466F4605
:10FF100000200090019038192A1B3119801CFBF732
:10FF20002FF902A90120FCF797FE002801D0FBF76A
:10FF30004DFC6846007A002805D069460878022101
:10FF40000843694608700D480078002807D06A46C3
:10FF500008210398FCF762FB00280BD106E06B46F2
:10FF6000082200210398FCF719FCF5E7641CA4B2F1
:10FF7000AC42CDD90C990C8007B0F0BD001F002019
:10FF800010B503680A6889689C1A8C4202D9591A0C
:10FF9000016010BD01210260017110BD10B54B68F8
:10FFA000026889689C1A8C4202D95118016010BD00
:10FFB00000210360017110BD0A7B002A03D049684B
:10FFC0000160002102E009680160012101717047B0
:10FFD00010B5044600790028204602D0FFF7DEFF66
:10FFE00001E0FFF7CDFF206810BDFFB50746806A2E
:10FFF00081B0144600283DD00025384620300090BE
:020000040002F8
:1000000033E00C20B96A68430E18B088801CFE28C3
:1000100002D90C2005B0F0BD22880299401C8854FA
:1000200020881622401C80B2208002990A54208821
:10003000401C80B2208002994118308800F04CFBAF
:100040002188401880B22080B288002A0AD0B16886
:1000500000290FD0029BC018FBF792F82088B188C6
:10006000401820806D1C0098EDB2007BA842C8D8D3
:100070000020CFE70720CDE710B5FBF7A7FB10BDA9
:1000800010B50020FCF758FE002801D0FBF79EFBBE
:10009000FCF788FD002801D0FBF798FB3CDF002827
:1000A00001D0FBF793FB10BD10B50F490028087075
:1000B00009D0012811D0022812D0032802D14869A2
:1000C000FEF71AF910BD00208861C8610748407822
:1000D0000028F7D0FDF722F910BD00F009F910BD96
:1000E00000F068F810BD0000382000204C280020E7
:1000F000002803D00249C860002070470E207047D6
:10010000A02000201CB5034901910091694660DFE1
:100110001CBD0000001F002070B50E4605461446A9
:1001200014211046FBF745F80120002120802161B1
:10013000217326726572002D00D0A072002070BD60
:1001400010B5002902D00020FBF740FBFEF7B8FBFA
:1001500010BD000010B50021024A0846FBF790FBD5
:1001600010BD00004101020010B5FBF721FB10BDDE
:1001700070B5002901D08C0701D0072070BD064C56
:100180000125A16062800549636010DF0028F5D178
:10019000257016202EDF70BDA0200020690102000E
:1001A000002803D002490861002070470E207047E4
:1001B000A0200020F8B5164C1422606840084000CA
:1001C00060601448017851430E183769FFF746FB09
:1001D00001463846FAF7AAFF05466061FFF73EFB85
:1001E0000146F0887F1EC019FAF7A0FF022285425F
:1001F000606801D1104300E090436060E168104006
:10020000084303D0002000F0BBF8F8BD0220FAE755
:10021000382000204C28002010B502484069FEF725
:100220006BF810BD3820002010B5FFF705FB441E09
:10023000FFF714FB4443FFF711FB04494A69521EC0
:100240005043CA682146FEF75CF810BD38200020F4
:10025000F8B510481422017851430C182569FFF7AE
:10026000FDFA0146E088228980184019FAF75EFFFE
:100270000F46FFF7E1FA461EFFF7F0FA4643E08823
:100280002289F1198018044A40191269FEF739F8D9
:10029000F8BD00004C2800203820002070B5FFF782
:1002A000DDFA0546FFF7C8FA441EFFF7D7FA6043A8
:1002B0002946FAF73BFFFEF71FF870BD70B5FFF750
:1002C000CDFA8608FFF7CAFA074949694843044648
:1002D000FFF7B2FA451EFFF7C1FA684332462146DE
:1002E000FEF70FF870BD0000382000200020704796
:1002F00070B514481422017851430C18241DFFF7DF
:10030000ADFA6188104E884211D2FFF7A7FA6188D2
:100310000D1AFFF7A3FA8208A188E0684018216946
:1003200040194919FDF7EDFFFFF798FA07E0A28899
:10033000E06880188A082169FDF7E3FF6088F061B2
:1003400070BD00004C2800203820002010B5054862
:100350000079000703D4012000F012F810BD00F06E
:1003600003F810BD3820002010B504480822416869
:1003700091434160407800F003F810BD3820002020
:100380000249487002498000085800473820002080
:100390005C09020010B50446FFF786FB2046FBF718
:1003A000DDFD10BD70B50C00054602D10020FBF745
:1003B0000DFA002D02D10020FBF708FA20782870F2
:1003C0002088FF2109020840000A6870206809029D
:1003D0000840000CA8702068000EE8702079287191
:1003E000207A68712089000AA871A068000CE87161
:1003F00070BD000010B505480079000702D4FCF775
:100400007BFF10BDFFF7B0FF10BD000038200020BB
:10041000FEB51F4C00252769E06802906846FDF78D
:10042000C9FE0190FEF71CFB06460198002822D069
:1004300000230098E16817E00E680A46864202D958
:10044000301A086012E0801BF31800261660D66888
:10045000D169B446002E07D0FE183602360A56601F
:1004600066469660D56115460029E5D12846E160CB
:10047000FEF754FB06E02846FEF750FB002801D1AA
:10048000002E02D00298FCF7B9FF00202071FEBDBB
:10049000802000200120024900050860704700000C
:1004A00000E200E010B50E4BD968002906D00268C2
:1004B0000C68A24204D8A21A0A60C161D86010BDBB
:1004C0000B4604E00B46C969121B002904D00C68D6
:1004D0009442F7D3A41A0C600260C161D86110BDC8
:1004E00080200020F8B51D4DEC68002C34D01C484D
:1004F000002740682969401A0602360A2068B0427F
:1005000018D8361AC7192246107CE46900280FD083
:10051000002010746B69002B07D0916950699847CF
:10052000002805D0FBF752F902E05169906988472D
:10053000002CE3D16978A878814206D1401CC0B272
:10054000A870022801D10020A87004490006800D7F
:1005500018310F50FFF79EFFF8BD000080200020EB
:1005600000150140FF2107481D3100224250064876
:10057000828A8168895C828A521C82820348C161B6
:1005800070470000002000406C290020002500403A
:100590001FB500216A4611701072044882680192EA
:1005A000817506C8684690471FBD00006C29002071
:1005B000F0B5454D012185B049022846FEF707FEFA
:1005C00001270026414C002824D0FF212531284650
:1005D000FEF7F8FD00281DD0FF2025302E50812089
:1005E0003B4980008860A07E002800D16F60022116
:1005F000684601703749086808600390E17D6846E5
:100600000172E0680190E675267606CC6846083CE3
:1006100090472BE004212846FEF7D9FD002825D07D
:10062000FF2109312846FEF7CDFD00281ED0FFF737
:1006300037FCE07D617E884218D1207E002808D0FA
:10064000627EE168E0752069E06026766676104695
:100650000AE0A07E002800D16F6081201C49800044
:100660008860E675607EE168FFF736FCFF211D318A
:100670002846FEF7A7FD00280DD0A18AA07D814263
:1006800002D2FFF76FFF06E0FF211D316E500028F8
:1006900001D0FFF77DFFFF2145312846FEF792FD8F
:1006A00000280ED0FF2045302E50A07E002800D01C
:1006B0002F60E07D002804D0E675607EE168FFF7DA
:1006C0000BFC05B0F0BD0000002000406C290020AC
:1006D00000230040802400400870000A4870022077
:1006E0007047000001218140024842688A4342600D
:1006F000704700002020002038B51549154A488869
:1007000090420FD04A78144C521CD2B24A70237BCC
:10071000934208D3091D75DF002803D0A169002981
:1007200000D0884738BD00254D70217C002907D0B6
:100730003B2176DF002803D0A169002900D088473B
:1007400061690029EED068460570884738BD000011
:10075000C01F0020FFFF0000042700201249486846
:10076000C005C00D19D0103840B2002807DA0207C2
:10077000120F083A920892005118C96904E08108E2
:100780000A4A8900891809688007C00EC140080616
:10079000800F012803D0032803D0022070470020D7
:1007A000704701207047000000ED00E000E400E029
:1007B00042788378521CD2B2934200D1002203784F
:1007C000934201D1002070470A7041684078182296
:1007D000504308187047FFB583B016460C9D0D9C1A
:1007E0001F46022200950194039800F00CF800289F
:1007F00007D13B461022314600950194039800F042
:1008000002F807B0F0BDFFB583B0074600200C9C8E
:100810008646268805463AE07868A900421811887D
:10082000684681805188C1800022694601A865DF41
:10083000002839D1684601780598814226D1704652
:10084000002801D0002200E00222208889184218E6
:100850000D998A4227D8714600290AD1401C80B2DE
:100860002080069A049911542088401C2080012081
:100870008646218806980A18694601A865DF00287F
:1008800012D1694620880978401820806D1C38886C
:10089000A842C1DC704600280AD02088801B401E78
:1008A00080B2FF2802D90C2007B0F0BD0699885508
:1008B0000020F9E70179002902D1007B002800D04F
:1008C00001207047B420002001010000000000005A
:1008D0000000000001000000280000001E000000D1
:1008E00001000000800C0000B4000000742500200E
:1008F00094250020C02500201100000012000000F7
:10090000130000001400000011000300B9CB010027
:1009100012000300B9CB010013000300B9CB0100A2
:1009200014000300B9CB0100E4260020C1EE010051
:1009300055E4010071E3010011E50100BDEE010085
:1009400025E401006DE3010009E50100B9EE0100B5
:1009500075E3010069E3010001E501009D02020069
:10096000BD02020019020200510202002902020027
:100970004D03020045D60100F1D50100F503020048
:1009800069E501008829002003000000AC0902008D
:10099000001F0020B401000014B20100200A020070
:1009A000B4200020F41000009EB401004136FFFF87
:1009B00012180113141F4220380D0B080F0F1228B4
:1009C00006041316121106A209100E05010906A14C
:1009D00001050719E029E715281A25017501950871
:1009E00081029501750881019505750105081901B8
:1009F00029059112180803910195067508261A65B4
:100A0000301114296581140905151326FF000821EA
:100A100075089502B102C09324F403FFFFFFB100F3
:040000050001B0C185
:00000001FF
