:020000040001F9
:10B00000A0310020F5B001000FB1010011B1010025
:10B010000000000000000000000000000000000030
:10B0200000000000000000000000000013B101005B
:10B03000000000000000000015B1010017B1010080
:10B0400019B1010019B101006DB4010019B101007D
:10B0500019B10100000000006DB2010019B101003A
:10B0600019B1010019B1010019B1010019B10100B4
:10B0700019B1010019B1010019B1010019B10100A4
:10B0800019B10100B9B3010019B1010019B10100F2
:10B09000D9B3010019B10100E1B3010019B10100F8
:10B0A00019B1010019B1010000000000000000000A
:10B0B0000000000000000000000000000000000090
:10B0C0000348854600F094F800480047BDEA0100B7
:10B0D000A0310020401E00BF00BF00BF00BF00BF66
:10B0E00000BF00BF00BF00BF00BF00BF00BFF1D165
:10B0F000704700000321094802680A4302600848BB
:10B1000002680A4302600748804707480047FEE795
:10B11000FEE7FEE7FEE7FEE7FEE70000240500404D
:10B120005405004001B40100C1B0010030B50B4628
:10B13000014600202022012409E00D46D5409D4211
:10B1400005D31D469540491B254695404019154697
:10B15000521E002DF1DC30BD70B5002425460028BC
:10B1600001DA01244042002901DA01254942FFF7B2
:10B17000DDFFAC4200D04042002C00D0494270BDFF
:10B1800003460B439B0703D009E008C9121F08C000
:10B19000042AFAD203E00B780370401C491C521EAB
:10B1A000F9D27047D2B201E00270401C491EFBD2B6
:10B1B00070470022F6E710B513460A4604461946C2
:10B1C000FFF7F0FF204610BD421C0178401C00290B
:10B1D000FBD1801A704730B504460020034600E0DA
:10B1E0005B1C934203D2E05CCD5C401BF8D030BDC9
:10B1F000064C0125064E05E0E36807CC2B430C3CCA
:10B2000098471034B442F7D3FFF75EFFD807020027
:10B21000F807020070B58C180578401C6B075B0FAF
:10B2200001D10378401C2A1106D10278401C03E0AA
:10B2300006780E70401C491C5B1EF9D12B0705D403
:10B240000023521E0DD40B70491CFAE70378401CF2
:10B25000CB1A921C03E01D780D70491C5B1C521E1A
:10B26000F9D5A142D8D3002070BD0000F8B5002464
:10B27000FF250135012627460094284603F032FFBA
:10B28000002808D034484068304204D033480021B8
:10B290002818344301602D1D76007F1CADB2042FA9
:10B2A000EBD3FF207D3003F01DFF002807D02C4892
:10B2B00000210160400704432A48006900902A4F9A
:10B2C000200712D00126002526420AD02748AA00CE
:10B2D000111808690969C004C00E8903BA58890F9A
:10B2E000904776006D1C042DEED3002C30DA00243C
:10B2F0001D4E0021301940304156491C25D0077899
:10B30000BD06AD0E284601F0CFFE80003658002E57
:10B310001BD0BF090121A940154AA8008018006868
:10B32000009A8003800F114202D0022802D00CE064
:10B3300003280AD1032F05D102280AD0022128466A
:10B3400003F0C0FE39462846B047641C042CCFD316
:10B35000F8BD0321F3E700000063004000600040F7
:10B360007C61004000050050182900200065004065
:10B37000000700508307FF22DB0E9A408907090E61
:10B38000994000280BDA0007000F083883080848A6
:10B390009B001818C36993430B43C361704783082C
:10B3A00004489B001B1818689043084318607047B6
:10B3B00000ED00E000E400E010B506490020086060
:10B3C00048608860C860034940390860486004F0FC
:10B3D000AFFF10BD4011014010B504F03FFF10BD9C
:10B3E00010B506484068002805D08047002801D0E5
:10B3F00000F0ECF910BD03F0F1F910BDC020002001
:10B4000010B503F0F9FC002805D011490F48486039
:10B41000C8131049886103F005FD002802D00E49C9
:10B420000120886003F014FD00280AD00B48016851
:10B43000012904D00A49016001680129FCD1C02119
:10B44000416109490748086010BD0000DFFF07C0DF
:10B4500000050040006C00400006004000EC064083
:10B46000759300000024F400BC1F002010B504F008
:10B47000C5FF10BD30B47446641E2578641CAB4211
:10B4800000D21D46635D5B00E31830BC184702E044
:10B4900008C8121F08C1002AFAD17047704700205F
:10B4A00001E001C1121F002AFBD17047F7B584B03B
:10B4B0000025168807461580406B1446002813D0D7
:10B4C00003780598032E51D302210170218811229F
:10B4D000491C89B2218042542188491C89B22180AB
:10B4E00043542088401C2080386B00281DD005461E
:10B4F0002088059902461232B24237D811220A54E6
:10B5000020881022401C80B220800A542088401CD1
:10B5100020800F202A5C2388401ECA54228840B213
:10B52000521C22800028F5DA00253846203002908F
:10B53000807B002806D033462246059903F0C0F9E7
:10B54000050014D10298407B002806D032462146DF
:10B55000059800F075FF050009D1B878002823D0C0
:10B56000059886462088001DB04202D90C2007B0FD
:10B57000F0BD684679DF0028F9D1218803207246A2
:10B58000505420881921401C80B2208011542088FA
:10B590007146401C80B2208041186846008804F043
:10B5A000C1FF218840182080F878002817D0218812
:10B5B00003230A46FB56C91C0598B142D6D802217E
:10B5C000815421880122491C89B22180425421885A
:10B5D000491C89B2218043542088401C208078680F
:10B5E000002817D021880023C3560A46C91C059895
:10B5F000B142BBD80221815421880A22491C89B258
:10B60000218042542188491C89B2218043542088DA
:10B61000401C2080388900280AD0009438460196C2
:10B62000062202210830059B04F0FBFF05009ED195
:10B63000388A00280AD00094384601960722032150
:10B640001030059B04F0EDFF050090D1388B0028E9
:10B650000AD0009438460196152214211830059B13
:10B6600004F0DFFF050082D1386A002806D0334697
:10B670002246059901F0C4FE0500D8D1786A002859
:10B6800006D033462246059903F0E9FA0500CED1EB
:10B690000298007B002807D0334622463846059999
:10B6A00004F0C9FB0500C2D13878002807D0334622
:10B6B00022463846059903F049FB0500B7D12846D4
:10B6C00055E710B501220221002001F019FB0028E6
:10B6D00001D0072812D107220221012001F010FB1E
:10B6E000002801D0072809D100210A22084601F0CC
:10B6F00007FB002801D0072800D1002010BD000062
:10B70000044842680121C9050B46934383600A40FF
:10B71000C26070470005005070B50024064D06E079
:10B720006968E000085C012103F0DCFB641C2878F8
:10B730008442F5D3002070BD7C200020F8B515466A
:10B740000C460646052A01D20720F8BD03F0A0FCEE
:10B75000002803D103F072FC0028F6D11049002024
:10B760004E600C70C8608D6008610E4D0DE0E00009
:10B7700069688019009181786A46517000780A4A98
:10B78000694603F0FFFB0028DFD12046641EE4B2C7
:10B790000028ECD1054A0021024800F013F9F8BD59
:10B7A0007C200020D00702007DE40100C9D5010003
:10B7B000BFF34F8F04490348C860BFF34F8F00BFEA
:10B7C000FDE700000400FA0500ED00E00EB50021E1
:10B7D000029000916A4601910148FFF7E9FF0000DD
:10B7E00001400000014B1B68184700001C28002086
:10B7F00038B50C46A2680C235A43064B09789D586D
:10B80000054A126A00920246204608302369A8477A
:10B8100038BD00000C2900205820002010B5064932
:10B8200014230A785A435118091DFFF7E1FF042039
:10B8300004F060FB10BD00004028002070B50F4BE5
:10B8400005241D785E78AE4215D01D781C789E8840
:10B85000B44201DA641C00E000241C705C88DE68DD
:10B860006C43A41904609B68E800C418A4880C8089
:10B87000185800241060204670BD00009020002061
:10B88000F7B5394C82B060880F4681426AD80020F3
:10B89000694608703649354E4868C005C00D18D055
:10B8A000103840B2002807DA0207120F083A92084F
:10B8B00092005118C96904E081082E4A890089184C
:10B8C00009688007C00EC1400806850F012D01D10F
:10B8D00008E00425684636DF02280AD0002801D097
:10B8E000FFF774FF22786078A188884203DA401C51
:10B8F00002E072B6F6E70020C0B2904207D0667848
:10B900006078884201DA401C00E000206070012D60
:10B9100009D062B66846007837DF022803D00028D5
:10B9200001D0FFF753FF1148864219D0A068F500F7
:10B9300004994151029900290CD0002F0AD0608847
:10B940003A464643E0683018FFF71AFCA06828180A
:10B95000878002E0002128188180002005B0F0BD1A
:10B960000420FBE70920F9E790200020FFFF0000FA
:10B9700000ED00E000E400E00EB504E068468188D8
:10B98000029A0098904702AA01A96846FFF756FF5D
:10B990000028F3D00EBD000030B5CB0008339DB2B7
:10B9A00093070024002B01D0072030BD044B9A6080
:10B9B0005219DA605C701C7058809980002030BD8C
:10B9C000902000200A4B9B68002B07D0002A07D04C
:10B9D000002805D00068037C002B03D008207047A6
:10B9E0000720704700230374417442611846704772
:10B9F000A020002010B50446082902D00020FFF73F
:10BA0000E5FE21686068884710BD00001CB5019103
:10BA10000090034A08216846FFF732FF1CBD000072
:10BA2000F5B90100FFB59007002581B014460E4618
:10BA3000002832D11B4F002C31D004F073F9049848
:10BA400078610320387033461821224600204B438A
:10BA5000BC601834C10089180D704D708E704C6038
:10BA60001C19401C0328F5DBFD607D7001240E4885
:10BA7000BD702405046003211420FFF77BFC0B48F4
:10BA800004600B4C0198A06003211120FFF772FCA9
:10BA900060683861002005B0F0BD0720FBE7BD609D
:10BAA000FBE70000A020002080E200E000E100E0D1
:10BAB00000150140FEB50D461B491746896804462E
:10BAC00000292AD0002C28D0052D01D20720FEBD48
:10BAD0006069002821D0607C012820D0002604F075
:10BAE00063FDC0001049019089684018694604F060
:10BAF00085FD002815D0012101700C49446049687A
:10BB00000830E2C008490198896841186846007801
:10BB1000487004F0E5FB0020FEBD0820FEBD2E4667
:10BB2000DDE70420FEBD0000A0200020001501403C
:10BB3000F8B5134D0446A96800291CD0002C1AD072
:10BB40006069002817D00026267404F02DFDC70078
:10BB5000A8686946381804F051FD00280DD002216C
:10BB600001704460A868391868460078487004F08D
:10BB7000B7FB3046F8BD0820F8BD0420F8BD000032
:10BB8000A020002000B585B014216846FFF711FB06
:10BB90000021012268460091027102916421017323
:10BBA0001146203141731146203181730020014636
:10BBB0006846C1731146203101746946044800F09B
:10BBC00079FB002801D0FFF701FE05B000BD0000A1
:10BBD0002C250020F0B50546007D002493B00E46CC
:10BBE00000280DD0012001466846103103940173EE
:10BBF000717B4173817BF92001406846891C817308
:10BC00001C2104A8FFF7D5FA6946087C02210843E5
:10BC1000694608742A7DEF21002A02D010221043C1
:10BC200000E008406A461074059407940894287D43
:10BC3000002800D003A8099001270A9410469771A4
:10BC4000304A82800094B27B0270F27B427080782E
:10BC5000F9221040F722801C1040EF2108404108D3
:10BC6000490068468170317B017214210BA8FFF7EF
:10BC7000A0FA01A80B9068460C908786C4860787B7
:10BC800002A80F90A888AB1D0BAA04A9A2DF002868
:10BC900035D1B068002830D0684687711A49818054
:10BCA0000094317C01700020014668464170807824
:10BCB000F9210840F721801C0840EF210840410885
:10BCC00049006846817011A8B16800F0FCFD064685
:10BCD00014210BA8FFF76DFA01A80B9068460C9091
:10BCE0008686C486068711A80F902A46E8880E32F9
:10BCF0000BA9A3DF002802D100E0EC81002013B0E3
:10BD0000F0BD0000192A00000829000010B50B49F9
:10BD10000B4804F083F8C1B20848183800F090FAD4
:10BD2000002809D0082807D00649884204D00649CF
:10BD3000884201D0FFF74AFD10BD000044250020D5
:10BD40000C1F00200430000001340000F0B50C4648
:10BD500093B01F216A461180072600279180002892
:10BD600009D0C17849070DD502A9FFF79FFB00282C
:10BD700009D102AD01E000251780002C0ED0E0783B
:10BD8000002802D0304613B0F0BD01AA0AA920460F
:10BD9000FFF78CFB0028F6D10AAA02E068460022D1
:10BDA000878068468088C3B268460088C1B228464A
:10BDB00072DFE8E710B5FFF709FD10BD70B50D465D
:10BDC00004991646040042D0002E40D0424800227A
:10BDD0004271C3600161242231464048FFF7D0F927
:10BDE00000F0ECF83D49343108461038016020314C
:10BDF000816038215C38FFF7DCF938482178383821
:10BE00000170A1788170E178C170617841706269D8
:10BE1000216942610161E268A168C26081600146F6
:10BE2000E369A269CB618A61616A002919D0014680
:10BE3000AC310246B83241628A60636A1B880B806B
:10BE4000616A436A898899800021436A06E00E206E
:10BE500070BD666AB668765C5654491C9E888E42F0
:10BE6000F7D8A16A00291CD01C4AAC3211460C3903
:10BE70008A608162A36A9B888B80A16A836A098831
:10BE800019800021836A04E0A66AB668765C56547D
:10BE9000491C9E888E42F7D82C210A5D0F4918391B
:10BEA0000A73216A002909D00B4914310162226A00
:10BEB00052884A80216A026A0988118061680029D3
:10BEC00004D00549891D41606168416003482946E5
:10BED0003838FFF73BFF70BDC01F0020F825002059
:10BEE00010B502881C4C102A17D00021112A1AD034
:10BEF000192A11D1807900280ED1607901281ED02D
:10BF0000022822D0032822D0042805D12171E2681A
:10BF10000846002A00D0904710BD017D0129FBD1C1
:10BF20008088208110BD6170808821898842F9D184
:10BF3000012005E021690029F4D0884710BD0220C6
:10BF400000F064F80028F5D110BD0320F8E70320C5
:10BF500020710420F4E70000C01F002010B5022863
:10BF600001D003280ED1084C207800280AD00020E8
:10BF70002070607900F04AF8002803D02169002978
:10BF800000D0884710BD0000C01F002030B50A4B0C
:10BF9000D97800290ED01A46017818321170002184
:10BFA000441855186478491C6C700629F8DB002089
:10BFB000D87030BD082030BDC01F002010B507214B
:10BFC0000148FFF7F6F810BDD81F002010B50D4846
:10BFD0000078012814D10C4C6078002810D16079C9
:10BFE000002802D074DF00280BD101206070607936
:10BFF00000F00CF8002803D02169002900D0884700
:10C00000002010BDF8250020C01F0020F0B5754CA1
:10C0100087B06071002606A8069603F0E1FA0127B2
:10C02000082806D000286FD10698002802D0277073
:10C03000D4E00696FFF7C2FF6B4D6878002802D067
:10C040006079012805D0A87800280AD060790228F4
:10C0500007D1E168002903D0E7700820884700E095
:10C06000E6706079012808D16878002809D05D4819
:10C07000193003F016FA002803D06079022802D0A4
:10C080000CE002206071A878002805D055481930CE
:10C0900003F007FA002801D103206071287B0028F3
:10C0A00004D16079032801D104206071287E002822
:10C0B00004D16079042801D166712671E1680029F4
:10C0C0000AD06079032801D0042805D128780028F7
:10C0D00002D06078002818D0A67018216846FFF7B3
:10C0E00068F8684606700196067203966079012822
:10C0F0000FD0022816D03C4E243637465C3F03282A
:10C100001CD004285ED13BE069E0A7700720884777
:10C11000E3E734481830019068460770468206828B
:10C12000277152E02F48183001906846077029891E
:10C130004182A98801820220207146E0A88A6946CE
:10C140004882288A08822848243004F0D9FA002836
:10C1500005D02878002802D06078002801D003207C
:10C160002FE002206946087204200396F8701E48EA
:10C1700000213838FFF7EAFD002830D1052020E003
:10C18000A88B69460882288C48821748243004F01E
:10C19000B7FA002805D02878002802D06078002857
:10C1A00001D004200DE002206946087204200396A5
:10C1B000F8700D4800213838FFF7C8FD00280ED16F
:10C1C000062020716079002803D0684673DF0028BC
:10C1D00005D1E168002901D020798847002007B007
:10C1E000F0BD0000C01F0020F8250020F0B5124B64
:10C1F0009978002908D0114905790D71047B0C73D9
:10C200000E4E0021303606E00820F0BD8A00876817
:10C21000491CBF58B7508C42F8D8084C0021103444
:10C2200004E08A000668491CB658A6508D42F8D82A
:10C2300000209870F0BD0000C01F00201C260020C8
:10C2400073B586B004002FD06A46217C127F00208F
:10C25000914227D00025012668460095068045803A
:10C2600007A80190E188608A6A46A4DF002819D1F6
:10C270006846007F2074608A0D49884216D0207D70
:10C28000002813D00295039504950595E18868462A
:10C290000181867241888181049001980590608AAD
:10C2A00002A9A6DF08B070BD0E20FBE70820F9E761
:10C2B000FFFF000038B50D4604001AD0002D18D03D
:10C2C000286820600020C043608228792075FF2004
:10C2D000207401216846817007490180221D69464A
:10C2E0000120A0DF002803D129462046FFF772FC79
:10C2F00038BD0E2038BD00000F18000038B50028EA
:10C3000024D0002922D00A88102A1AD0112A1AD043
:10C31000502A1BD1027D002A18D0CA884389891D62
:10C320009A4213D10A8B022A10D10268002A0DD03A
:10C33000CB7E8C7E19022143C907C90F07D000218B
:10C3400006E0898801E00021C943418238BD01210E
:10C350006B4619706946904738BD000070B50546B8
:10C3600001461C220E48FEF70BFF0E4C00262670DD
:10C370002968002906D00822201DFEF701FF201D94
:10C380007ADF02E00748001D7BDF002807D1401E4E
:10C3900060806670044A00210448FFF713FB70BDFB
:10C3A000E4260020E01F002045050200740702007B
:10C3B000F8B5214C028800271E4DE689102A15D0B9
:10C3C0001E49112A21D0122A2DD0502A1CD1C288F0
:10C3D000801DB24218D1028B022A15D1C27E837E03
:10C3E00010021843C007C00F0CD112E08188698089
:10C3F00001461048082216310C30FEF7C1FE6F705E
:10C40000002E01D101F044F8F8BD0020C04368803F
:10C410006F700868FFF78CFB0028F5D0A169002930
:10C42000F2D08847F8BD811D024808220C30FEF783
:10C43000A7FEE7E7E01F0020E426002074070200C3
:10C440007CB5054608880C460930904201D90C207D
:10C450007CBD684671DF0028FAD121880820685425
:10C4600020881B21401C80B220802954208800A9EC
:10C47000401C80B22080401906220131FEF780FE68
:10C4800020886946801D80B220800978002900D06C
:10C49000012129542088401C208000207CBD000000
:10C4A0007FB504460121684681714A4981804A4A24
:10C4B00001A90120A0DF00287ED1228825463C3535
:10C4C000002A09D044482B46801C009043486168EC
:10C4D00000F0F2FD00287BD12289002A0AD03E48D4
:10C4E0002B460A3000903D48E168401F00F0E4FD13
:10C4F00000286DD1228A002A0AD037482B461230F4
:10C50000009036486169001F00F0D6FD00285FD119
:10C51000228B002A0AD030482B461A3000902F4830
:10C52000E169801E00F0C8FD002851D1228C002A4C
:10C530000AD029482B46223000902848616AC01E44
:10C5400000F0BAFD002843D1228D002A0AD02248EB
:10C550002B462A3000902148E16A401E00F0ACFDD5
:10C56000002835D1216B00290ED002A803F040FE2F
:10C5700019482B46323000901848082202A9801F23
:10C5800000F09AFD002823D1606B00280BD01249DF
:10C590002B463A310091027901681048401C00F0A6
:10C5A0008BFD002814D1A16B002910D002A802F045
:10C5B000B7FF0948423000E00AE0009007482B46E8
:10C5C000072202A9273000F077FD002800D10020C3
:10C5D00004B070BD0A180000F41F0020292A0000D2
:10C5E00010B5044601F066F9204600F09DFA204699
:10C5F00002F0ECFD2046FFF773FC2046FFF7D8FE63
:10C600002146044800F00AF921460348FFF776FE68
:10C6100010BD0000B42300202C250020F0B50546F5
:10C62000FF35413589B01646E88E174C0E9AA04268
:10C6300028D0D41CA0B26F46388008281FD8397182
:10C640007E71BB7101AE002A03D0F01C0F99FEF77A
:10C6500097FD00200490059006900790EA8B6946AC
:10C660000A8201228A74888206910796E88E04A9BC
:10C67000A6DF002804D169460988A14200D00C2019
:10C6800009B0F0BD0820FBE7FFFF0000FEB505463E
:10C69000887A0C460A2805D8207C0A2802D8207EF1
:10C6A0000A2801D90720FEBD2068286060686860FC
:10C6B000A07AA874217C78204155217EDE20415546
:10C6C000FF2000217730C943415301216846817121
:10C6D000384981802A46083201A90120A0DF0028BC
:10C6E000E1D100262746203709E0A06B7100415AAE
:10C6F00028896A46A1DF0028D5D1761CF6B2B87D1C
:10C70000B042F2D8207A002802D1607A002806D000
:10C7100021463C31284602F01FFF0028C3D12146A4
:10C72000284602F01DF80028BDD12146284602F017
:10C7300087FE0028B7D12146284601F00BFD0028CE
:10C74000B1D12146284603F00DFA0028ABD1207A5A
:10C75000002812D02846FF304F3023460090433344
:10C7600008221549284600F017F900289BD12146D8
:10C77000284600F069F9002895D1607A00280DD08C
:10C780002846FF305F300C49234600904033082292
:10C790001131284600F000F9002884D121462846AE
:10C7A00001F016FF00289BD121463E31284601F0BA
:10C7B000C9FEFEBD12180000222A000030B5144642
:10C7C000827C85B08A4225D90A2251430A18FF305B
:10C7D0004130C18E104D1432A94219D069460C80E7
:10C7E0000025019502950395049512888A800122FF
:10C7F0008A710D8103910493C08E01A9A6DF0028E0
:10C8000004D169460988A14200D00C2005B030BD92
:10C810000820FBE70720F9E7FFFF000030B50446DA
:10C820000A88FF30413087B0102A22D0112A39D02F
:10C83000502A3BD0512A1AD10D46881D89790129E9
:10C8400015D141886A46204603F028FA00280ED008
:10C850002168204600290AD0072269460A710A8801
:10C860000A814A884A810595026801A9904707B064
:10C8700030BD8988C18661890029F8D001226946C6
:10C880000A72002300930A804B8002A901916189FA
:10C89000C08E6A46A4DF0028E9D061680029E6D08E
:10C8A0008847E4E70021C943C186E0E7204602F05B
:10C8B00041FDDCE770B504460D460846FEF784FCF2
:10C8C0002080656070BD0A7802704978417002204E
:10C8D0007047000000B585B0184B48221849082061
:10C8E00003F06CFB002801D0FEF770FF6A460121BF
:10C8F000002003F037FB002801D0FEF767FF114846
:10C9000003F05CFA002801D0FEF760FF684603F0F0
:10C910001FFB002801D0FEF759FF0B4803F00EFB68
:10C92000002801D0FEF752FF084803F05FFB002803
:10C9300001D0FEF74BFF05B000BD0000A1FF0100D4
:10C94000BC220020001E0020E1C50100E101020020
:10C950001CB5044681786A460C4802F055FE002852
:10C9600012D160781C21484309491C2340181A46FB
:10C97000694602F003FF064806495830807A800075
:10C980000A582146684690471CBD000050200020F0
:10C99000C427002088070200FFB50024601C91B066
:10C9A00000070F46000F694610300294087218788D
:10C9B0004872887AF9263040801C88721D461C21F6
:10C9C00003A8FEF7F6FB6946087B02210843694687
:10C9D0000873A9780A07F721002A02D00822104319
:10C9E00000E00840102210436A46107302A8049425
:10C9F0000890069407940994012090719780009400
:10CA000068781070A878507090783040801C08408A
:10CA1000EF21084040084000907014210BA8FEF759
:10CA2000C8FB01A80B9068466A460C909486D48691
:10CA30001398108711980F9400890BAA03A91A9BC9
:10CA4000A2DF15B0F0BD0000F0B58FB00D46064670
:10CA50001C216846FEF7ADFB684601780E200143B5
:10CA600068460170002401940394049405940127FE
:10CA700008A80694877016496846018446200794E2
:10CA8000415D68460177433529794177807FF921F7
:10CA90000840F721801C0840EF2108404108490068
:10CAA00068468177142109A8FEF783FB08A809903E
:10CAB00007A80A9068468485C485078633460D9486
:10CAC000FF333089573309AA6946A2DF0FB0F0BDA2
:10CAD000322A00007CB5134E00250C463060002938
:10CAE00018D06946002000F0B5F8002819D101A936
:10CAF000012000F0AFF8002813D16846017900202A
:10CB0000002901D0022004E069460978002900D0FC
:10CB10000B2020707068002802D1FEF7D2FD054678
:10CB200028467CBDB41F002010B51C4C01886068ED
:10CB300010290DD011290AD1401E606007D1FEF7DF
:10CB4000C0FD002803D02168002900D0884710BD0F
:10CB500000281ED100210122084600F0D1F800284B
:10CB600001D0072811D107220221012000F0C8F8C6
:10CB7000002801D0072808D104220221002000F05B
:10CB8000BFF8002805D0072803D02168002900D06D
:10CB900088476068401C606010BD0000B41F002022
:10CBA00010B5032000F02AFA002801D0062800D191
:10CBB000002010BDF8B507460024234802E0641C9D
:10CBC000042C1AD2A2008258BA42F8D1042C14D2F2
:10CBD0001D481E4E0C38002929D001290ED00229EB
:10CBE0000BD16000201880194578002D05D0184819
:10CBF0000169002901D028468847F8BD6100611805
:10CC0000755C8E19717800290CD011490A22496887
:10CC1000806851430E4A521CFEF74CFF002801D198
:10CC20000B4847700A48B17814300155DDE7806839
:10CC3000FEF77EFF06486100611814308919005D17
:10CC40008D78A842D1D0F8BD440702009425002079
:10CC50009C1F002004280CD2074A1269074B800051
:10CC60001B5C01209840904300D0012008700020F8
:10CC700070470020FAE7000000050050440702005A
:10CC8000011F10B504201C4A1C4CC0430B00FEF7CA
:10CC9000F1FB0D0B0A0A140A0A080A0A191E262CAF
:10CCA0000A0003F013F910BD1321508876DF06E067
:10CCB0000028F8D0FEF78AFD10BDFFF787F9082895
:10CCC000F6D110BD5188A142FBD0002104E051886B
:10CCD000A142F6D001460CE001F0F6FF10BD5088ED
:10CCE000A042FBD000210520F6E75088A042F5D0F5
:10CCF00005210020F0E70000001F0020FFFF0000DA
:10CD000070B50023042811D2440004190D4D012AE6
:10CD100002D101290DD0002246008019094E801948
:10CD200000290CD0012906D0022906D00723184675
:10CD300070BD0D30C2B22A55F9E74270F7E7827034
:10CD4000F5E700009425002010B5054A0146127A47
:10CD50000020D20702D0084600F054F810BD0000B1
:10CD60009C1F002070B50E46204905464E608D6020
:10CD700000200A61A9071ED5002401221146204681
:10CD8000FFF7BEFF641C042C02D20028F5D012E08D
:10CD9000002810D1720804211548FEF7CFFC0028A6
:10CDA00009D1FEF7B9FC002805D11148114A00212C
:10CDB0001438FEF707FEE90706D00F220E49520588
:10CDC0008A600023CB608A6100280DD108480B4A95
:10CDD00000211C38FEF7F6FD002805D10448084A5A
:10CDE00001211838FEF7EEFD70BD00009C1F0020E9
:10CDF0005407020039D001000005005015E9010078
:10CE000001B70100FEB57A4D0722EB6892059A43FF
:10CE100002936B6800939C0006461B1900200121B9
:10CE2000019349050746734C3300FEF723FB180DA9
:10CE30001515374755677C887F8891DE9E9E9E9E9C
:10CE40009EC8CED1D8DEDE140F21029A4905914347
:10CE5000A160E7602F70FEBDA260E76060680F22EE
:10CE600052055040800209D5A160E760022E02D130
:10CE7000E120C0000AE07D20400107E0E160A760FA
:10CE8000022E01D1C82001E0FF2091302E706421D4
:10CE9000FEF74CF90099414300223FE0A260E760B1
:10CEA00060680F2252055040800204D5A160E760FF
:10CEB00019204001EAE7E160A760E3E7A260E760CC
:10CEC00060680F2252055040800202D5A160E760E1
:10CED000D1E7E160A760D7E7A260E76060680F2252
:10CEE00052055040800202D5A160E76001E0E16098
:10CEF000A7602E700098410000220FE0A260E7605A
:10CF000060680F2252055040800202D5A160E760A0
:10CF100001E0E160A7602E700099002236480068A9
:10CF2000FEF7C8FDFEBDA260E7601BE0616801205E
:10CF3000800502468A43A2600140E16010E060681B
:10CF4000012189050A468243A2600840E060E3E7C8
:10CF50006068012189050A468243A2600840E060BA
:10CF60000199C9E7E160A7602DE023484068FEF71A
:10CF7000DFFD11218A1B01D0002807D00F22E968AC
:10CF800052051140A160E760EF60FEBD0121C905B7
:10CF9000E960012A0CD91046C82148436421FEF7F4
:10CFA000C5F869680022414313484068FEF782FDD6
:10CFB0000F22E96852051140E160A760FEBD0F2114
:10CFC0004905A160E7602E70FEBD07229205AAE721
:10CFD0000D214905A160E76001218905C2E7032110
:10CFE000C905A160E7608910BCE70F214905B9E7D1
:10CFF0009C1F00200005005038070200F0B50021FA
:10D000000B4C0C4D03273F048A00A258920056197E
:10D01000326801238B40034000D00323BA431B0432
:10D0200013433360491C0429EED30020F0BD0000F7
:10D03000440702000007005010B500780221FFF7F6
:10D04000B9FD10BD0022D243830004490428CA5010
:10D0500002D30818203002777047000018290020FA
:10D06000F0B50025ED43002A02D00023042601E09C
:10D07000042308260B4C04E09F00E7597F1C04D0D2
:10D080005B1CB342F8D32846F0BD26185DB22036AB
:10D0900035709E00A151002AF5D1E11820310877A2
:10D0A000F1E700001829002002490918202008563D
:10D0B0007047000018290020FFB58FB01E461546A6
:10D0C0000F0002D10020FEF781FB002D02D10020CD
:10D0D000FEF77CFB1C216846FEF76BF8684601787A
:10D0E00002200143684601700024019403940494D3
:10D0F0000594012108A80694817068460F9901845F
:10D1000007943178017771784177807FF921084061
:10D11000F721801C0840EF2108404108490068467B
:10D120008177142109A8FEF744F808A8099007A8F8
:10D130000A9068468585C485058604480D9709AA26
:10D1400069460088189BA2DF13B0F0BDF41F0020D1
:10D15000F8B53E481422017851430C18E0680C21C0
:10D1600048433A492769CC314018058941890091E3
:10D17000241D466802F0D6FA01463846FDF7D6FF70
:10D18000002932D000200099A2884D436188AE1951
:10D190008918CD1900222E4900280A6109D002F011
:10D1A000C1FA6188884222D0B54202D1A088002805
:10D1B0001DD0A06802281AD002F0B4FAA188CA19BA
:10D1C00001461046FDF7B2FF214C8808E06002F0EE
:10D1D000A9FA01462846FDF7A9FF002911D0002031
:10D1E000B5422FD000280ED02CE00120CBE702F072
:10D1F00099FA01463846FDF799FF15494861032021
:10D2000021E00120ECE7ADB2B7B202F08BFA0146A3
:10D210003846FDF78BFF064602F084FA01462846A1
:10D22000FDF784FF864201D1781B09E002F07AFA0B
:10D23000064602F077FA01462846FDF777FF701A96
:10D2400080082061022002F055FEF8BD4028002031
:10D250005820002010B507481422017851430818BF
:10D260000079042802D000F059F810BD012002F026
:10D2700041FE10BD4028002010B50B481422017853
:10D2800051430818094AC18811620079012806D063
:10D29000032801D0042801D1FFF75AFF10BD012057
:10D2A00002F028FE10BD0000402800205820002079
:10D2B00014225043054A002180180171C1800122C7
:10D2C0000161C26041610181704700004028002077
:10D2D000F8B5104C069E65780A2D19D027787D196F
:10D2E0000A2D00D30A3D14277D432D1928716A6148
:10D2F00003C92961E860EB802E816078401C607072
:10D3000005480078002801D1FFF7B6FF0020F8BDDE
:10D310000420F8BD402800205820002010B50D4CF6
:10D3200014212078484301190020091DFEF760FAF6
:10D330002078FFF7BDFF6078401E60702078401CA9
:10D34000C0B220700A2801D100202070002002F015
:10D35000D1FD10BD40280020F8B52348C168002940
:10D360003ED00E6821494C680769C078E11B0D0268
:10D370002D0AED1C002814D101201D4A0004506024
:10D380001B4A403A50601B49400008601A49086037
:10D390001A49012008602F20FDF79CFE1249012048
:10D3A000C870B54200D23546E81900020F4B000A9A
:10D3B000403318600D4A5168001B091B0902090A15
:10D3C0000002000AC91C814209D9506818602F2048
:10D3D000FDF780FE01200749400480390860F8BD50
:10D3E00002F0A0FCF8BD0000A020002000150140C4
:10D3F0004013014080E200E000E100E00010014045
:10D40000F8B50646108814468446801D0D4698429D
:10D4100001D90C20F8BD32880720062AFAD3192733
:10D42000FF01184BBA4201D99A42F3D171880629FB
:10D43000F0D3B94201D99942ECD19A4203D0994232
:10D4400001D08A42E6D8052160462954208812215D
:10D45000401C80B2208029542088401C80B220804B
:10D460004119308803F05EF82188401880B220808E
:10D470004119708803F056F8218840182080002058
:10D48000F8BD0000FFFF000010B5FEF79FF910BDCA
:10D49000F8B5164801F0DEF9144D00260C3D144C89
:10D4A000002807D0616900291CD001206A4610704D
:10D4B000684616E02878002805D06169002911D057
:10D4C000684606700DE0687800280DD0A16809480C
:10D4D00000220068FEF7EEFA002803D0A1690029B7
:10D4E00000D088472E70F8BD6168F0E7EC1F00207F
:10D4F000E42600207407020070B5094B04469E7AAA
:10D50000082000250E4207D00648844202D0188920
:10D51000A04202D10020156070BD052070BD000042
:10D5200010280020FFFF00000C214843064910B5D9
:10D53000012240188272911E0181FF21C1720721D0
:10D54000FDF737FE10BD00001028002010B5134C69
:10D55000207900071FD46069401C6061E0680028E2
:10D5600001D0042004E001F083F9002803D0022058
:10D5700002F02CFE10BD2069002809D06068C107A8
:10D5800001D00320F4E70121084360600020EFE7A9
:10D59000FFF760FE10BD02F00DFE10BD5820002008
:10D5A00010B5084841680A0708D48A0702D5012245
:10D5B00011434160022002F009FE10BD02F0FAFDA5
:10D5C00010BD000058200020F8B500260124154D9C
:10D5D00023E06968F0004718387821462A698140BD
:10D5E000114218D08A432A6101F01EFD3A78214683
:10D5F000EB68914019400346934099420BD17978EA
:10D60000012901D0012100E000217B684140002B6D
:10D6100001D010469847761CF6B228788642D8D3B7
:10D62000F8BD00007C200020FEB50E46044681783F
:10D630006A46234801F0E8FF002826D160780C21D3
:10D64000204F4843C019807A40061FD4022E1DD0B7
:10D65000012E1DD01C4DA0781C2148431B490023DE
:10D6600041181C226846A847002813D0022E0CD06F
:10D6700020780C21484313490C314018807A144912
:10D6800080000A58214668469047FEBD114DE2E7EA
:10D69000114DE0E7022EF8D060780C214843C01904
:10D6A000817ABF221140817260781C21484305496C
:10D6B0004C3941181C231A466846A847D8E7000091
:10D6C00050200020102800203901020000270020EF
:10D6D00078070200BDF90100E1F8010070B50546C8
:10D6E000114A124800241C2363431B189B7EFF2B06
:10D6F00004D0641C072CF6D3104670BD0A78022AA9
:10D7000009D01C2262431018FD22827607221030B5
:10D71000FDF736FD04E01C2161430818FE218176E7
:10D720002C700022E8E70000438000000027002062
:10D73000F7B505250F4F06460024002E0AD01C2001
:10D740006043C019072231461030FDF744FD002820
:10D7500007D00AE01C206043C019018B0298814267
:10D7600003D101980025046002E0641C072CE4D377
:10D770002846FEBD002700207CB5054681B26A46DA
:10D78000074801F041FF040008D16C21684601F010
:10D7900065FF040002D1284601F08EFE20467CBDC4
:10D7A0005020002070B505460C46100001D0FEF751
:10D7B0000DF82078142801D0212804D1042229460C
:10D7C0000248FDF7DDFC002070BD0000081F0020AE
:10D7D0001FB5694608731A4800F056FA002801D0B0
:10D7E000FDF7F4FF01F0A4FF002801D0FDF7EEFFE4
:10D7F00003A800F057FA002801D0FDF7E7FF01A8C1
:10D8000005210130FDF7D5FC6A4650790121084316
:10D81000E1221040DF220C3010406A465071072090
:10D8200090711020D0710748009005481171694629
:10D83000C01F00F089FB002801D0FDF7C7FF1FBD06
:10D84000081F0020A5D7010000B593B0022168464B
:10D85000017011494180114981800121C18040211D
:10D8600002A8FDF7A6FC0EA102A8FFF723F8684660
:10D8700010900120014610A82031017100200146BE
:10D8800010A8417102A8FEF70BFE002801D0FDF799
:10D890009DFF13B000BD000015190000EEEE000062
:10D8A0004E6F7264696353656D69636F6E6475630F
:10D8B000746F7200F0B5054693B000200290FF240B
:10D8C000EC480E940078002849D0EB4E30680028D0
:10D8D00045D001A800F0D8F9002801D0FDF776FF67
:10D8E000281D05902A2069460883FF20002788719B
:10D8F0000F710397E04C28880C3C10280ED0A888A4
:10D9000003AA0221FFF7F8FD002807D103980C2194
:10D9100041430919CA7A69468A71487128881322D5
:10D9200017287CD00FDC10281BD0112853D01328C7
:10D9300076D0142813D103980C2148430019C07ADB
:10D94000FF2871D08DE0CD4918286BD01C286AD0F3
:10D95000522804D1B07A8000095801A8884713B032
:10D96000F0BD03AA0121C648FFF7C6FD0028F6D185
:10D9700003990C20484302260019867211236A4637
:10D9800013745171A988018186720722A91DFDF7C0
:10D99000F7FB687DC10707D04108B6480830405CF6
:10D9A000FF2808D00E9006E0B54A0EA9A81DFFF783
:10D9B000BFFE00280ED103990C22514309190E987D
:10D9C000C8728A7A08231A438A726946887101A844
:10D9D000FEF7BEFF3AE103980C2148430119887A0B
:10D9E000FD2210408872010706D5C0090DD0002124
:10D9F00001A8FFF719FE08E068468079FF2804D0E7
:10DA000001F05AFDFF206946887103980C225043AB
:10DA100010210019817212206946087416E17FE016
:10DA200030E001E0D6E00FE1EA890EA90020FFF71F
:10DA30007FFE00280ED103990C22514309190E983C
:10DA4000C8728A7A08231A438A726946887101A8C3
:10DA5000FEF77EFF03980C2148430019C07AFF2887
:10DA600006D003981C214843834958394018029036
:10DA700003981C21484383494218A888002302992F
:10DA800082DF6CE768460274039B0C20584301193F
:10DA9000887A042210438872C87AFF2830D0162072
:10DAA0006946087430204343734826213C381818CF
:10DAB0000830FDF77EFB03980C2148430019817A5A
:10DAC00040221143817203990C2200204A430A909C
:10DAD0001219D27A1C235A436A4B0C90D2180B921B
:10DAE0001C2251431A46C4328918079108900990A4
:10DAF000321DA88807AB00217FDF0028C1D1A5E037
:10DB00000EA8FFF7EBFD002801D00746DBE76946CA
:10DB10000E98887103990C2251430919C872D2E7F3
:10DB2000707A0C2140084000707203986E460246DD
:10DB30004843011984468B7AFB2003408B721420E2
:10DB40003074A879002804D0C87AFFF715FEAF79A1
:10DB50007CE0E879400779D5B079FF2876D00826AF
:10DB600033438B72EB7A9B0708D51C2503466B4326
:10DB7000444D5B199D7E6D086D009D76CB7AFF2B21
:10DB800064D06346E35C022B10D01C2250433D4D11
:10DB9000072240191030FDF7F3FA684680791C21FE
:10DBA00048434019817EFD2211400DE01C214A436B
:10DBB0003149583951184A8A1C2148433149401883
:10DBC0000283817E490849008176012101A8FFF77F
:10DBD0002BFD3BE0A8790209012A23D10007000FA1
:10DBE00001281FD103980C2242431219927A12077E
:10DBF00018D53021484320493C39401826210830A7
:10DC0000FDF7D7FA16206946087403980C2148439B
:10DC10000119887A602210438872707A02210843C1
:10DC200070720FE003980C2250430019827A80230F
:10DC30001A43827215206A461074B07A800009581F
:10DC400001A88847002701E0684602743A4604A903
:10DC500001A8FDF7C7FD6846007C122800D07EE6CB
:10DC600003980C2141430919897A0129F7D0FFF75C
:10DC70005BFC74E6402000201C280020980702006E
:10DC8000FFFF000000270020002806D0FF210170C0
:10DC900041708170C17000207047014870470000DA
:10DCA0000E800000F0B585B0040036D0294800256C
:10DCB0000560457285722846FFF736FC25483021FD
:10DCC0003C38FDF776FA0026FF27304601F0F4FBDA
:10DCD00021488755761C072EF7D36C216846818032
:10DCE0000721C1801D481C4900900831684601F099
:10DCF00099FD00280FD1184E0120083E3070207881
:10DD000000280CD069468888C988484381B23046CB
:10DD1000103001F0A3FC05B0F0BD1148FBE7114F36
:10DD200000240D48A1B202AA083001F06DFC0028C1
:10DD300009D11C206043C01900231C2202A901F054
:10DD40001DFD002801D03570E5E7641C072CE8D3E1
:10DD5000E1E700001C28002048200020E9DD010048
:10DD60000E800000002700200B4610B51A491B4A00
:10DD70000978002920D0911D002805D0002B03D060
:10DD80000178002918D101E0084610BD144909683E
:10DD9000002911D0114A8178D21EFF290ED01C20F3
:10DDA000414310480918887E800705D40722184689
:10DDB0001031FDF7E5F90022104610BD4078FF282C
:10DDC000FAD00C21484306490C394118887A80075B
:10DDD000F2D507221846ECE740200020088000001A
:10DDE0001C28002000270020FFB554488FB0006891
:10DDF000189F1E4600284FD06C2F4DD86846FFF75D
:10DE000043FF002801D0FDF7E1FC002468460470C0
:10DE10000471254605970696A9B20DAA484801F057
:10DE2000F3FB002806D108220DA90F98FDF7D3F9BE
:10DE3000002819D06D1C072DEED368468078079016
:10DE4000FF2829D010982025032810D03D481C21F8
:10DE5000301AFDF76BF9012707282DD204A802908C
:10DE6000119800281AD021E068468570E5E76C2FEC
:10DE700003D040206946087101E068460571694693
:10DE80000879032108436946087104A8029001A992
:10DE90006846119AFDF7A6FC13B0F0BD0799384605
:10DEA00088402749103949680842F5D0079802F0A0
:10DEB0003FFB6846057137E020481C215838301A6E
:10DEC000FDF734F900280BD01C4D30213C3D701B70
:10DED000FDF72CF900281AD0402069460871DBE7CD
:10DEE00004A8029068460571447014480A940C30E6
:10DEF0000B9064380790684680781C21484311498C
:10DF00004018089007A80690182005900CE03021D2
:10DF1000684601714470C77008480C38807A8007E1
:10DF200002D42846FDF745F9109869460228087979
:10DF300001D00221A6E73843A6E700001C280020F4
:10DF4000502000200027002070B5064618480D46D6
:10DF5000007800280ED01749002E0ED0002D0CD0CE
:10DF60002868002809D0144C2168002907D01148DE
:10DF70000A3870BD0F48801F70BD084670BD206014
:10DF80000522691D201DFDF7FBF82879A072207A73
:10DF90000221400840000843FB2210402072E07933
:10DFA0000123184308431040E0710020307070BD19
:10DFB000402000200E8000001C2800207CB5044674
:10DFC00022480D460178224800292CD0811D002CC2
:10DFD00028D0002D26D02178002924D11D49096898
:10DFE000002920D01A496078083100281AD1194830
:10DFF0000C38807A012815D0A078072812D21C226C
:10E000005043154A8018807EFF280BD0E96800290C
:10E010000ED0AA68002A0BD0262A09D22878012817
:10E0200002D005E008467CBD0A483438FDF7A8F860
:10E030000648A1786A46103001F0E6FA28780749C8
:10E0400080000A582146684690477CBD4020002049
:10E05000088000001C28002000270020780702000C
:10E06000F0B5284A284B1278002A2BD09A1D002898
:10E070000BD0002909D00C68002C06D08C68002C2D
:10E0800003D0007800281DD101E01046F0BD1F48E4
:10E090000068002816D000231C4C1A4618460C3C79
:10E0A000E57A854202D1A57AAD0724D40D7B95424D
:10E0B00011D91C2506466E43154D7519AE7EF6071F
:10E0C00002D008E01846F0BD8E689700F5510D4D5E
:10E0D0000835A854521C0D799D420CD91C250646C2
:10E0E0006E430B4D7519AE7EB60704D49F001035F4
:10E0F0000E685B1CF551401C0728D1D30B710A73C5
:10E100000020F0BD40200020088000001C280020D6
:10E110000027002010B50E4900234A788C78A242CF
:10E1200012D0521CD2B24A70022A00D14B704A78E7
:10E13000074B920018339A580260086910180002C1
:10E14000000A0861012010BD0360002010BD00001E
:10E15000A02000207FB50646087E0D46002827D067
:10E16000E869002824D000241FE0E869E100431892
:10E17000002069460390087B0A210843694608731A
:10E18000D9790A2060438019C907C90FE0301A1DE8
:10E190000191029000921A8803A930469B1C01F05D
:10E1A00055FC002805D1641CE4B2287EA042DCD8CE
:10E1B000002004B070BD000010B5002803D0112865
:10E1C00002D0FDF72BFB10BD024808224168114325
:10E1D000416010BD5820002010B51C4C217820460D
:10E1E0004068012906D0022929D0032912D100074D
:10E1F00017D513E0000711D41548142201785143B4
:10E200000818C188A28B891A0904090CC18002D0A0
:10E2100001F094FF10BDFFF781F810BD00F00AFD7A
:10E2200010BD6069401C606100F022FB002803D033
:10E23000207801F05FFE10BDFFF70CF810BD60788C
:10E24000044980000858804710BD00005820002075
:10E2500040280020BC07020010B528DFFFF7ACFF04
:10E2600010BD10B529DFFFF7A7FF10BD0EB51120B7
:10E27000694608720C2210A102A87CDF002801D098
:10E28000FDF7A4FA104878DF002801D0FDF79EFAC8
:10E290000020009001900621684601800C214180F9
:10E2A00014218180FF212D31C1807ADF002801D027
:10E2B000FDF78CFA0EBD00004E6F726469635F4D0E
:10E2C0006F75736500000000C203000000207047F6
:10E2D0000020704700207047F8B50646407830218E
:10E2E00004464C4324490C2250436118224A00251D
:10E2F0004B6830328018AE462F469C46002B0CD01F
:10E30000827A1346D20908D05A0606D40D461A4A14
:10E31000614689B2175908358E46174C008930344A
:10E320003B4672462946A9DF0B2819D0002800D0A9
:10E330001248012F13D170780C214843001900892D
:10E340000F4AA7DF00280AD00E49884212D00828B9
:10E3500010D0891C88420DD011280BD00020F8BDA8
:10E3600070780C2148430123001900897246294620
:10E37000A9DFE0E70148F8BDE02700204180000068
:10E38000FFFF00000230000070B50C4601466078C7
:10E390003022084D50434019382301F0EFF900288E
:10E3A00007D161783022514349194A68521C00D183
:10E3B0004A6070BDE0270020F3B58BB00D462620E3
:10E3C0006946088568780C2103274843224E3B465E
:10E3D000801900890AAA6946AADF002838D168781E
:10E3E00030214843741A001969460A8D0830FCF739
:10E3F000F2FE0028687807D03021484301194968A7
:10E4000000290DD0154E0CE00C2141438919897A61
:10E4100089071DD4302148430019FCF7CAFE17E0D4
:10E420000F4E27506846028D687830214843001906
:10E43000426068784843001969460830FCF7A0FE3E
:10E440006878302148430119382330220B98B047AF
:10E4500000200DB0F0BD000010280020BDF9010023
:10E46000E1F8010010B5FFF737FF10BD10B5FFF759
:10E470008BFF10BD10B5FFF79FFF10BDF8B5074625
:10E48000104E0125BD403068FDF752FB00280DD12C
:10E490000D4C2069284207D1384600F0C5FD002800
:10E4A000E06804D0284303E0A8432061F8BDA843F6
:10E4B000E0602069002228432061A1683068FDF7F0
:10E4C000F9FAF8BDD00702007C20002070B51B4C83
:10E4D000207900072ED41A481422017851430D18D0
:10E4E0002E6901F01FF90146E8882A89761E8018F6
:10E4F0008019FCF71BFE21690025002909D06169FC
:10E50000814206D1E5606068012108436060002017
:10E510000AE000F0ADF9002802D00220E56003E037
:10E520002069002803D0032001F050FE70BDFEF7E3
:10E5300091FE70BD01F03EFE70BD0000582000202D
:10E5400040280020F0B58FB00F4605461C216846D4
:10E55000FCF72FFE684601780420014368460170ED
:10E5600000240194039404940594012608A80694B9
:10E57000867016496846018407943978017779785E
:10E580004177807FF9210840F721801C0840EF2166
:10E590000840410849006846817708A804711421A1
:10E5A0000AA8FCF706FE08A80A9007A80B90684680
:10E5B00006864486868609A82B460E90FF33288956
:10E5C0006F330AAA6946A2DF0FB0F0BD4C2A0000E3
:10E5D00070B590B00C4606461C216846FCF7E9FD74
:10E5E0006A461078022108431070002501950395B2
:10E5F00004950595012008AA069590711B486A4666
:10E60000908434200795005D10773520005D5077A9
:10E61000907FF9210840F721801C0840EF21084035
:10E62000400840009077208E08AA1070000A5070B1
:10E630003034A0789070E078D070042414210AA8B7
:10E64000FCF7B7FD09A80A9007A80B906A46148644
:10E650005586948608A833460E90FF333089673379
:10E660000AAA6946A2DF10B070BD00004A2A000065
:10E6700030B599B0182112A8FCF79BFD01240325A1
:10E6800010A90D818C722046CC7220300873204670
:10E69000203048732046203088730D820220887411
:10E6A0002046CC7420300875204620304875887587
:10E6B0000C838D76CC760877487788774821684632
:10E6C000FCF777FD2248009022480190002069461F
:10E6D00008724C728D7212A90391694608740590F4
:10E6E0000876882207908A841B49FF22089102320B
:10E6F00069460A8608A98874CD7488750E90212011
:10E70000087300204873401C0007000F2030087574
:10E7100000204875401C0007000F10A92030087029
:10E7200021204870887008A90877487700208877EA
:10E73000401C0007000F2030C87769460748FDF7E6
:10E74000A5FF002801D0FDF741F819B030BD000049
:10E7500065F20100C5FE0100141F0020B423002053
:10E760007FB50646887A0D46002833D0E868002831
:10E7700030D000242BE0E868E1004318002069460F
:10E780000390087B022108436946087399790907B9
:10E7900002D00821084301E0F72108401021084376
:10E7A000694608730A2060438119D8791431C0077B
:10E7B000C00F1A1D0291019000921A8803A93046D9
:10E7C0009B1C01F043F9002805D1641CE4B2A87A2F
:10E7D000A042D0D8002004B070BD0000F8B51C4C99
:10E7E0002078002833D02069002807D00026E06870
:10E7F000002805D00025002E04D011E00126F6E700
:10E800000125F8E7684652DF052804D0002804D027
:10E81000FCF7DCFF04E0012602E02169009888474C
:10E82000002D10D1608869460880A06861DF052846
:10E8300004D0002804D0FCF7C9FF04E0012502E061
:10E84000E168A0688847002EDCD0002DD3D0F8BD49
:10E85000C0200020418805480288914204D34088A6
:10E86000814201D80120704700207047E41F00203A
:10E8700070B50E481422017851430C18256900F038
:10E8800051FF0146E08822896D1E80184019FCF76F
:10E890004DFC07494A69824206D3824202D1086987
:10E8A000002801D0002070BD012070BD402800204C
:10E8B00058200020800701D00020704701207047B9
:10E8C00030B51588EC1C9C4201D90C2030BD0224C7
:10E8D0004C5513881C255B1C9BB21380CD541388A8
:10E8E0005B1C9BB21380012807D0022807D00328A5
:10E8F00007D0042807D0072030BD002004E0012005
:10E9000002E0CC5401E00320C8541088401C108061
:10E91000002030BD10B50448017AC90702D0007844
:10E92000FEF770FA10BD00009C1F0020F8B52C49BE
:10E93000C8680A690C780F79896886469446009100
:10E940003EE00099E20055182A7836E01823534338
:10E950006968521CC918AB78D2B2934200D1002228
:10E960000B78022B02D0032B27D123E04E680346FD
:10E97000014603E0B14204D00B46C96900291CD00E
:10E98000F8E7002919D08B4208D1C069002805D1C9
:10E99000144F0126BE600026B44601270E68C969DF
:10E9A000D961002909D00B689B190B6005E001743F
:10E9B000C06900E000210028F9D169789142C5D1F1
:10E9C0002146641EE4B20029BBD1054962460A61B2
:10E9D000C8600F71704501D00120F8BD0020F8BD5E
:10E9E000A020002000100140F8B504463148002660
:10E9F000C168009107784EE02E48F90080680D1834
:10EA000043E0002C02D02046E4691FE0287818215A
:10EA100041436A68401CC0B251182870AA789042DD
:10EA200000D12E700A784868012A30D1027C002A71
:10EA30002DD18A684260CA6882600A69C2604969E9
:10EA400081611C490979002900D046601949436851
:10EA50000A699C46991A0902174B090A994202D27F
:10EA60008268891807E06146511A09028268090A1A
:10EA70008A4202D9511A016000E006604660012115
:10EA800086600174C66101F033FC002CB9D128788E
:10EA900069788842BAD138467F1EFFB20028ABD1D0
:10EAA0000448C1680098814201D00120F8BD0020CF
:10EAB000F8BD0000A0200020FFFF7F0098B0514B60
:10EAC000514A05210020FCF7ADFF002801D0FCF7DA
:10EAD0007DFE4E4A01214E48FCF774FF002801D00C
:10EAE000FCF774FE4B4A4C490320FEF73BF9002823
:10EAF00001D0FCF76BFE01A90020FDF7EBFF002819
:10EB000001D0FCF763FE68460079022870D000202F
:10EB100069460870FDF7DEFE404A0A210820FCF72E
:10EB20003BFF002801D0FCF751FE68460078FEF755
:10EB30004FFEFFF79BFB382101A8FCF73AFB0222AE
:10EB400068460271012405218471C17184823448B0
:10EB50002F4906902422091D0FA8FCF711FB31480C
:10EB60000090314B0FAA002101A8FDF727F90028DA
:10EB700001D0FCF72BFEFEF767FEFDF703F8FFF769
:10EB800077FD2A485121016064218460416004734B
:10EB900001462348083001F035F91C216846FCF78E
:10EBA00008FB0521C90301910F21090400200291EE
:10EBB0000090032269460A73C881087405901C48B6
:10EBC00006906846FDF7CAFB002801D0FCF7FEFD61
:10EBD0000F480121002209040068FCF76BFF0028A0
:10EBE00001D0FCF7F3FD0320FDF710FA05E0FFE785
:10EBF00001208DE7FCF7C0FE48DF0028FAD0FCF7C3
:10EC0000E5FDF7E70DBA0100F42000200DBD01007D
:10EC10001007020081CC0100CD0C0000042300206D
:10EC2000041F0020B5BD010015F10100442500209E
:10EC300089D4010010B5044808224168914341601D
:10EC4000007801F057F910BD5820002008B50023C6
:10EC500000936B4618809970DA70009808BD70B503
:10EC6000144682880E4605462088111D4118921CC4
:10EC7000994201D8FE2A01D90C2070BD521C325491
:10EC80002088FF21401C80B2208031542088401C05
:10EC900080B220808119288801F044FC2188401826
:10ECA00080B22080AA88002A09D0A968002908D04B
:10ECB0008019FCF765FA2088A98840182080002078
:10ECC00070BD072070BD00001CB51B4A1278002AD9
:10ECD0000FD0FF2800DBFF20FF2900DBFF210022EF
:10ECE000009201924BB242B200211448FDF796FC0B
:10ECF00015E0134A904200DB1046914200DB1146BA
:10ED00006A46107000050B01000F03435370080999
:10ED100090706B46032201210848FDF74FFD002843
:10ED200009D0082807D00749884204D006498842FC
:10ED300001D0FCF74BFD1CBD001F0020B4230020B8
:10ED4000FF0F00000430000001340000F8B50F464A
:10ED5000017814460546012902D16878002806D0BA
:10ED60002088821C9A422DD8012902D006E0072073
:10ED7000F8BD69784118891C994223D8181A801E59
:10ED800086B2684606802188B81C081869467DDF6F
:10ED90000028EDD12878022805D169460988B142BA
:10EDA00001D809210AE00821012805D16878B0427C
:10EDB00002D86A46108001E06846068068460088EE
:10EDC000FE2801D90C20F8BD2288401CB8542088A8
:10EDD000401C80B22080395420886946401C208025
:10EDE0000988401820800020F8BD002070470020CE
:10EDF000704700207047000000B50948018C008D65
:10EE0000C9B20006000F012907D10300FCF732FB4D
:10EE1000040303050305012000BD002000BD000020
:10EE2000C00F00F000B50948018C008DC9B2000682
:10EE3000000F012908D10300FCF71CFB050606049E
:10EE400006040600012000BD002000BDC00F00F038
:10EE500000B50B48018C008DC9B20006000F0129D6
:10EE60000CD10300FCF706FB0D0A0A0A0A0A08087F
:10EE70000A0A0A080A0A0800012000BD002000BD95
:10EE8000C00F00F08207D30EFF229A408907090EB7
:10EE900010B5994000280BDA03071B0F083B9C08AC
:10EEA0000C4BA400E318DC6994430C43DC6107E0DD
:10EEB0008408094BA400E418236893430B432360A0
:10EEC000C106C90E01208840044908600449086051
:10EED00010BD000000ED00E000E400E080E200E092
:10EEE00000E100E0F3B581B00F46019800F000FBAF
:10EEF000012400281E4E019817D0FEF7D5F880197E
:10EF00002030007F8009032802D0012806D007E0C6
:10EF10001848006901998C40204201D1022100E08B
:10EF20000321019800F0CEF8FEBD00F0EDFA0028B4
:10EF3000FAD00198FEF7B8F805468100C81D0E4AC0
:10EF4000F93089180A6980B222430A610B494018D6
:10EF500000210160002FE7D00198FEF7A5F880009E
:10EF600030580028E0D00648AC404460FEBD0000A8
:10EF70001829002000050050006500400060004096
:10EF800000630040FEB5044623480E4600192021C8
:10EF900041560027C8171346401C01D0082738E007
:10EFA000F27819462046FEF75BF80546401C2FD044
:10EFB000B078002807D01948A10009180868022273
:10EFC0009043086007E000217378204600910A46CC
:10EFD000019100F065F8F078002810D01048AA00E0
:10EFE0001018317802690F4B1A400261E206D20C08
:10EFF0008907890B0A4301690A43026109E006484F
:10F00000327840192030017F92011143017700E0EE
:10F0100004273846FEBD00001829002000070050D4
:10F0200000650040FFE0FCFF03490969C140C807D3
:10F03000C00F00D0012070470005005070B5124D80
:10F040002879002801D0082070BD0F4900204039E0
:10F05000421E0B182033401CC0B21A702028F8D36F
:10F0600000242046FDF7EEFF641CE4B2082CF8D320
:10F0700003210620FFF706FF01200449C00748606E
:10F0800001202871002070BD582900200063004035
:10F0900002480079002800D001207047582900203C
:10F0A00030B552000A439900039C0A432102049D93
:10F0B0000A4329040A43024980004018026030BD17
:10F0C00000070050820006481018026803231B0442
:10F0D0009A430260026809040A4302607047000014
:10F0E00000070050034940180068012800D00020A4
:10F0F00070470000006000404058002800D0012008
:10F1000070470322120280184068084000D0012096
:10F110007047000000B595B00300FCF7ABF909207B
:10F12000060A0C1214162A3D0A00052004E0FCF71A
:10F130004DFB15B000BD0220FDF706FE0028F6D1FC
:10F14000F7E70420F8E70320F6E70320FDF7FCFDCE
:10F15000002801D0FCF73AFBFCF738FFEEE700206F
:10F16000FDF7F2FD002801D0FCF730FB00F0AEFE09
:10F17000DFE7082069460871087304A800900CA80E
:10F1800002901048FEF76CFF002801D0FCF71EFB30
:10F190006846FDF72BF8D1E70A48C01D0078FF2824
:10F1A000C7D008486946C01DFEF7DEFD0649884203
:10F1B000BFD0002801D0FCF709FB6846FCF7E6FE4B
:10F1C000BCE70000011F0020058000007FB5044659
:10F1D0000088234D3A2815D010DC02281FD01028B3
:10F1E00014D0112809D10020FDF7AEFD002801D070
:10F1F000FCF7ECFA0020C04368807FBD512815D091
:10F200005528FAD11321688876DF23E00720FDF71F
:10F210009BFD002801D0FCF7D9FAA088ECE700217B
:10F22000688867DF16E0FCF7D1FA7FBDA179002975
:10F23000FBD0A07A042803D0062801D00528F4D1F9
:10F2400002290AD0012069460870FF208330888097
:10F250006888A8DF0028E6D17FBD0220F3E7000020
:10F26000001F00201FB50C7800200123144A022C37
:10F2700007D0052C03D0062C00D110701FBD1370D1
:10F280001FBD6C462370029003901078002804D0B4
:10F2900088880C49884206D01FBDC8790128FBD157
:10F2A00088790128F8D1064821460830FEF786FE05
:10F2B0000828F1D00028EFD0FCF788FA1FBD000025
:10F2C000001F0020332A000010B5138B86B0022BDC
:10F2D00016D10368002B13D0D37E947E1A022243EA
:10F2E000D207D20F01D0022200E003226B461A702F
:10F2F0000B886A4693804988D180026869469047A6
:10F3000006B010BD10B5036886B0002B0FD00424E2
:10F310006B461C7014889C805288DA808A8B1A8114
:10F32000CA8B5A812031039102686946904706B022
:10F3300010BD0000F0B50446FF300F468D1D413072
:10F34000C988C68D0022012389B0B14215D1298B0D
:10F35000204601290CD10168002909D0A97E002985
:10F3600008D0012904D169460B73026803A99047AC
:10F3700009B0F0BD69460A73F7E76289914211D17D
:10F38000298B20460129F3D101680029F0D0A97EFC
:10F39000002905D00129EBD106216A461173E4E763
:10F3A0000521FAE7428A254B914206D100221146F7
:10F3B0001846FFF74BFC029029E0C289914206D122
:10F3C000002211461846FFF741FC02902FE01B4B2C
:10F3D000428C11339142E9D0C08B8142F0D002A817
:10F3E00001900022A07C1AE00A2353431B191B8BB7
:10F3F0008B4212D1114801212B30FFF727FC0090DE
:10F4000069460198098801806946498841802A46F1
:10F4100002A92046FFF758FFAAE7521CD2B2904239
:10F42000E2D802AA204600F039FC0028A0D002AAA7
:10F4300039462046FFF766FF9AE70000222A0000BF
:10F440007FB50646087C0D46002827D0686900284D
:10F4500024D000241FE06869E100431800206946B9
:10F460000390087B0E21084369460873D9790A2066
:10F4700060438019C907C90F7A301A1D01910290A3
:10F4800000921A8803A930469B1C00F0DFFA00287E
:10F4900005D1641CE4B2287CA042DCD8002004B072
:10F4A00070BD0021425C002A01D001207047491C38
:10F4B0000629F7D30020704770B505461C200B497C
:10F4C00068434418204611300621FBF772FE20469F
:10F4D0001021FBF76EFEFF2121740020A176C043AE
:10F4E0002083284601F024F870BD0000002700208A
:10F4F0000449081820214156042901DB01207047E6
:10F50000002070471829002004490818202141567E
:10F51000042901D2012070470020704718290020DB
:10F5200070B50D00044602D10020FCF74FF9002C05
:10F5300002D10020FCF74AF92878207069886170B0
:10F54000090AA170A988E170090A2171E88860712F
:10F55000000AA07170BD0000F0B58FB00F460646DE
:10F560001C216846FBF725FE68460178062001430A
:10F5700068460170002401940394049405940125C5
:10F5800008A806948570154968460184079439785F
:10F59000017779784177807FF9210840F721801C35
:10F5A0000840EF210840410849006846817714214E
:10F5B0000AA8FBF7FEFD08A805710A9007A80B90A2
:10F5C000684605864486858609A80E9033463089AC
:10F5D0000A330AAA6946A2DF0FB0F0BD4E2A000026
:10F5E00007490979490701D408207047002804D049
:10F5F000044949780160002070470E2070470000E0
:10F60000582000204028002030B5124B1B795B07A2
:10F6100001D4082030BD002805D0002A03D004689A
:10F62000002C10D101E00E2030BD0B4B1D68002DC9
:10F6300009D045681889414369185D894543586870
:10F640002818884201D8072030BD1460002051607E
:10F6500030BD0000582000200C290020FEB50546D2
:10F6600025480E460079400701D40820FEBD002D34
:10F6700003D02868002834D101E00E20FEBD1F4CC5
:10F68000216800292DD0608921894843616841188B
:10F690006868814225D9FFF70DF900280FD0686806
:10F6A000019029680C2251430F1979680091401A82
:10F6B00039890C46FBF73AFD002912D101E01020F0
:10F6C000FEBD21463046FBF731FD002909D1002E51
:10F6D00007D0788944430198811900980019814224
:10F6E00001D90720FEBD002002460090334629467E
:10F6F0000320FDF7EDFDFEBD582000200C29002061
:10F7000010B507484469601C06D000F00BF80146AC
:10F710002046FBF70BFD10BD01200007406910BD1E
:10F720000010001001200007006980B2704700003F
:10F7300070B500240F482546047044702846FDF734
:10F74000B7FD6D1C0A2DF9D30B4D6C80FFF7D8FF68
:10F75000861EFFF7E7FF46430648AE60CC306C617B
:10F760000460048144812C70AC610420EC61686009
:10F77000002070BD4028002058200020FFB52748F9
:10F7800081B000791F4616460D46400702D4082076
:10F7900005B0F0BD002D06D00198002803D02868E0
:10F7A000002815D101E00E20F2E71D4C206800284A
:10F7B0000ED0618920896268414389186A68914244
:10F7C00006D9002E04D0B04202D3F119814201D9EA
:10F7D0000720DDE70198FFF76DF800281BD03846B9
:10F7E000FFF768F8002816D06868FFF763F800286C
:10F7F00011D068683246C1190198FBF7C1FC009628
:10F8000028680C2148432458002202212846019BE5
:10F81000A0470020BCE71020BAE7000058200020D5
:10F820000C290020F8B52C4D044628790E464007D7
:10F8300001D40820F8BD002C20D0002E1ED0206856
:10F8400000281BD0FFF76EFF0146A088814213D32A
:10F85000102811D3E08800280ED0FFF751FF471E73
:10F86000FFF760FF4743E288A188A8684A4312185F
:10F87000974201D3890703D00720F8BD0E20F8BDB9
:10F880006988012926D031600C22144B51437060E5
:10F89000CA18506020685850A0881081E0885081B4
:10F8A000FFF740FF0646FFF73DFFA188E288401EB4
:10F8B000514340183146FBF74FFC0446FFF732FF37
:10F8C0000146A86861430818A8606888401C6880E1
:10F8D0000020F8BD0420F8BD582000200C2900208D
:10F8E000F8B5044620481E46007915460F464007E5
:10F8F00001D40820F8BD002F05D0002C03D02068CB
:10F90000002815D101E00E20F8BD18480168002933
:10F910000ED04289018940684A43101862689042BB
:10F9200006D9002D04D0A94202D3A819884201D9D2
:10F930000720F8BD3846FEF7BDFF002811D030463D
:10F94000FEF7B8FF00280CD06068FEF7B3FF002870
:10F9500007D02B463A46214601200096FDF7B8FC19
:10F96000F8BD1020F8BD0000582000200C29002010
:10F9700010B5114902460878002811D004280FD08C
:10F98000022A16D0032A0BD10A79120711D48A69E8
:10F99000521C8A61032A08D0022802D000F0AAFA79
:10F9A00010BD487800F012FC10BD0D20FBF736FFAB
:10F9B00010BDFEF711FC10BD58200020F8B504461C
:10F9C00020481E46007915460F46400701D40820FE
:10F9D000F8BD002F05D0002C03D02068002815D1D9
:10F9E00001E00E20F8BD1848016800290ED04289B8
:10F9F000018940684A4310186268904206D9002D78
:10FA000004D0A94202D3A819884201D90720F8BD21
:10FA10003846FEF74FFF002811D03046FEF74AFF68
:10FA200000280CD06068FEF745FF002807D02B4661
:10FA30003A46214604200096FDF74AFCF8BD102006
:10FA4000F8BD0000582000200C290020FFB591B01F
:10FA500008780024C0061C9E1A9D0F4600280DDA67
:10FA60000120014608A810310894017029784170DE
:10FA70008178F920014008A8891C81701C21684602
:10FA8000FBF797FB38786946087001940394049457
:10FA90003878C00601D508A800E0002005900122B2
:10FAA00008A906948A712D48694688840794687865
:10FAB0000877A8784877887FF9273840F721801C95
:10FAC00008401B99C9000843EF21084010436946CC
:10FAD000887714210AA8FBF76CFB09A80A9007A8ED
:10FAE00069460B900C864C861398888611980E9464
:10FAF000008933460AAAA2DF00282CD1012008A9D8
:10FB00008871174869468884079468780877A878C8
:10FB10004877887FF7213840801C0840EF21084053
:10FB2000400840006946887714210AA8FBF741FB8A
:10FB300009A80A9007A80B900FA81499FCF7C3FE18
:10FB4000694608864C8688860FA80E903246308813
:10FB500008320AA9A3DF15B0F0BD00004D2A00004D
:10FB600008290000F0B597B00C4606461C216846EF
:10FB7000FBF71FFB694608780221084369460870B5
:10FB800000250195039504950595012208A9069580
:10FB90008A70404869460884274620370795387B95
:10FBA00008772D20005D4877887FF9210840F721EC
:10FBB000801C0840EF2108401043694688771421D3
:10FBC0000AA8FBF7F6FA08A80A9007A80B90A08CE1
:10FBD000694608864D86A08C8886206A33460E903A
:10FBE000FF33308945330AAAA2DF002808D1B8794B
:10FBF000002802D0A06A002801D0002544E0072098
:10FC000017B0F0BD012108A881702349684601841E
:10FC100000200790401C0107090F6846203101773A
:10FC20000020014668464177807FF9210840F7218E
:10FC3000801C0840EF210840410849006846817750
:10FC4000A06AA900401812AA09A965DF0028D7D127
:10FC500014210AA8FBF7ADFA08A80A9007A808AA79
:10FC60000B9010796A46108600215186908612A862
:10FC70000E90FF2045303246FF32805B4D320AA99C
:10FC8000A3DF0028BCD16D1CB879A842BADC0020E3
:10FC9000B6E700004B2A000007290000F8B514461B
:10FCA00000221F4B857C09E00A2656433618B68A87
:10FCB0008E4201D1012120E0521CD2B29542F3D8EC
:10FCC000002278252D5C0AE00A2656433618403675
:10FCD000768F8E4201D102210FE0521CD2B29542A2
:10FCE000F2D80022DE252D5C15E00A265643361890
:10FCF000C036368C8E420CD103211846FEF7A6FF83
:10FD00000090684600882080684640886080012016
:10FD1000F8BD521CD2B29542E7D80020F8BD0000D1
:10FD20004D2A000070B501240B49600408600B499E
:10FD300040108860094940398860094D6C602F2067
:10FD4000FBF7C8F9AC60074D00242F202C61FBF7AE
:10FD5000C1F9EC7070BD000080E100E0401301408B
:10FD600000100140A020002030B50A48FF21C57DC9
:10FD70000022094C0931094B002D625007D09969C6
:10FD8000437EC268D154417E491C417630BD98699A
:10FD900030BD000060290020002000400025004008
:10FDA0001FB501236A46137010720348019106C8FB
:10FDB000684690471FBD00006029002008B5024931
:10FDC0000020009108BD0000001F002010B503684E
:10FDD0000A6889689C1A8C4202D9591A016010BDC0
:10FDE00001210260017110BD10B54B68026889687D
:10FDF0009C1A8C4202D95118016010BD0021036089
:10FE0000017110BD0A7B002A03D0496801600021FE
:10FE100002E00968016001210171704710B50446D4
:10FE200000790028204602D0FFF7DEFF01E0FFF74F
:10FE3000CDFF206810BDFFB50746806A81B014462B
:10FE400000283DD0002538462030009033E00C20BB
:10FE5000B96A68430E18B088801CFE2802D90C20AD
:10FE600005B0F0BD22880299401C885420881622D3
:10FE7000401C80B2208002990A542088401C80B225
:10FE8000208002994118308800F04CFB21884018EE
:10FE900080B22080B288002A0AD0B16800290FD031
:10FEA000029BC018FBF76CF92088B18840182080AD
:10FEB0006D1C0098EDB2007BA842C8D80020CFE7A7
:10FEC0000720CDE710B5FBF781FC10BD10B5002071
:10FED000FCF73AFF002801D0FBF778FCFCF760FE46
:10FEE000002801D0FBF772FC3CDF002801D0FBF7B3
:10FEF0006DFC10BD10B50F490028087009D001280D
:10FF000011D0022812D0032802D14869FEF7A4F9C3
:10FF100010BD00208861C861074840780028F7D0EC
:10FF2000FDF7AAF910BD00F009F910BD00F068F85E
:10FF300010BD00005820002040280020002803D0D9
:10FF40000249C860002070470E207047C020002082
:10FF50001CB5034901910091694660DF1CBD00009A
:10FF6000001F002070B50E460546144614211046A9
:10FF7000FBF71FF9012000212080216121732672E7
:10FF80006572002D00D0A072002070BD10B5002950
:10FF900002D00020FBF71AFCFEF720FC10BD000089
:10FFA00010B50021024A0846FBF76AFC10BD0000AC
:10FFB0008DFF010010B5FBF7FBFB10BD70B50029EC
:10FFC00001D08C0701D0072070BD064C0125A1602F
:10FFD00062800549636010DF0028F5D12570162086
:10FFE0002EDF70BDC0200020B5FF0100002803D027
:10FFF00002490861002070470E207047C020002091
:020000040002F8
:10000000F8B5164C1422606840084000606014483F
:10001000017851430E183769FFF784FB01463846D3
:10002000FBF784F805466061FFF77CFB0146F0882A
:100030007F1EC019FBF77AF802228542606801D161
:10004000104300E090436060E1681040084303D033
:10005000002000F0BBF8F8BD0220FAE7582000208D
:100060004028002010B502484069FEF7F5F810BDA1
:100070005820002010B5FFF743FB441EFFF752FB4A
:100080004443FFF74FFB04494A69521E5043CA6874
:100090002146FEF7E6F810BD58200020F8B51048BC
:1000A0001422017851430C182569FFF73BFB0146E8
:1000B000E088228980184019FBF738F80F46FFF7CF
:1000C0001FFB461EFFF72EFB4643E0882289F119ED
:1000D0008018044A40191269FEF7C3F8F8BD000001
:1000E000402800205820002070B5FFF71BFB054674
:1000F000FFF706FB441EFFF715FB60432946FBF79D
:1001000015F8FEF7A9F870BD70B5FFF70BFB860870
:10011000FFF708FB0749496948430446FFF7F0FA2F
:10012000451EFFF7FFFA684332462146FEF799F86D
:1001300070BD0000582000200020704770B51448A2
:100140001422017851430C18241DFFF7EBFA618843
:10015000104E884211D2FFF7E5FA61880D1AFFF7B9
:10016000E1FA8208A188E06840182169401949191C
:10017000FEF777F8FFF7D6FA07E0A288E068801864
:100180008A082169FEF76DF86088F06170BD000093
:10019000402800205820002010B5054800790007AD
:1001A00003D4012000F012F810BD00F003F810BDD8
:1001B0005820002010B5044808224168914341604E
:1001C000407800F003F810BD582000200249487024
:1001D000024980000858004758200020A807020064
:1001E00010B50446FFF7C4FB2046FBF7B7FE10BD71
:1001F00070B50C00054602D10020FBF7E7FA002D90
:1002000002D10020FBF7E2FA207828702088FF2135
:1002100009020840000A6870206809020840000CC2
:10022000A8702068000EE87020792871207A687123
:100230002089000AA871A068000CE87170BD000058
:1002400010B505480079000702D4FDF703F810BD8A
:10025000FFF7B0FF10BD000058200020FEB51F4C76
:1002600000252769E06802906846FDF753FF01907A
:10027000FEF75CFB06460198002822D00023009878
:10028000E16817E00E680A46864202D9301A086013
:1002900012E0801BF31800261660D668D169B446B8
:1002A000002E07D0FE183602360A56606646966063
:1002B000D56115460029E5D12846E160FEF794FB9B
:1002C00006E02846FEF790FB002801D1002E02D060
:1002D0000298FDF741F800202071FEBDA02000200B
:1002E00001200249000508607047000000E200E0BC
:1002F00010B50E4BD968002906D002680C68A242DE
:1003000004D8A21A0A60C161D86010BD0B4604E08F
:100310000B46C969121B002904D00C689442F7D31C
:10032000A41A0C600260C161D86110BDA020002039
:10033000F8B51D4DEC68002C34D01C4800274068EF
:100340002969401A0602360A2068B04218D8361ABF
:10035000C7192246107CE46900280FD000201074D1
:100360006B69002B07D0916950699847002805D028
:10037000FBF72CFA02E0516990698847002CE3D121
:100380006978A878814206D1401CC0B2A8700228C2
:1003900001D10020A87004490006800D18310F50CB
:1003A000FFF79EFFF8BD0000A020002000150140CF
:1003B000FF2107481D31002242500648828A816889
:1003C000895C828A521C82820348C16170470000A6
:1003D0000020004060290020002500401FB50021BA
:1003E0006A4611701072044882680192817506C8CD
:1003F000684690471FBD000060290020F0B5454DBC
:10040000012185B049022846FEF77BFE0127002620
:10041000414C002824D0FF2125312846FEF76CFEF0
:1004200000281DD0FF2025302E5081203B49800020
:100430008860A07E002800D16F60022168460170AC
:100440003749086808600390E17D68460172E068FA
:100450000190E675267606CC6846083C90472BE06E
:1004600004212846FEF74DFE002825D0FF21093142
:100470002846FEF741FE00281ED0FFF775FCE07D00
:10048000617E884218D1207E002808D0627EE16813
:10049000E0752069E0602676667610460AE0A07E68
:1004A000002800D16F6081201C4980008860E675BB
:1004B000607EE168FFF774FCFF211D312846FEF7DE
:1004C0001BFE00280DD0A18AA07D814202D2FFF739
:1004D0006FFF06E0FF211D316E50002801D0FFF7AD
:1004E0007DFFFF2145312846FEF706FE00280ED08D
:1004F000FF2045302E50A07E002800D02F60E07DE8
:10050000002804D0E675607EE168FFF749FC05B07D
:10051000F0BD0000002000406029002000230040C2
:10052000802400400870000A4870022070470000D4
:1005300001218140024842688A43426070470000BE
:100540004020002038B51549154A488890420FD000
:100550004A78144C521CD2B24A70237B934208D37F
:10056000091D75DF002803D0A169002900D0884744
:1005700038BD00254D70217C002907D03B2176DF56
:10058000002803D0A169002900D0884761690029AB
:10059000EED068460570884738BD0000E01F002097
:1005A000FFFF0000E426002012494868C005C00D86
:1005B00019D0103840B2002807DA0207120F083AA3
:1005C000920892005118C96904E081080A4A89001A
:1005D000891809688007C00EC1400806800F0128ED
:1005E00003D0032803D00220704700207047012069
:1005F0007047000000ED00E000E400E042788378FE
:10060000521CD2B2934200D100220378934201D10E
:10061000002070470A70416840781822504308183B
:100620007047FFB583B016460C9D0D9C1F460222F5
:1006300000950194039800F00CF8002807D13B4680
:100640001022314600950194039800F002F807B09B
:10065000F0BDFFB583B0074600200C9C8646268877
:1006600005463AE07868A9004218118868468180FA
:100670005188C1800022694601A865DF002839D170
:10068000684601780598814226D17046002801D03D
:10069000002200E002222088891842180D998A421F
:1006A00027D8714600290AD1401C80B22080069AC2
:1006B000049911542088401C2080012086462188FE
:1006C00006980A18694601A865DF002812D1694614
:1006D00020880978401820806D1C3888A842C1DC29
:1006E000704600280AD02088801B401E80B2FF2858
:1006F00002D90C2007B0F0BD069988550020F9E713
:100700000179002902D1007B002800D00120704728
:10071000D4200020010100000000000000000000C3
:1007200001000000280000001E0000000100000081
:10073000800C0000B4000000542500207425002027
:10074000A02500201100000012000000130000008E
:100750001400000011000300B5CB010012000300DB
:10076000B5CB010013000300B5CB0100140003005A
:10077000B5CB0100C4260020F3ED0100B9E3010070
:10078000D5E2010075E40100EFED010089E301000D
:10079000D1E201006DE40100EBED0100D9E20100BE
:1007A000CDE2010065E40100E90002000901020058
:1007B000650002009D000200750002009901020020
:1007C000A1D501004DD5010041020200CDE4010098
:1007D0007C29002003000000F8070200001F002011
:1007E000D401000014B2010088080200D4200020C7
:1007F000CC1000009EB4010021D6FFFF121801109A
:100800000C05010902A10185010901A1100C950542
:10081000750105091901290515180F250181029592
:1008200001750381017508950126180C381581257D
:100830007F8106050C0A38192E8106C08502341DF9
:10084000750C95021E180A3009311601F826FF07AB
:10085000191CC0050C1A2C01850346180B7501954F
:100860000109CD81060A83341B09B5041AB6041A9E
:10087000EA041AE9151B2502051A24050221C09372
:0808800024F403FFFFFFB100A7
:040000050001B0C185
:00000001FF
