:020000021000EC
:10B000000080002025EA010065EA010067EA0100EE
:10B010000000000000000000000000000000000030
:10B0200000000000000000000000000069EA0100CC
:10B0300000000000000000006BEA01006DEA010062
:10B0400051C101006FEA0100C1CE01006FEA0100A9
:10B050006FEA0100000000009DC501006FEA0100D9
:10B060006FEA01006FEA01006FEA01006FEA010078
:10B070006FEA01006FEA01006FEA01006FEA010068
:10B080006FEA0100A9B401006FEA01006FEA010054
:10B0900085B501006FEA010069EF01006FEA010068
:10B0A0006FEA01006FEA01000000000000000000EC
:10B0B0000000000000000000000000000000000090
:10B0C00010B5064C2378002B07D1054B002B02D07E
:10B0D000044800E000BF0123237010BD7820002049
:10B0E00000000000C8040200044B10B5002B03D080
:10B0F0000349044800E000BF10BDC0460000000046
:10B100007C200020C8040200402292029A1A924633
:10B110007047C046174B002B00D1134B9D46FFF7DD
:10B12000F3FF00218B460F461348144A121A00F011
:10B1300065F80E4B002B00D098470D4B002B00D02C
:10B1400098470020002104000D000D48002802D07F
:10B150000C4800E000BF00F02DF82000290002F0AC
:10B16000A1FC00F011F8C04600000800000000003B
:10B17000000000000080002078200020E027002050
:10B180000000000000000000084B10B50400002B78
:10B1900002D0002100E000BF054B1868836A002B35
:10B1A00000D09847200000F031F8C04600000000B1
:10B1B000B802020070B500260C4D0D4C641BA410A3
:10B1C000A64209D1002605F06BF80A4D0A4C641B13
:10B1D000A410A64205D170BDB300EB5898470136C4
:10B1E000EEE7B300EB5898470136F2E770200020F5
:10B1F000702000207020002074200020030082189E
:10B20000934200D1704719700133F9E7FEE7C04659
:10B21000F8B54546DE4657464E46E0B5234B19780D
:10B220009846002929D0224B002401259946214F18
:10B23000214E03E00134E4B28C421ED23A68E300AE
:10B24000D0188246D05C2A00824033681A42F1D07E
:10B250009343336001F098F953461A782B0049461E
:10B26000934009680B40010091408B420BD043464C
:10B2700001341978E4B28C42E0D3F0BCBB46B2464C
:10B28000A946A046F8BD53465B689B46002BEED00E
:10B290005146497801390B0059425941091A48422F
:10B2A00041411000C9B2D847E1E7C04694200020D0
:10B2B000BC200020C4200020C0200020F8B5124E81
:10B2C0000400300000F0F0FC002807D10125A54063
:10B2D0000E4F3B681D4202D0AB433B60F8BD2000DF
:10B2E00001F052F90A4A136800280BD1AB431360EE
:10B2F0003B6800221D43074B300019683D6000F099
:10B3000073FCEBE72B43F2E79C200020C0200020D9
:10B31000BC20002098200020F0B5CE46474680B5DE
:10B3200006000D00140083B0042A36D901F006F897
:10B3300000282DD01D4B1E4A1E601E4B1D701E4B3B
:10B340001C60002313601D4A6C1E1360E4B2002DC4
:10B3500025D01B4BE4009946032300279846341957
:10B3600001AD04E02300083BA64218D01C00434670
:10B370002B70A3784A46290020786F806B7000F00C
:10B38000E7FF0028EED003B0C0BCB946B046F0BD20
:10B3900000F0A0FF0028CDD0F5E70720F3E700215B
:10B3A000084A094800F00AFCEDE7C046C420002026
:10B3B000BC2000209420002098200020C0200020E5
:10B3C000BDB2010011B20100BC02020070B5094D0E
:10B3D0002B78002B0BD00024074E3268E300985CDA
:10B3E000012101F079F82B780134A342F5D800202F
:10B3F00070BDC04694200020C4200020002300B56A
:10B4000085B001AA9060002103481380536000F0CA
:10B4100005F805B000BDC04601400000BFF34F8FE6
:10B42000034B044ADA60BFF34F8FC046FDE7C046C6
:10B4300000ED00E00400FA0510B500290ED0002A46
:10B440000AD01400531E1C401A4205D184600160CA
:10B450008380C460002010BD0920FCE70E20FAE7BD
:10B46000030010B59C888068DA68121A04209442A0
:10B4700007D30020DA6814401A681155DA680132DF
:10B48000DA6010BD8268C3689A420AD083688288F5
:10B4900013400268D35C0B70836801338360002023
:10B4A00070470520FCE7C046A021F0B50023C64642
:10B4B0002B4A490000B553500431535004315350C6
:10B4C000043153504C39535004315350254B1B68B1
:10B4D000002B36D0244900255458244A00271268EE
:10B4E000234EA41A2402240A03E04346002B19D059
:10B4F00043461A68A24215D8A41AAD18DA699046D4
:10B500001A7C002AF1D05A6999691F743368002B9C
:10B510001AD0100098470028E7D0FFF76FFF434686
:10B52000002BE5D11349144A0B7812789A420ED0B9
:10B53000124A9B009D5080218023114A5B004903E1
:10B54000D15080BCB846F0BD08009047CDE701322D
:10B55000D3B2022B01D00B70EAE700230B70E7E7B0
:10B5600000100140E820002004050000E420002035
:10B57000C8200020E1200020E0200020D82000206A
:10B5800000E100E0F0B5DE4657464E464546E0B5E0
:10B59000C44BC54A9B46C5491B688DB005930978C5
:10B5A0001378994200D16DE10133DBB2022B00D157
:10B5B00066E11370BE4A9B009D585A460126059BC2
:10B5C0005B191B021B0A00931360BA4B9A46197849
:10B5D000B94B1B68019353465B780293994200D1A3
:10B5E0003AE253465B680098039353469B780B906E
:10B5F00000200693B14B00271A78844607920A92DE
:10B600000A000893019B049050008018C0008146F6
:10B61000039C0132A046069CD2B2141B601E8441DA
:10B62000484664422240039CC844205C022800D162
:10B63000EEE0032808D1002B06D060461874DB69C1
:10B64000002BFAD10120049002988242DCD1002F15
:10B6500000D06AE1049A002A08D0974A1360019A40
:10B660000193D01A421E9041C2B204920024002ECF
:10B6700000D00CE10023A4469846059363460027BA
:10B680000198002B2DD06346DD695C68AC469A6852
:10B69000009D8B4E651B2D022D0AB54251D8012409
:10B6A000AA181A605F609F601C74DF61002857D081
:10B6B00004680500944205D360E02E68964200D3EA
:10B6C000C6E03400A946ED690992121B002DF4D1A1
:10B6D0001A604A46DD61D361030018006346002BFF
:10B6E000D1D1029B994200D11AE14B005B18069A16
:10B6F0000131C9B28A1A541EA241039EDB00F5181B
:10B70000F35C52421140012B3FD16B681E7C002E2E
:10B710003BD1AC68B1465C60EA689A602E69DE6035
:10B720006D699D6101250595079D002DB0D04C46A2
:10B730000595009D624E651B2D025C602D0AB54289
:10B74000ADD9009D2C1B2402240A94420CD2121B5A
:10B7500001241A605F609F601C74DF610028A7D11C
:10B76000012218009046B9E701221F605F609F60C8
:10B770001A74DF610028F3D000220468A21A026064
:10B780000122D86190461800A8E7029B9942ACD1EB
:10B79000534619704346002B00D1BBE0464B18605E
:10B7A000019B984202D1049B002B27D0002800D196
:10B7B0001EE1444A03684448444C8158009A257865
:10B7C0008A1A1202120A0332002D00D1B6E0934207
:10B7D00054D3009AA824944663443B481B021B0A96
:10B7E000384DE400035142595B1A521A1202120AF0
:10B7F0001B0203321B0A9A4200D9C5E00023089AB3
:10B8000013700DB0F0BCBB46B246A946A046F0BDD1
:10B81000404640688146002B00D115E7834200D1A5
:10B82000DFE018000400C069002800D10CE7814562
:10B83000F8D10994A14515D00468C069A046099CB7
:10B84000E061002800D1FFE6046844440460FBE6A0
:10B85000A619099C361B2E601A604A46DD61D36129
:10B8600003003AE7DB69002B00D1A7E048460068F7
:10B870000124804648460494C069E5E71300A8E720
:10B88000002396E6059B0025002600939DE6019B7C
:10B89000002B00D1EDE0002700220020B8468946A9
:10B8A0002BE0C046E4200020E0200020E120002022
:10B8B000D8200020CC200020E8200020D420002028
:10B8C000FEFF7F000405000000100140D52000208D
:10B8D0004246D968ED1BC0191A60DF69002907D0FC
:10B8E000DC611C00059A996012181202120A5A6053
:10B8F000002F00D16EE032003B001F68AF42E7D955
:10B900004946002A02D05C4A019313607D1B1D60EA
:10B910000496AFE6049B0198002B00D16EE745E743
:10B92000059B002B00D033E734E75C4608980A9A61
:10B9300002700B980792206000908BE68025D1263C
:10B940006D02B6008551403E8551C02780264B4D83
:10B95000B6027F00EE512E60012505604848494F30
:10B9600006682F20C046C046C046C046C046C046F6
:10B97000C046C046BE4200D0C0460138F2D1257054
:10B98000934200D325E779E743593E4903513C4BA5
:10B990001A682F23C046C046C046C046C046C046AF
:10B9A000C046C0468A4200D0C046013BF2D1802347
:10B9B0008021324A5B008902D1501FE70124324BBB
:10B9C00001279C60002401230B94013404930A9402
:10B9D000002331E7284B49461F600023049601935A
:10B9E00048E6DB690990002BE8D00124049423E7A2
:10B9F00080218023214A8902D1508023D221012530
:10BA0000214A5B0289005350403953501C4B55600A
:10BA100019682F231B4C1E00C046C046C046C046B6
:10BA2000C046C046C046C046A14200D0C046013E06
:10BA3000F2D195605A461060C046C046C046C04626
:10BA4000C046C046C046C046A14200D0C046013BE9
:10BA5000F2D10E4B1870D1E653465B680393534600
:10BA60009B7806930A4B08931B7807930023049353
:10BA7000FCE51C000496FDE5E820002000E100E064
:10BA80006C2000200024F40000100140D52000208C
:10BA9000D4200020F0B5DE4657464E4645460324E6
:10BAA000E0B5070020009B461040224200D068E02D
:10BAB000002A00D165E080268025334CB60266510D
:10BAC000D2238026314D76029B00EE50403BEE5053
:10BAD00001232F4E6B60994633682F269C462D4BD1
:10BAE00098463300C046C046C046C046C046C04621
:10BAF000C046C046C44500D0C046013BF2D14B46CB
:10BB0000AB60C046C046C046C046C046C046C04600
:10BB1000C046C44500D0C046013EF2D15B461E4E31
:10BB200030701E4E336000261D4B188099705A608D
:10BB30001C4B802218601C4BC5211E701B4B5203EE
:10BB40001E70C023FF265B00E25089006358B34398
:10BB50003F3E33436350A123DB0022600439EF50A2
:10BB60006358134A1A40C0231B0213436350114BFE
:10BB7000EA58114B1A60F0BCBB46B246A946A04633
:10BB8000F0BD0720F7E7C04600E100E000100140EB
:10BB90006C2000200024F400D5200020C8200020C4
:10BBA000CC200020E8200020E0200020E120002020
:10BBB000FF00FFFF04050000E4200020094B5B6844
:10BBC000002B0AD0002A0AD0002808D00368187C6D
:10BBD000002802D159745A6170470820FCE70720F9
:10BBE000FAE7C046CC200020F0B5C64600B52A4D85
:10BBF00004006B680E00170082B0002B40D00028B4
:10BC00003ED0042940D94369002B39D0437C012B15
:10BC100038D0002398466A460023D01DD37100F027
:10BC200093F96978A8784A1CD2B2801A431E9841C9
:10BC30002B7840420240934228D04B005B18696841
:10BC4000DB008C466344002B20D00121134819707F
:10BC500013495C604158DE60996041465F6119613B
:10BC60006B46D8796A7000F08FF98023802100201C
:10BC70000C4A5B004903D15002B080BCB846F0BD0D
:10BC80000820F9E78846C6E70720F5E76B46D8792C
:10BC900000F07AF90420EFE7CC20002000100140EA
:10BCA0000405000000E100E030B51F4D04006B68A2
:10BCB00083B0002B30D000282ED04369002B2BD02E
:10BCC00000236A460374D01DD37100F03DF96978F2
:10BCD000AB784A1CD2B29B1A581E83415B421A4071
:10BCE0002B7893421AD04B005B186968DB008C46B6
:10BCF0006344002B12D002215C6019706B46D87926
:10BD00006A7000F041F9802380210020074A5B001F
:10BD10004903D15003B030BD0820FBE76B46D8790A
:10BD200000F032F90420F5E7CC20002000E100E02B
:10BD300030B5047885B0012C05D0022C2ED0002C13
:10BD40001DD005B030BD4368264D19782800FFF797
:10BD500087FB002831D1AA68EB689A4205D002AB74
:10BD60001870214B02A81B689847A968AA88EB683D
:10BD70005B1A9A422FD201221C4B1A70E1E71C4C2D
:10BD80001C482100FFF77EFB00281ED0032302AAD7
:10BD90001370154B10001B689847D2E702AB1C705C
:10BDA000C3680122144915480193039300F08CFFE6
:10BDB0000D4B02A81B689847C3E702AB1C700A4BE7
:10BDC00003901B6802A89847CFE7012221000B4887
:10BDD00000F0ECFEB5E701220749084800F074FFC7
:10BDE000AFE7C046F0200020EC200020002100201A
:10BDF0001821002004210020142100204C200020C4
:10BE0000F0B51E00264B05000C0089B01A60002911
:10BE100043D08A8823480968FFF70EFB002801D029
:10BE200009B0F0BDA289A1681F48FFF705FB0028F3
:10BE3000F6D169460B001D4A91CA91C391CA91C3BC
:10BE400011CA11C36B698B612B7C0E775A1E93410B
:10BE50000B756B7C5A1E93410E225B4213404B754F
:10BE60006B6800932B680193EB680293AB680393B4
:10BE70000F4C104A200000F0F3FD0028D0D10E4BEB
:10BE800018702B680133CBD0200000F0FBFF01229B
:10BE900020000A4900F018FFC2E70720C0E7C046AB
:10BEA000EC200020F020002004210020C00202002D
:10BEB0004C20002031BD0100002100201421002071
:10BEC00070B50B4D01000B482E78FFF7DBFA04002C
:10BED000002E01D1200070BD002301220649074831
:10BEE0002B7000F0F1FE0028F4D0FFF787FAF1E79D
:10BEF00000210020F0200020142100204C200020F0
:10BF0000F8B50E4D01002800FFF7AAFA041E01D073
:10BF10002000F8BD0A4E300000F0C8FE0028F7D11E
:10BF2000084F28003900FFF7ADFA0028F0D10122B0
:10BF30003900300000F03AFE0400E9E70421002057
:10BF40004C20002018210020F0B5EFF3108172B6CC
:10BF50000A4B5A68002A0DD101248025084E5C60E6
:10BF60007459084F3C401C6077510270002900D181
:10BF700062B6F0BD01230370F8E7C046C827002071
:10BF800000E100E0FC06FFBC10B5084B5A68002A2F
:10BF90000BD0002809D1EFF3108272B604491C6857
:10BFA0000C605860002A00D162B610BDC82700207E
:10BFB00000E100E0002804D0034B5B6E036000202A
:10BFC00070470320FCE7C0461C21002070B5161EF8
:10BFD00007DD0C008D1820780134FFF791FFAC428B
:10BFE000F9D1300070BDC04610B50C002000FFF73D
:10BFF00067FF0528FAD0012010BDC046A022044BDF
:10C00000D205D358034A125C0120D34098437047AD
:10C0100004050000E4020200044BA0211A5C012385
:10C020009340034AC9058B507047C046E4020200A2
:10C030000C050000044BA0211A5C01239340A122AF
:10C04000C905D2008B507047E4020200A022A12350
:10C050008021D205DB008903D1508021C903D15052
:10C0600080210904D15080214904D1507047C04635
:10C07000A0228021064BD2058903D1508021C9031B
:10C08000D15080210904D15080214904D1507047FA
:10C090000C050000A02210B5074BD205D158074B64
:10C0A000185C012383401C00A1208C430B400449F1
:10C0B000C0001450535010BD04050000E4020200FB
:10C0C0000C050000A02303220B49DB055A50043164
:10C0D0005A500A495A5004315A50A1228021D200A4
:10C0E000890399508021C9039950802109049950EE
:10C0F0008021490499507047540700005C070000F4
:10C10000A022A223D205DB00D358034A125C0120EF
:10C11000D34098437047C046E002020011280BD07C
:10C1200012280BD013280BD0143843425841042353
:10C1300040421840013870470020FCE70120FAE730
:10C140000220F8E7014B185C7047C046E00202008D
:10C1500010B51A4B1A68002A14D0002280211A60E8
:10C16000C2220123164CC90592008B506370A3684C
:10C17000002B07D01A6800205B68A2609847A3686C
:10C18000002BF7D10F4B1A68002A15D000221A6035
:10C190008022C22302219B00D205D1500123084CEA
:10C1A000A3702369002B07D01A6801205B68226105
:10C1B00098472369002BF7D110BDC046000100400D
:10C1C000842100200401004010B500280BD1064C4A
:10C1D000A368002B07D01A6800205B68A26098470C
:10C1E000A368002BF7D110BD8421002010B582B0C8
:10C1F0006A460023D01DD371FFF7A6FE144C2378A6
:10C20000002B0AD0E3680133E3600123A3706B467F
:10C21000D879FFF7B9FE02B010BD6360A360236157
:10C22000E3600C4B1B68DB070CD502F03FFE0028D7
:10C2300005D18022A3230121D205DB00D1500123A7
:10C240002370DFE70321002000F006F8EDE7C04689
:10C250008421002000E100E0F0B500281EDB1B4B2C
:10C2600084089C460323C2B21840FC331F00C0263A
:10C27000C000890187400B408340A4006444B6009D
:10C28000A559BD432B43A3511F23C0211A401E3B78
:10C2900093400E4A490053501360F0BD0C4C0325E7
:10C2A000A4460F23FF240340C2B228402500C0004B
:10C2B000890185400C408440083B9B089B006344F7
:10C2C000DE69AE433443DC61DEE7C04600E100E0F6
:10C2D00000ED00E070B54425154C665D002E25D1BB
:10C2E000012301204042C1175B422060616020624F
:10C2F0006162A062E16220636163A063E163236421
:10C3000003210730A360E36023616361A361E361FC
:10C31000FFF7A2FF074B80211E60C123064A9B0046
:10C320000906D15001230020635570BD0820FCE7A9
:10C33000982100207C610040006000404423034AB3
:10C34000D05C431E9841C0B27047C046982100207F
:10C35000F0B5CE46474680B55C4C03002518203525
:10C360002E78914608207F2E39D9CE78002E3AD1EA
:10C370002269013200D1A0E06269013200D196E069
:10C38000082206209446850067597A1C37D0471C3E
:10C39000674500D381E0BD006259013200D17EE0E3
:10C3A000871C674500D378E0BD006259013200D197
:10C3B00075E0C71C674500D36FE0BD0062590132CC
:10C3C0006DD0071D674568D2BD006259013266D045
:10C3D0000530604561D2E269042001320DD0C0BC55
:10C3E000B946B046F0BD226801325AD062680132C7
:10C3F00069D0042202209446C5E71C250330E218C8
:10C40000944620229046C444624647B217704A467A
:10C410006251002E02D120183C3003708A78002A25
:10C4200026D0A020C0058446E02502269A0062445A
:10C43000ED005059B0435051CA78002A24D00A78F0
:10C440002349BC008C46A2216444C9006058214D98
:10C450001B022840F8256D012B40C02560501204B6
:10C46000AD0260582A401343034363500020B6E7EF
:10C470001A00A0254878C132FF3292008000ED05F5
:10C480005051CA78002ADAD1E4190B783C3422786A
:10C490009B01134300202370A1E704209FE738008D
:10C4A000ADE700204A46002728702260B6E7052045
:10C4B0004A46052728706261ADE704204A46070016
:10C4C00028702261A7E70120042598E79821002021
:10C4D00000600040FFE0FCFF0023F0B5274C22186D
:10C4E0002032D356032B1DDDE3183C331B789B0908
:10C4F000032B38D0013B5A425341C022920294464A
:10C500005B421B046344A022D2059446E0228000D3
:10C510006044D20081581A4C2140815081580B430D
:10C520008350F0BDD8B20328FBD8164DA227AC46E5
:10C53000012698006044FF00C5593543C5511800D5
:10C54000654600274030800080B247510029E8D07E
:10C55000127852B292001259002AE2D09E40C123B2
:10C560009B00EE50DDE7A022A223D205DB00D258CB
:10C570000123C240134002331B04C4E7982100206A
:10C58000FFFFFCFF00600040A022A223D205DB00D9
:10C59000D358C340012018407047C046F0B54E46FE
:10C5A000DE46574645460021E0B5C84A87B00391AC
:10C5B00013680026012B00D17DE1C54B1A68012AC2
:10C5C00000D16CE1C34B1A68012A00D15BE1C24B78
:10C5D0001A68012A0DD0C14B1A68012A00D183E1E3
:10C5E000002E1ED107B0F0BCBB46B246A946A046FD
:10C5F000F0BDC122BA499200895808220A42EAD005
:10C6000000211960B54B16431A68012A09D1196037
:10C61000A022A223D205DB00D358039380231B065C
:10C620001E43B04BA22798460323012500249946B8
:10C63000FF0035420ED0AA4AA3009A18D059D1590A
:10C640004246D358002B05D04A46090CC00411407D
:10C65000C00E984701346D00042CEAD1002EC1DAD7
:10C660000023C026072504939E4C013B05934023DD
:10C67000E1564B1C3ED0C9B20800B043C3089C46EB
:10C680002A00012367460A40934005AAD25D13425F
:10C6900030D08A09934622182032127852B2920082
:10C6A000A2589146002A00D197E15A46032A00D1A8
:10C6B00097E1A027FF05B84682009044E022474654
:10C6C000D200BA5803AF9203910F6246BA5C13428C
:10C6D0000DD002290ED15B46032B00D1B5E100231A
:10C6E00098464B46002B07D05946C84704E003291B
:10C6F00000D18BE1002398464123E1564B1C38D0F2
:10C70000C9B20800B043C3089C462A00012367460B
:10C710000A40934005AAD25D13422AD02218203243
:10C720001278890952B29200A25801919146002ACA
:10C7300000D15FE1032900D15FE1A027FF05BA46E0
:10C7400082009244E0225746D200BA5803AF9203C7
:10C75000910F6246BA5C134200D10AE1022908D166
:10C76000019B032B00D168E14B46002B01D00199BE
:10C77000C8474223E1564B1C38D0C9B20800B04329
:10C78000C3089C462A00012367460A40934005AA35
:10C79000D25D13422AD0221820321278890952B26F
:10C7A0009200A25801919146002A00D109E1032983
:10C7B00000D109E1A027FF05BA4682009244E02299
:10C7C0005746D200BA5803AF9203910F6246BA5C43
:10C7D000134200D1B1E0022908D1019B032B00D103
:10C7E0002FE14B46002B01D00199C8474323E15666
:10C7F0004B1C37D0C9B20800B043C3089C462A007E
:10C80000012367460A40934005AAD25D134229D00E
:10C81000221820321278890952B29200A25801914E
:10C820009146002A00D1C0E0032900D1C0E0A02732
:10C83000FF05BA4682009244E0225746D200BA5819
:10C8400003AF9203910F6246BA5C134258D002299B
:10C8500008D1019B032B00D1FBE04B46002B01D0FC
:10C860000199C8474346002B00D1BBE6A022A22372
:10C87000D205DB00D358039A9A4200D1B2E6039363
:10C88000049B0593F3E6C1221549920089580422BE
:10C890000A4200D19BE600211643196097E6C122A7
:10C8A0000F499200895802220A4200D18AE60021EB
:10C8B0001643196086E6C1201E00094C80002058EE
:10C8C0000640034200D178E6116076E60061004040
:10C8D00004610040086100400C6100407C61004040
:10C8E000006000409821002000221A60A022A223AC
:10C8F000D205DB00D3580393002E00D1B0E68DE6BD
:10C900000329AFD1019B032BA7D180239B029C4617
:10C91000E0235246DB00D25850490A405146CA50E3
:10C92000CA5861460A435146CA504B46002B9DD017
:10C9300043460133DBB2984692E7032900D055E71E
:10C94000019B032B00D04CE780239B029C46E023F5
:10C950005246DB00D25841490A405146CA50CA5893
:10C9600061460A435146CA5043460133DBB29846FA
:10C9700037E7032900D0FCE6019B032B00D0F3E648
:10C9800080239B029C46E0235246DB00D258334969
:10C990000A405146CA50CA5861460A435146CA50D5
:10C9A00043460133DBB29846DEE6032900D059E75F
:10C9B000674604AAD75D1F43BA4667465146D1551C
:10C9C00035E7032900D011E7674604AAD75D1F4366
:10C9D000BA4667465146D155ECE65A46032A00D07E
:10C9E00088E6674604AAD75D1F43B84667464146B6
:10C9F000D1555EE6032900D0BBE6674604AAD75DA1
:10CA00001F43BA4667465146D15596E65B46032B0F
:10CA100000D064E680239B029C46E0234246DB0074
:10CA2000D2580E490A404146CA50CA5861460A4384
:10CA30004146CA500123984653E6C0239B029C46B8
:10CA4000A1E7C0239B029C4681E7C0239B029C4632
:10CA5000E3E7C0239B029C465AE7C046FFFFFCFF6A
:10CA6000F8B5CE46474680B507794A4DFE00F31B20
:10CA70009B00EB18DB7E04009146002B00D087E082
:10CA80000B685A1C0DD001209840A1220300A02061
:10CA9000D200C005835003220B68C133FF339B00D3
:10CAA0001A504B685A1C06D0A0200022C133FF3315
:10CAB0009B00C0051A5020688A69374BC250087D18
:10CAC0004B7D22680343354813500A682368944617
:10CAD00033484A681A50624632481A500B7D012B7F
:10CAE0002FD04A46F31B9B00E81842600A69EA50BF
:10CAF0004B46002B12D08E22002320685200097F63
:10CB00008350206828328350C1232068264A9B0026
:10CB1000C2502368180B40B2FFF79EFBA0230421EC
:10CB20002268DB00D15000230020F61BB600AD19AF
:10CB30002B76EB820133FF336B83C0BCB946B04622
:10CB4000F8BD8B685A1C06D0A0200022C133FF33E9
:10CB50009B00C0051A50CB685A1C0ED0012098408B
:10CB6000A1220300A020D200C00583500322CB687D
:10CB7000C133FF339B001A50CB688A682068944603
:10CB8000A122D2008350A2236246DB00C250A8E754
:10CB90000820D2E7E0210020240500006C050000F9
:10CBA000140500000C05000080000200F0B54546A9
:10CBB000DE4657464E46E0B504000079394DC300C5
:10CBC0001B1A9B00EB18987D002828D199608E21B4
:10CBD0009A75012298822368490026795850236863
:10CBE0009A60236858509C46F3009B469B1B9B0011
:10CBF000EB189A686746904640469A8A805C9A8A03
:10CC0000013292B29A82284AB8505A680020002A0B
:10CC100007D0F0BCBB46B246A946A046F0BD1120E5
:10CC2000F7E79A7D894694460130FF3019009A8AC9
:10CC3000143162451ED2226802E0998A814203D0F3
:10CC4000494651580029F8D0998A8142EED00021F6
:10CC50004F46D1514746998A795C8A465746998A08
:10CC6000013189B299821049575019009A8A1431BA
:10CC70006245E0D380230A885B009A420FD08E2160
:10CC8000226849005358002BFCD001230020D360B8
:10CC90005B469E1B0023B600AD19AB75B9E70F20AC
:10CCA000F6E7C046E02100201C0500000279D30011
:10CCB0009B1A044A9B00D318987D431E9841C0B22A
:10CCC0007047C046E0210020F0B5454657464E4625
:10CCD000DE4690466A4AE0B5944606790300F000C5
:10CCE000851BAD0065446F6883B0002F07D0812499
:10CCF000A400A446C22562461C68AD006251604A89
:10CD0000801B944680006044C57D002D20D0057EA8
:10CD1000002D00D0A4E04246016102761D79EA00B0
:10CD20009046574942468C46521B920062445168D5
:10CD3000002929D01A688121C12300209B00890085
:10CD4000D15003B0F0BCBB46B246A946A046F0BDE8
:10CD50004246C1604A49C2758C46457605761D79C2
:10CD6000EA009046521B92006244927E002AD8D17B
:10CD7000922118684900425018681C3942501A68BC
:10CD80000839FF391160CCE7A2201C68400021500F
:10CD9000922401902E38FF388246842710006400C8
:10CDA000A34619687F00924419305C460C59A1468D
:10CDB000CC59A446019C0E596446002C1CD1002E6F
:10CDC00043D02F4942468C460021521B92006244B8
:10CDD000D1754A46002A41D10F20002EB1D14246DA
:10CDE000551B274AAD005419A27E1B68002A41D06A
:10CDF000012200201A60A4E74C463443A446E0D147
:10CE000054462678002E12D06446CC51A324E40068
:10CE100006780959D468A155544601780131C9B240
:10CE20000170017826788E4206D91968BDE7A320E3
:10CE3000CE51C0000958527E114942468C4600210D
:10CE4000521B92006244D175C9E74C46002CACD00D
:10CE500043465D1B0A4BAD005C19E675032070E785
:10CE6000002F0BD01A688121C12389009B0011205B
:10CE7000D15066E7012200205A6062E7112060E786
:10CE8000E021002010B501790C4ACB005B1A9B0011
:10CE9000D3189B7E002B10D1922104684900635067
:10CEA00004681C39635003680839FF391960007938
:10CEB000C3001B1A9B00D218917610BDE021002000
:10CEC000C12330B55E4A9B00D35885B09B0559D528
:10CED00092235B00D158002954D00021D1508121E8
:10CEE000E533FF338900D150564B997E002901D19B
:10CEF00001315160022269460A7090215048C900F0
:10CF00004258425069460392DA7D68460A72DA68EE
:10CF100001920022DA751A760ACB98478E21484A88
:10CF200049005358002B0FD0464B9C8A9D7DAC4244
:10CF300062D200205050998A9868405C998A0131E9
:10CF400089B29982404BD050A2233D4A5B00D15810
:10CF5000002915D00021D1503A4B997E002901D0EB
:10CF600001211160DA7D002A0AD0002268460121E1
:10CF7000DA755A7E01700272DA680ACB019298471C
:10CF800005B030BDC1232E4A9B00D3585B07C5D5E1
:10CF9000842149005358002BC0D02A4BD87D00284B
:10CFA00038D000205050A320C000597E1258D868B5
:10CFB00042545A7ED87D0132D2B25A765A7E82428B
:10CFC000ACD11A7E002A2AD19A7E002A02D10121F0
:10CFD0001B4A5160C222812019499200800088506A
:10CFE000002268460121DA755A7E01700272DA6801
:10CFF0000ACB0192984791E700205050002DA3D012
:10D000006A46107015729A689875019268460ACB44
:10D01000984799E75050A321C9005258CEE7DA75D6
:10D020001A69D968DA6000226C46587E1A765A76F8
:10D0300001322072019168460ACB227098476DE751
:10D0400000200040E02100201C05000010B5022057
:10D05000FFF720F810BDC046F8B5CE46474680B56C
:10D0600006000D00FFF75AF80400032805D8012D2B
:10D0700014D0022D2AD0002D03D0C0BCB946B04632
:10D08000F8BD1D48FEF710FE1C4B620012199B18DC
:10D090009D781B4B1B5DAB42EFD10EE0174F430059
:10D0A00098461B18FD5CFB185B78002B14D1434697
:10D0B0001B19FF18BA78124B1A55002DDDD0114BF1
:10D0C0001B68002BD9D028009847D6E740000019EC
:10D0D0000A4C24186578F0E70B4B074899460B4B30
:10D0E0004A461B689900C9184900FEF77DFD0028D3
:10D0F000DDD14B461E70DAE72422002044220020B6
:10D100008022002078220020FC2100202022002004
:10D1100070B5774B1B68DB0700D470BD754E764D3C
:10D1200033782C78002B05D1172CF6D8734AA3003E
:10D13000D3589F4600233370FEF788FFF4E7704D05
:10D140002800FEF7B1FD11231A1BA34200D1B1E064
:10D15000002800D0AEE0012A0BD0C8306421504333
:10D1600001F040FF674B0022196841432800FEF799
:10D170003BFD0220FEF750FFCFE701230120337073
:10D18000FEF788FF5F4B002219685F48FEF72CFD11
:10D19000C3E7012301203370FEF77CFF594B0022C7
:10D1A0001B6859489900C918FEF71EFDB5E7FEF740
:10D1B0005FFF2C70B1E70020FEF720FF002800D1B0
:10D1C0008BE00020FEF736FFA11E4B42594115238C
:10D1D0004942994328314B4B00221B684A48594326
:10D1E0002C70FEF701FD98E70020FEF707FF0028EE
:10D1F00064D00020FEF71EFF0822032321E0002058
:10D20000FEF7FCFE002864D00020FEF713FF052384
:10D210002B703C4B002219683B484900FEF7E4FCA8
:10D220007BE70020FEF736FF06232B70AAE70020DD
:10D23000FEF7E4FE002847D00020FEF7FBFE282280
:10D2400004232B702F4B3048196851430022FEF7FE
:10D25000CBFC62E7FEF7FAFE12232B705DE7FEF7C8
:10D26000F5FE0020FEF7D8FE0120FEF7D5FE1523BF
:10D270002B7052E70020FEF7CFFE07232B704CE700
:10D28000FEF7F6FE0C232B7047E7FEF7DFFE0023C8
:10D290002B7042E7FEF7DAFE0020FEF7BDFE1323F7
:10D2A0002B703AE7FEF7D2FE0120FEF7B5FE1423FD
:10D2B0002B7032E70220FEF7BDFE2EE70020FEF7BE
:10D2C000ABFE02220323BCE70020FEF7A5FE0422EA
:10D2D000B6E70020FEF7A0FE99E70020FEF79CFECF
:10D2E000A11E4B425941012349429943043172E73F
:10D2F00050220020542200207C220020E80202005C
:10D3000000220020202200205822002010B50078A2
:10D31000FEF704FF03280BD843001B180548C0186C
:10D320004078002804D0044B1B68002B00D098479D
:10D3300010BDC046442200207822002010B5FEF720
:10D34000DFFE10BD70B5884A012312680500140085
:10D350001C401A4201D1200070BD844C2378002B60
:10D3600006D1172D00D9FCE0814AAB00D3589F4667
:10D3700000232370FEF76AFEF3E77E4E3000FEF7CF
:10D3800093FC11230400581BAB4200D1CCE0002CCD
:10D3900000D0C9E001280CD0B7336421584301F014
:10D3A00021FE754B0022196841433000FEF71CFC3A
:10D3B00004000220FEF730FECDE701230120237098
:10D3C000FEF768FE6C4B002219686C48FEF70CFCF7
:10D3D0000400C0E7012301202370FEF75BFE664BCB
:10D3E00000221B6865489900C918FEF7FDFB040080
:10D3F000B1E7FEF73DFE624B00241D70ABE7002055
:10D40000FEF7FCFD002800D19BE00020FEF712FE95
:10D41000A91E4B4259411523494299432831584B83
:10D4200000221D70544B55481B685943FEF7DCFB26
:10D43000040090E70020FEF7E1FD002878D00020EE
:10D44000FEF7F8FD05224E4B4C481A704A4B00225D
:10D4500019684900FEF7C8FB04007CE7FEF708FEE8
:10D460000C22474B00241A7075E70020FEF7C6FD1A
:10D47000002861D00020FEF7DDFD08200322404B8C
:10D480001A703D4B0022196841433C48FEF7ACFB43
:10D49000040060E7FEF7DAFD0022394B00241A7021
:10D4A00059E7FEF7D3FD1222354B00241A7052E7DC
:10D4B000FEF7CCFD0020FEF7AFFD1322304B002419
:10D4C0001A7048E7FEF7C2FD0120FEF7A5FD142201
:10D4D0002B4B00241A703EE7FEF7B8FD0020FEF744
:10D4E0009BFD0120FEF798FD1522254B00241A70A4
:10D4F00031E70020FEF7CEFD0622214B1A7061E7CE
:10D500000020FEF789FD07221D4B00241A7022E738
:10D510000020FEF773FD00281ED00020FEF78AFDD4
:10D5200028200422164BABE70220FEF783FD12E70A
:10D530000020FEF771FD85E70020FEF76DFD02205B
:10D540009CE70020FEF768FDA91E4B4259410123CC
:10D5500049429943043162E70020FEF75DFD042053
:10D56000DFE70024F7E6C0465022002054220020C6
:10D570004803020000220020202200205822002020
:10D580007C220020214B70B51960214B05001860EA
:10D59000204B1A60830713D50E221F4B1F481A70A9
:10D5A0000132DA7001329A7101325A724A0804214A
:10D5B000FDF7B2FE041E16D0EB0723D4200070BD89
:10D5C000C3070DD40021164A1648FEF7F7FA041EC9
:10D5D000F4D10121144A1548FEF7F0FA0400EDE7F2
:10D5E000FEF770FDEEE7FDF7F1FE041EE4D1002129
:10D5F0000F4A1048FEF7E2FA0400EB0702D4002CB1
:10D60000DCD1DFE7FEF75EFDF9E7C046202200200F
:10D61000502200207822002044220020A80302008B
:10D6200011D10100D00302004DD00100C803020057
:10D630000DD30100CC030200032807D8012A07D02C
:10D6400001290BD0022916D000290DD007207047E0
:10D6500000220129F6D102000E32D2B2430018187E
:10D66000084BC2540020F2E743001B180548C018BD
:10D6700082700020EBE743001B180248C01842707C
:10D680000020E4E74422002010B5FEF75BFDA02354
:10D69000DB059C46E02380006044DB00C25805495E
:10D6A0000A40C250C022C15892020A43C250002010
:10D6B00010BDC046FFFFFCFF10B50020FFF7E4FFE0
:10D6C000002802D0062800D010BD0120FFF7DCFFA3
:10D6D0000028F9D0831F5A1E93415B421840F3E79C
:10D6E00010B50388102B08D0112B05D1294A1368D7
:10D6F000013B1360002B07D010BD264C2368002B84
:10D7000024D001332360F7E7012202210020FFF734
:10D7100093FF002807D0072805D01F4B1B68002B5C
:10D72000EAD09847E8E7072202210120FFF784FFAB
:10D73000002801D00728F0D10A2200210020FFF79D
:10D740007BFF0028D8D00728E7D1D5E701220021A8
:10D750000020FFF771FF002808D0072806D00E4BE5
:10D760001B68002B00D098472368CAE707220221D4
:10D770000120FFF761FF002801D00728EFD1042224
:10D7800002210020FFF758FF0028EDD00728E6D13E
:10D79000EAE7C04688220020842200201B4B10B5F7
:10D7A0000C1E186006D00120FFF7C8FD002823D00A
:10D7B00002232370164B1B68002B01D0002010BDE4
:10D7C000012202210020FFF737FF002801D007289F
:10D7D000F5D1072202210120FFF72EFF002801D0FA
:10D7E0000728ECD10A2200210020FFF725FF00289E
:10D7F000E4D00728E3D1E1E70020FFF79FFD0028F0
:10D8000002D00B232370D5E72070D3E784220020B9
:10D810008822002076DF70477ADF70477CDF704710
:10D820007FDF7047A8DF7047A9DF704767DF704769
:10D830003CDF704748DF704710B5FDF7DFFD10BDD6
:10D8400010B5040084B001F095F82100374801F0CC
:10D8500087F923883A2B27D022D8112B56D012D9FA
:10D86000132B08D1324B0022188885210023FFF7A3
:10D87000D7FF00281ED1200000F01EFF2000FFF778
:10D880002FFF04B010BD022B2FD0102BF3D1072097
:10D89000FFF758FD002843D1A288254B1A80EAE7FC
:10D8A000522B29D0552B08D11321A088FFF7B2FFA6
:10D8B0000028E0D0FDF7A2FDDDE7512BDBD1A379F5
:10D8C000002BD8D0A27B043A022AD4D8022B00D055
:10D8D00001236A461370C1235B0093806946A088C8
:10D8E000FFF7A0FF0028C6D0E4E70021A088FFF7DB
:10D8F0009DFF0028BFD0DDE70D4B002218880021D6
:10D900000023FFF791FF0028B5D0D3E70020FFF7F1
:10D9100019FD002807D10122054B52421A80AAE7BF
:10D92000FDF76CFDB8E7FDF769FDF4E7642300201F
:10D930005820002070B516000C000025002A08D0E1
:10D940002078FEF7DDFA0028FAD101350134B5421E
:10D95000F6D30D20FEF7D4FA0028FAD10A20FEF7FC
:10D96000CFFA0028FAD170BD10B50378002B00D093
:10D9700010BD054B3B211888FFF74CFF0028F7D05E
:10D98000FDF73CFDF4E7C0465820002010B50728FD
:10D9900004D00A2816D0042808D010BD134B1A88CA
:10D9A000134B9A42F9D100F0E7FE04E00F4B13212C
:10D9B0001888FFF72FFF082302009A43EDD0FDF7E8
:10D9C0001DFDEAE70020FFF7BDFC00280BD1FFF7A3
:10D9D00073FE002804D1FFF72BFF0028DDD0EEE70F
:10D9E000FDF70CFDF7E7FDF709FDF0E758200020F3
:10D9F000FFFF000070B50378012B04D0022B02D08A
:10DA0000002B04D070BD4068FDF7F8FCFAE7104C1D
:10DA1000104D20782818FEF753FA22780132D2B23E
:10DA2000AB18013B1B7822700A2B01D0132AE9D9CD
:10DA300092B22900084801F08DF9082302009A43A8
:10DA400002D100232370DDE7FDF7D8FCF9E7C046DB
:10DA5000602300204C2300206423002010B5002800
:10DA600007D0032804D10138FFF76CFC00280DD142
:10DA700010BD0020FFF766FC00280AD1FFF71CFE4E
:10DA800000280CD1FFF7D4FE0028F1D0FDF7B6FC3A
:10DA9000EEE7FDF7B3FCFFF70FFE0028F2D0FDF72D
:10DAA000ADFCEFE770B50023AAB0052100207C4A49
:10DAB000FDF7F0FF002800D0CAE07A4D1BAC230030
:10DAC0002A0043CA43C343CA43C3774B774A0C93E4
:10DAD00080235B000D930E920F932000744AFD3B50
:10DAE0000CA9FEF78DF9002800D0D5E00320714A7B
:10DAF0007149FFF747FD002800D0CAE0210000204F
:10DB0000FFF74CFE002800D0C0E0AB694822039329
:10DB10000C936A4900230CA801F0CEF9002800D02C
:10DB2000B1E022000121002001F036FA002800D0E7
:10DB3000A6E0200001F048FA002800D09DE06048EF
:10DB400001F008FA002800D094E0282111235D4D4F
:10DB500002AA52181370280001F0DEFB290082B2DD
:10DB60000CA8FFF75BFE002800D080E0082200210F
:10DB70002000FDF743FB544B20001B93C8235B049C
:10DB80001C93FFF749FE00286ED1002104222000DB
:10DB9000FDF734FB4D4B21004D481B9301F012F86B
:10DBA00000285ED13C2200210CA8FDF727FB28218C
:10DBB000022302AA52181370A02302AADB00538585
:10DBC00000213C222000FDF719FB012304AD238234
:10DBD000404B2022002128006361FDF70FFB012349
:10DBE0004022EB70B4230892099300232A0000938B
:10DBF0002100394B0CA800F065FC00282ED11C2216
:10DC000000212000FDF7FAFAA02292026260F022C1
:10DC100000231203A26003221B93E38123742F4B82
:10DC2000200063612E4B2273A36100F067FE002881
:10DC300011D12C4801F056FB032000F01BFD0028F9
:10DC400003D1FFF7F7FD0028FBD0FDF7D7FBF8E77E
:10DC5000FDF7D4FB31E7FDF7D1FBEAE7FDF7CEFB9B
:10DC6000CDE7FDF7CBFB9DE7FDF7C8FB8DE7FDF7A3
:10DC7000C5FB7BE7FDF7C2FB67E7FDF7BFFB5EE790
:10DC8000FDF7BCFB55E7FDF7B9FB4AE7FDF7B6FB2F
:10DC90003BE7FDF7B3FB31E7FDF7B0FB26E7C046F6
:10DCA0008C220020F003020080230020802400202A
:10DCB000F5D901008DD90100CD0C0000042300200E
:10DCC00041D80100D403020010003C0035D9010006
:10DCD00064230020542000205DDA010069D901008E
:10DCE00039D80100E003020071DF704772DF70472E
:10DCF00079DF70477DDF704765DF7047F0B55746C5
:10DD00004E464546DE46E0B587B0984612AB1B88C6
:10DD1000119F01933B888146039303888A460292B0
:10DD2000002B60D000239B4604AB0025DE1C04E0E2
:10DD30004B461B8801359D422FDA53461B68A900CC
:10DD40009C460422614405A801F0C2FA0022310079
:10DD500005A8FFF7D1FF041E2BD133784345E7D147
:10DD60005B46002B2DD043463A880199D3188B424D
:10DD70003BDC109B31009C4605A86244FFF7BCFFCA
:10DD8000002834D13A88337801359B183B80012331
:10DD90009B464B461B889D42CFDB5B46002B22D027
:10DDA0003B88039A013B9B1A9BB2FF2B1DD810990D
:10DDB0008B54200007B0F0BCBB46B246A946A04633
:10DDC000F0BD42463B8801999A1802328A420CDC27
:10DDD000109A029901339BB23B80D1543A880132A8
:10DDE00092B23A80C5E70024E3E70C24E1E704009F
:10DDF000DFE7C046F0B54E464546DE465746E0B53D
:10DE0000138814009946002313802D33C25C05004B
:10DE10000E00002387B0002A00D0FAE0AA78002A7A
:10DE200000D0EBE0EA78002A14D0D91C494500D98B
:10DE3000E7E00221F1542388013901339BB22380AA
:10DE4000F154238801339BB22380F2542388013399
:10DE50009BB223806A68002A15D0D91C494500D995
:10DE6000CFE002211278F1542388083101339BB2AC
:10DE70002380F154238852B201339BB22380F254A1
:10DE80002388013323802B89002B00D0EBE02B8AE1
:10DE9000002B00D026E12B8B002B00D045E12B6A14
:10DEA000002B41D02788BA1D4A4500D9A9E01A881D
:10DEB000052A00D8A1E1B249B248511889B280467A
:10DEC000814200D899E15988052900D895E1AC48EC
:10DED00084468C44604680B2404500D88DE1AA4813
:10DEE000824204D0814202D08A4200D985E10522D3
:10DEF0001221F2552288013292B22280B154228836
:10DF0000013292B222801988B2181170090A517038
:10DF10002288023292B222805988B2181170090AFE
:10DF200051702388023323806F6A002F2BD0BA8868
:10DF30002088911C831C5B184B4562D8FE2960D851
:10DF400003323254FF22238801339BB22380F254E0
:10DF5000238801339BB223803A88F3181A70120A7F
:10DF60005A702088023080B22080BA88002A0AD0F5
:10DF7000B968002900D140E1301801F0A9F92388DF
:10DF8000BA889B1823802C23EB5C002B00D0ECE09C
:10DF90002A780020002A35D02B88012B00D12CE1D3
:10DFA0002188881C48452CD8012A04D16B7802337B
:10DFB0005B18994525D34B46023B5B1A9FB26B46D3
:10DFC000301804A91F82FFF795FE00281AD12B787C
:10DFD000022B00D11AE1012B00D110E10822FE2F03
:10DFE0000FD82388791CF154238801339BB22380F6
:10DFF000F25423880133FB18238003E004334B459C
:10E0000053D90C2007B0F0BCBB46B246A946A04687
:10E01000F0BD4B46082BF4D904A8FFF765FE002895
:10E02000F0D10822112123886944F2542388133245
:10E0300001339BB22380F2542088153A013080B21C
:10E040002080301801F044F96A462388127C063398
:10E050009BB22380002A00D00122F254238801338E
:10E060009BB22380DAE60C232F0098464B460837F4
:10E07000A8440293022202234146380001940096EC
:10E08000FFF73CFE0028BDD14B46062202934146D5
:10E090001023380001940096FFF730FE0028B1D11C
:10E0A0002B8A002B00D1F6E61CE004A8FFF720FE27
:10E0B0000028A7D103222388F25423881632013383
:10E0C0009BB22380F2546A462388128A01339BB2A2
:10E0D0002380F3181A70120A5A70238802339BB2F5
:10E0E00023809FE614232F0098464B461037A84400
:10E0F0000293032202234146380001940096FFF761
:10E10000FDFD002800D07DE74B46072202934146E3
:10E110001023380001940096FFF7F0FD002800D08E
:10E1200070E72B8B002B00D1B9E61C232F009846FB
:10E130004B461837A8440293142202234146380064
:10E1400001940096FFF7DAFD002800D05AE74B460D
:10E150001522029341461023380001940096FFF7E0
:10E16000CDFD002800D19AE64CE7AF6A002F44D0DD
:10E170000023984616339A4616339B4633E0C04632
:10E180007FF3FFFF7DF30000FFFF000022880333D1
:10E19000B3545246238801339BB22380F254238820
:10E1A00001339BB223803A88F3181A70120A5A700E
:10E1B0002088023080B22080BA88002A09D0B9684D
:10E1C00000291AD0301801F083F82388BA889B18E8
:10E1D000238043460133DBB298465B46EB5C434504
:10E1E00000D8D5E6AF6A43465B0043449B00FF1866
:10E1F000BB889A1CFE2AC9D903E7072002E76B787F
:10E200009F4200D2EAE61F000822E8E66B461B8A1E
:10E210009F4200D2E2E61F000922E0E630B593B04B
:10E220001F236A4604000D009380D380002821D06C
:10E23000C3785B0725D501AA02A9FFF7DBFD0028FB
:10E2400016D102AC002D18D0EB78002B19D16B46FB
:10E2500028009A1D0AA9FFF7CDFD002808D16B46BA
:10E260009B790AAD6A46200011792A00FFF73EFD2E
:10E2700013B030BD9080002DE6D16B46DD800023C9
:10E28000F0E70720F4E7C04673DF704774DF70479C
:10E29000F0B5804D072204000021280087B0FCF76C
:10E2A000ADFF7D4E7D4B32687D4F1A4202D03B78E8
:10E2B000012B47D0B378002B41D16B78002B68D16C
:10E2C000AB78002B65D1EB78002B62D12B79002B3A
:10E2D0005FD16B79002B5CD1AB795A1E9341DBB2D5
:10E2E000032C0AD026D8012C55D0022C24D1B27888
:10E2F000002A02D0002B00D0C8E0F378002B00D019
:10E30000B8E03379002B00D09EE000243C7000225E
:10E31000644B1A70182200216846FCF76FFF002337
:10E320006A46137013723B78042B21D85E4A9B0017
:10E33000D3589F46042CE4D000233B70E7E73B789A
:10E34000022BBAD1594B5A4A1B68002B00D19BE0D3
:10E350000121082011709847AFE70222554B019523
:10E360001A706A4601231370F3685382B3681382EC
:10E370006846FFF789FF002807D14C4B1B68002B2C
:10E3800005D04C4A10789847002007B0F0BD002017
:10E39000FBE70123A4E77278002AA8D0002BACD0B9
:10E3A000B4E76A4633691382736953823378002B6A
:10E3B00062D0414B1B78002B5ED1404A1379117B10
:10E3C0000B4359D0022303926A463D481372002141
:10E3D0000233C370FFF722FF002859D10522354BC5
:10E3E0001A703B782DE00123324A019513706A467A
:10E3F000137000230493BBE700222E4B1A70BCE776
:10E400006A46B3691382F36953823378002B37D09D
:10E41000294B1B78002B33D1284A1379117B0B43EE
:10E420002ED0022303926A4625481372002102333C
:10E43000C370FFF7F3FE00282AD106221D4B1A7085
:10E440003B78002B99D093E704233B70174B1A6855
:10E45000002A00D15BE73378002B00D157E7164B39
:10E460001B78002B00D052E701210E4B07201970BA
:10E4700090474FE70323E8E703220E4B1A7077E734
:10E4800004220C4B1A7073E7137016E702243DE761
:10E490003B78D6E7602600208425002000FFFF009F
:10E4A00081250020502700200C040200E8250020D0
:10E4B0005C26002080250020512700205C200020C1
:10E4C000A4250020F8B504000E00002800D1AEE01D
:10E4D000002A00D1ABE001205649087000205649BF
:10E4E000087056480100A1CAA1C1A1CAA1C121CA90
:10E4F00021C1534A00211360524B069A52481A60B8
:10E500000122524B52421A800832FCF777FE504DDE
:10E5100000213C222800FCF771FE237822002B709A
:10E52000A3781032AB70E378EB7063786B702B00DC
:10E53000103303CA03C32B00103A083303CA03C3C2
:10E540002B000832183303CA03C3636A002B11D0AF
:10E55000404B414F6B62616A9F600A881A808888CD
:10E560009880002806D000238A68D25CFA540133D0
:10E570008342F9D3A36A002B14D0384B384FAB62D7
:10E58000A06A9F608188998002881A8000230029F0
:10E5900005D08268D25CFA5401339942F9D82C2311
:10E5A000E25CEA54236A002B06D02E4B2B62226ACF
:10E5B0005188598012881A806368002B00D06B60E4
:10E5C00029492A4B0A68D81D13600A685060180050
:10E5D0000E30906018001530D06018001C301061AB
:10E5E00018002330506118003133D361204B2A309A
:10E5F000906118008A68103013608A6850601800B3
:10E600008A68203090608A6819003031D160190022
:10E61000403111611900503151611900703360317E
:10E62000916128003100D361FFF7F8FDF8BD0E209D
:10E63000FCE7C046EC250020812500208425002031
:10E64000E8250020E425002060260020E2250020A7
:10E65000A425002010260020F02500206826002098
:10E6600074260020942600205C200020982600209C
:10E67000D026002010B50D4B04001B7882B0002B73
:10E6800011D00B4B187001A8FDF794FC019B002BD7
:10E6900005D001220020074B1A7002B010BD2000E7
:10E6A000FFF7F6FDF9E70820F7E7C046EC25002064
:10E6B00081250020E025002030B5038883B0112B90
:10E6C00005D01B2B25D0102B1CD003B030BD002152
:10E6D000234A83881170234A12889A42F5D1224B2B
:10E6E0001B78002B2ED00122204B01A81A70FDF7B9
:10E6F00061FC019B002B21D10120FFF7C9FD0028FF
:10E7000021D1E2E7837D012BDFD18288154B1A806E
:10E71000DBE7037A002BD8D1134B1B78002B11D0E9
:10E72000124D05212878013000F0CCFD01A8CCB2B3
:10E730002C70FDF73FFC019B002B0AD001220C4BF3
:10E740001A70C2E708200B4B1B68002BBDD09847FE
:10E75000BBE72000FFF79CFD0028F4D1B5E7C046D9
:10E7600051270020E2250020EC25002081250020F3
:10E77000E0250020E425002070B5012582B0FFF7D8
:10E7800085FD144B14481D7006230021C370FFF74C
:10E7900045FD041E02D0200002B070BD0F4B1B7857
:10E7A000002B15D00E4B01A81E78FDF703FC019B32
:10E7B000002B02D00B4B1D70EDE73000FFF768FD1A
:10E7C0000028E8D0084B1B68002BE4D09847E2E70C
:10E7D0000820F7E751270020A4250020EC25002081
:10E7E00081250020E0250020E425002075DF70470A
:10E7F00076DF70477ADF70477BDF704710B5184BC4
:10E8000082B01888174B984214D0174A174C1378C7
:10E810000133DBB21370217B99420DD200231370B8
:10E82000237C002B12D16369002B03D0002201A8A6
:10E830000270984702B010BD0D49FFF7D7FF0028BE
:10E84000F8D0A369002BF5D09847F3E73B21FFF7F9
:10E85000CFFF0028E7D0A369002BE4D09847E2E778
:10E8600054270020FFFF0000A42700205827002085
:10E870009C27002030B51B4B1B4A5B88118883B056
:10E8800099420CD852889A4209D3184B5B69002BE5
:10E8900003D0012201A802709847154C0BE0144CDC
:10E8A0002378002B0BD0114B5B69002B03D0002287
:10E8B00001A8027098470023237003B030BD0D4BB0
:10E8C0000A4D1B78002B0BD0A96800220A48FDF7DF
:10E8D0008BF90028EFD0AB69002BECD09847EAE722
:10E8E0006968F2E7942700209C2700205827002021
:10E8F00052270020A4270020742700201649020078
:10E900000B0070B532CA32C332CA32C312681A6001
:10E910000022124B01681A70002916D0104C0832E0
:10E92000200000F0D5FC2000FFF764FF00280BD189
:10E9300001220C4B52421A8000220B4B00211A700C
:10E940000A480B4AFDF73AF970BD0548FFF754FF36
:10E950000028EDD0F8E7C0465827002052270020B5
:10E960009C27002054270020A42700202004020018
:10E97000FDE7010010B50388122B2FD015D8102BFE
:10E9800033D0112B10D101221F4B52421A8000228A
:10E990001E4B1F481A70FDF787F9002804D01D4B45
:10E9A0009B69002B00D0984710BD502BFCD1194C0F
:10E9B000C288E3899A42F7D1038A022BF4D112303C
:10E9C00000F02CF800280DD11148FDF76DF9002852
:10E9D000EAD0A369002BE7D09847E5E70E4B083053
:10E9E00006C806C3FFF746FFDEE78288064B1830ED
:10E9F0001A80094B06C806C30022044B1A70054B47
:10EA0000DB89002BD0D1EDE754270020A42700207C
:10EA10007427002058270020942700200123007825
:10EA20001840704703210A4802680A4302600948F7
:10EA300002680A4302600849084A094B9B1A03DD31
:10EA4000043BC858D050FBDC00F012F8FCF762FB26
:10EA50002405004054050040D4040200E81F0020B3
:10EA600078200020FEE7FEE7FEE7FEE7FEE7FEE790
:10EA70002D4B1B78012B00D070472C4B1B681B07BC
:10EA8000FAD12B4AF0231268110019401A4201D022
:10EA9000102946D1274A12681A421FD0F022244B6F
:10EAA0001B681340402B29D0F022214B1B681340D8
:10EAB000A02B01D0D02BDFD1F0231E4A12681A42BE
:10EAC000DAD11D4A1368012B04D01C4B1360136864
:10EAD000012BFCD1C0221A4B1A60CDE7194B1A4A00
:10EAE0001A608022194B12021A600F4B1B78012BFF
:10EAF000C2D10E4B1B681B07D0D0BDE70D4B1B6866
:10EB00001342D1D18022C1230121DB00D205D15093
:10EB1000054B1B78012BAFD1044B1B681B07C3D0DF
:10EB2000AAE73029B6D0B9E7E00F00F0E40F00F013
:10EB3000E80F00F0EC0F00F000EC064075930000C9
:10EB400014EC064004050040DFFF07C0186C0040CD
:10EB5000A0DF7047A2DF7047A6DF704763DF704712
:10EB600010B5041E08D0002906D00B88112B16D032
:10EB7000502B05D0102B00D010BD8B888382FBE773
:10EB8000CB88028A9A420ED0A2889A42F4D1A36915
:10EB9000002BF1D00A8A200012319847ECE70123BC
:10EBA0005B428382E8E70A8A022AEDD1123108002B
:10EBB000FFF734FF002802D00123A375DCE7A0751E
:10EBC000DAE7C046F0B557464E464546DE46E0B564
:10EBD00095B0040004A802005C4BE0CBE0C21B68C7
:10EBE0001360002C00D1AFE0002900D1ACE001237C
:10EBF0005B42A3820B682100A3610023A375FFF78A
:10EC0000ADFF051E07D0280015B0F0BCBB46B246CC
:10EC1000A946A046F0BD6A462378012093720123DD
:10EC200098466B46424602A91A81A21CFFF790FF44
:10EC3000051EE8D1032200216846FCF7DFFA444BA9
:10EC4000002199466B464A461A8006229B780DA8F9
:10EC50009343022213436A4693701C22FCF7CEFAB8
:10EC600034216B4610225B181B7803AF13436A46AE
:10EC7000521813706B461293237801AEBB700323B6
:10EC80000322002130000E951095119513953B80BD
:10EC9000FCF7B4FA4B461F223380B3789346934374
:10ECA0000322924652460021134308A81422B3704F
:10ECB000FCF7A4FA43466A460A931333938523006C
:10ECC0000DAD290060880C3308AA08970996FFF754
:10ECD00041FF051E97D11C2200210DA8FCF78EFADA
:10ECE00034216A46521813780C22934313436A4620
:10ECF0005218137023780322BB70022300213000C6
:10ED00000E9510951195129513953B80FCF776FAA8
:10ED10004A4632805A46B37800219343524608A8A7
:10ED200013431422B370FCF769FA424614230A9283
:10ED30006A4693856088231D08AA0DA9089709963D
:10ED4000FFF708FF05005EE70E255CE724040200DC
:10ED50001111000070B586B06B4604000D009E1DB9
:10ED6000DA8000281FD0828A104B9A4219D0837D06
:10ED7000002B16D03388142B11D81022002102A8A2
:10ED8000FCF73CFA6A46A38902A913810123937216
:10ED9000A08A05950496FFF7DFFE06B070BD072038
:10EDA000FBE70820F9E70E20F7E7C046FFFF000069
:10EDB00052DF704710DF704760DF704761DF7047D8
:10EDC00010B5FCF72BFB10BDF0B54646D6464F46B6
:10EDD000C0B5314B314D1C68984663425C412B787D
:10EDE00082B0E4B2002B2DD12D4B01A899462D4EB7
:10EDF000FFF7DEFF05283FD0002829D0FCF7FEFAF8
:10EE0000002C30D100239A462B78DCB2002B19D18C
:10EE10004B466A4637681B88380001A99380FFF784
:10EE2000CDFF05282BD000282DD1434638001B6884
:10EE300098475346002B17D001239A462B78DCB213
:10EE4000002BE5D002B0E0BCBA46B146A846F0BD02
:10EE50000198FDF7B9F9144B1B68002B01D00198FC
:10EE60009847002CCED001242B78002BEAD101A8A2
:10EE7000FFF79EFF0528BFD1002CDDD0E2E7534607
:10EE8000002BF0D0DEE7FCF7B9FA5346002BD3D1C4
:10EE90002B78002BEBD0D5E7A8270020B127002046
:10EEA000A6270020B8270020B4270020014B18789F
:10EEB000C0B27047B027002070B5002931D08C0750
:10EEC0002FD101251B4C21601B491C4C0A801C4A78
:10EED000136023681D4208D080231A49E550FFF7CC
:10EEE00069FF002806D0256070BD1649FFF762FF54
:10EEF0000028F9D10124144B1C70FDF777F9C523C4
:10EF00000E4A9B00D3589B0D1C420CD00F4B5868E7
:10EF100000280AD080221968D2030A4300201A6010
:10EF2000E2E70720E0E70A48DEE78023DB0313601F
:10EF3000DAE7C046B8270020A627002000E100E05D
:10EF4000AC270020C1ED0100B0270020C827002019
:10EF500002200000002803D0024B186000207047F8
:10EF60000E20FCE7A827002010B5094B1B68002BDA
:10EF700006D09847002800D110BDFCF73FFAFBE708
:10EF8000044B1B78002BF7D0FFF71EFFF4E7C046B9
:10EF9000AC270020B027002070B5140005000E003B
:10EFA000142200212000FCF729F90023012223610B
:10EFB000237B22809343237326726572002D01D038
:10EFC0000123A372002070BD00B5054B83B00193EF
:10EFD000019B69460093FFF7EFFE019B03B000BD64
:10EFE000E81F0020002243088B4274D303098B42A0
:10EFF0005FD3030A8B4244D3030B8B4228D3030C09
:10F000008B420DD3FF22090212BA030C8B4202D3AA
:10F010001212090265D0030B8B4219D300E0090AD2
:10F02000C30B8B4201D3CB03C01A5241830B8B42DB
:10F0300001D38B03C01A5241430B8B4201D34B03C4
:10F04000C01A5241030B8B4201D30B03C01A524129
:10F05000C30A8B4201D3CB02C01A5241830A8B42AE
:10F0600001D38B02C01A5241430A8B4201D34B0297
:10F07000C01A5241030A8B4201D30B02C01A5241FB
:10F08000CDD2C3098B4201D3CB01C01A52418309AF
:10F090008B4201D38B01C01A524143098B4201D3E9
:10F0A0004B01C01A524103098B4201D30B01C01A14
:10F0B0005241C3088B4201D3CB00C01A524183088E
:10F0C0008B4201D38B00C01A524143088B4201D3BB
:10F0D0004B00C01A5241411A00D20146524110461B
:10F0E0007047FFE701B5002000F0F0F802BDC04610
:10F0F0000029F7D076E7704703460B437FD4002200
:10F1000043088B4274D303098B425FD3030A8B42BB
:10F1100044D3030B8B4228D3030C8B420DD3FF2225
:10F12000090212BA030C8B4202D31212090265D0F3
:10F13000030B8B4219D300E0090AC30B8B4201D3A6
:10F14000CB03C01A5241830B8B4201D38B03C01AED
:10F150005241430B8B4201D34B03C01A5241030B64
:10F160008B4201D30B03C01A5241C30A8B4201D315
:10F17000CB02C01A5241830A8B4201D38B02C01AC0
:10F180005241430A8B4201D34B02C01A5241030A37
:10F190008B4201D30B02C01A5241CDD2C3098B421C
:10F1A00001D3CB01C01A524183098B4201D38B0199
:10F1B000C01A524143098B4201D34B01C01A52413C
:10F1C00003098B4201D30B01C01A5241C3088B4281
:10F1D00001D3CB00C01A524183088B4201D38B006C
:10F1E000C01A524143088B4201D34B00C01A52410E
:10F1F000411A00D201465241104670475DE0CA0FE5
:10F2000000D04942031000D34042534000229C46A4
:10F2100003098B422DD3030A8B4212D3FC228901AE
:10F2200012BA030A8B420CD3890192118B4208D384
:10F23000890192118B4204D389013AD0921100E0E6
:10F240008909C3098B4201D3CB01C01A52418309FA
:10F250008B4201D38B01C01A524143098B4201D327
:10F260004B01C01A524103098B4201D30B01C01A52
:10F270005241C3088B4201D3CB00C01A52418308CC
:10F280008B4201D38B00C01A5241D9D243088B4222
:10F2900001D34B00C01A5241411A00D201466346C5
:10F2A00052415B10104601D34042002B00D5494229
:10F2B000704763465B1000D3404201B5002000F068
:10F2C00005F802BD0029F8D016E770477047C04620
:10F2D000002310B59A4200D110BDCC5CC454013358
:10F2E000F8E700000FB40B4B13B51C68002C05D0D9
:10F2F000A369002B02D1200000F078F805AB2000B4
:10F30000049AA168019300F09BF916BC08BC04B0F4
:10F310001847C046E81F00200023C25C0133002AC2
:10F32000FBD1581E70470000002310B50400036095
:10F3300043608360818143661900C2810361436138
:10F34000836108225C30FBF759FF054B6362054B74
:10F350002462A362044BE362044B236310BDC046E6
:10F36000DDFB010005FC01003DFC010069FC010022
:10F3700010B5024900F0BAF810BDC04675FF010093
:10F3800070B568254A1E55430E002900743100F0FF
:10F39000D1F8041E08D000212A00016046600C301C
:10F3A000A0606832FBF72AFF200070BD10B502484C
:10F3B00000F0BDF810BDC046D827002010B50248A7
:10F3C00000F0B6F810BDC046D827002010B502489E
:10F3D00000F0ADF810BDC046D327002010B502489C
:10F3E00000F0A6F810BDC046D327002013B50400D6
:10F3F000FFF7ECFFA369002B02D0FFF7EFFF13BD6F
:10F40000A364E3642365134B134A1B68A262019350
:10F41000A34201D10123A361200000F01FF8606026
:10F42000200000F01BF8A060200000F017F8002278
:10F430000421E0606068FFF777FF01220921A068DE
:10F44000FFF772FF02221221E068FFF76DFF012330
:10F45000A361D2E7B802020071F30100F8B507001A
:10F46000FFF7A4FF1F4B1E68B369002B02D13000C9
:10F47000FFF7BCFF4836B4687368013B04D53368B6
:10F48000002B22D03668F6E70C22A55E002D1AD19B
:10F490002000154B5830E360656600F047F8FFF731
:10F4A0008DFF2000082229002560A5606560256188
:10F4B0006561A5615C30FBF7A1FE6563A563A5648A
:10F4C000E5642000F8BD6834D7E704213800FFF771
:10F4D00057FF041E3060D5D1FFF770FF0C233B604F
:10F4E000EFE7C046B80202000100FFFFF7B50400D5
:10F4F00006000027019148346368A5680093009BCB
:10F50000013B009304D52468002CF5D13800FEBDE2
:10F51000AB89012B08D90E22AB5E013304D0290040
:10F520003000019B984707436835E8E7704770470C
:10F5300070470000F8B50323CD1C9D430835060035
:10F540000C2D1FD20C25A9421ED8300000F0DEFD84
:10F5500025490A681400002C1AD1244F3B68002B5F
:10F5600004D12100300000F027FB38602900300072
:10F5700000F022FB431C2BD10C233000336000F041
:10F58000CDFD03E0002DDEDA0C2333600020F8BD52
:10F5900023685B1B19D40B2B03D92360E418256067
:10F5A00003E06368A2420ED10B60300000F0B6FDAC
:10F5B000200007220B30231D9043C21A9842E6D048
:10F5C0001B1AA350E3E75360EFE722006468C2E729
:10F5D0000323C41C9C43A042E1D0211A300000F058
:10F5E000EBFA431CDBD1C7E7BC270020C027002073
:10F5F000936810B5013B9360002B04DA9469A34231
:10F6000007DB0A2905D01368581C10601970080020
:10F6100010BD00F02FFB0100F9E7F8B506000F0060
:10F620001400D518AC4201D1002007E021783A003F
:10F630003000FFF7DDFF0134431CF3D1F8BD0000BB
:10F64000F0B5A1B006000C001F000392002804D002
:10F650008369002B01D1FFF7C9FE8E4B9C421CD160
:10F660007468636EDB0705D4A3899B0502D4A06D83
:10F67000FFF75DFFA3891B0702D52369002B1DD16E
:10F680002100300000F060FB002817D0636EDB071C
:10F690000DD50120404221B0F0BD7F4B9C4201D1ED
:10F6A000B468DEE77D4B9C42DBD1F468D9E7A389DF
:10F6B0009B05EED4A06DFFF73BFFEAE7002308AD02
:10F6C0006B6120336B761033AB760797039F3B78E3
:10F6D000002B01D0252B4ED1039BFB1A0593039BD6
:10F6E0009F420DD0059B21003000039AFFF795FF44
:10F6F000431C00D1B5E06A69059B944663446B6185
:10F700003B78002B00D1ACE001227B1C039300234B
:10F7100052426A6004A9543252182B60EB60AB600D
:10F720001370AB65039B052219785D4800F0E2FC7D
:10F73000039B5F1C002820D12A68D30604D55323DD
:10F7400004A95B1820211970130704D5532304A9B9
:10F750005B182B211970039B1B782A2B16D00021D4
:10F76000EB68039F3A78781C303A8446092A4FD9CF
:10F77000002911D117E00137A9E7494B2A68C01ABF
:10F780000123834013432B600397CBE7079B191D8D
:10F790001B680791002B01DB0B9304E05B42EB60DD
:10F7A000022313432B603B782E2B0AD17B782A2B24
:10F7B00037D1079B02371A1D1B680792002B2DDBE0
:10F7C000099303223978374800F094FC002807D0C9
:10F7D000344B2A68C01A40238340134301372B60FF
:10F7E00039787B1C062230480393297600F082FC8E
:10F7F000002845D02D4B002B27D10722079B07332C
:10F800009343083307936B69049A9B186B615DE718
:10F810000A214B4367469B180939A3E701235B4242
:10F82000CEE700231A0001376B603978781C303935
:10F830008446092903D9002BC3D00992C1E70A23C2
:10F840005A4367465218093BEFE707AB0093220083
:10F8500029003000164B00E000BF0490049B0133E8
:10F86000D1D1636EDB0705D4A3899B0502D4A06DBB
:10F87000FFF75EFEA3895B0600D50AE70D980AE74D
:10F8800007AB0093220029003000094B00F082F8FA
:10F89000E3E7C0465404020074040200340402008A
:10F8A000940402009A0402009E040200000000007A
:10F8B0001BF60100F7B5150001938A680B690C006F
:10F8C0000090934200DA130022002B60433212783A
:10F8D000002A01D001332B6023689B0602D52B68D8
:10F8E00002332B602268062317001F401A4227D0DC
:10F8F000230043331B785A1E93412268920630D46A
:10F90000220001990098089E4332B047431C25D03D
:10F91000062320682A68E16800250340042B03D1F0
:10F920008D1AEB43DB171D40A3682269934201DD6A
:10F930009B1AED180027BD4220D1002010E00137AE
:10F94000E3682A689B1ABB42D2DD22000123019999
:10F950000098089E1932B047431CF0D10120404264
:10F96000FEBD3020E1184331087021005A1C45319A
:10F970000978A218433202331170C1E72200012333
:10F9800001990098089E1A32B047431CE6D001370F
:10F99000D1E70000F0B58BB006920A00433207931E
:10F9A000059004920A7E0C00109B782A06D8622AE1
:10F9B00008D8002A00D1C0E0582A52D0260042368A
:10F9C000327022E0100063381528F7D800F030FCC0
:10F9D00016001F00F6FFF6FFF6FFF6FF1F00F6FF0A
:10F9E000F6FFF6FFF6FFA80036009A00F6FFF6FFD6
:10F9F000B900F6FF3600F6FFF6FF9E0026001A68F3
:10FA00004236111D1960136833700123A7E008689E
:10FA100019680A1D05060BD50D681A60002D03DA5A
:10FA20002D23049A6D421370614B0A27039332E031
:10FA30000D681A604106F1D52DB2EFE70D6819681F
:10FA4000081D18602E0601D50D6803E06D06FBD574
:10FA50000D68ADB2564B0A2703936F2A17D10827BA
:10FA600015E045310A70524A03921A68216820CA8B
:10FA70001A60080650D5CB0702D520231943216010
:10FA80001027002D03D1202322689A4322602300EF
:10FA9000002243331A706368A360002B03DB042247
:10FAA000216891432160002D02D1049E002B0CD0CF
:10FAB000049E28003900FFF71BFB039B013E5B5CA3
:10FAC00033702B0005009F42F3D9082F09D123681A
:10FAD000DB0706D563682269934202DC3023013ECE
:10FAE0003370049B9B1B2361079B210000930598A7
:10FAF000069B09AAFFF7DEFE431C35D101204042D8
:10FB00000BB0F0BD202209680A4322602200782150
:10FB100045321170274AA7E74806ACD5ADB2AAE72F
:10FB20001A680D68101D4969186013682E0601D502
:10FB3000196002E06D06FBD519800023049E236145
:10FB4000D2E71A68111D196016680021300062683A
:10FB500000F0D0FA002801D0801B60606368236148
:10FB60000023049A1370BFE72369320006990598B1
:10FB7000079DA847431CC1D023689B0715D4099B48
:10FB8000E0689842BCDA1800BAE72200012306991F
:10FB90000598079E1932B047431CAFD00135E36882
:10FBA000099A9B1AAB42F0DCE9E70025F7E7C0466B
:10FBB000A5040200B6040200002370B5064D04003F
:10FBC00008002B6000F05EFB431C03D12B68002B68
:10FBD00000D0236070BDC046DC27002070B50C004B
:10FBE0000E25495F00F0ECFA002803DB636D1B185B
:10FBF000636570BDA389024A1340A381F9E7C0463B
:10FC0000FFEFFFFFF8B51F008B8905000C00160001
:10FC1000DB0505D50E23C95E0022022300F0EAF9B8
:10FC2000A389054A28001340A38132000E23E15E18
:10FC30003B0000F075F8F8BDFFEFFFFF70B50C005A
:10FC40000E25495F00F0D6F9A389421C03D1054A6D
:10FC50001340A38170BD802252011343A3816065CC
:10FC6000F8E7C046FFEFFFFF10B50E23C95E00F0B6
:10FC7000E3F810BDF8B505000E001400002804D00C
:10FC80008369002B01D1FFF7B1FB224B9C422ED19F
:10FC90006C68A369A360A3891B0732D52369002B75
:10FCA0002FD023682269F7B2981A6369F6B28342AB
:10FCB00005DC2100280000F05DF9002827D1A368A9
:10FCC0000130013BA36023685A1C22601F706369E6
:10FCD000834204D0A389DB0707D50A2E05D1210072
:10FCE000280000F047F9002811D13000F8BD0A4B78
:10FCF0009C4201D1AC68CCE7084B9C42C9D1EC686E
:10FD0000C7E72100280000F01FF80028C9D001260D
:10FD10007642EAE75404020074040200340402004C
:10FD200070B50400080011001A000023054D2B6077
:10FD3000FCF74CF9431C03D12B68002B00D0236047
:10FD400070BDC046DC270020374B70B51D6806002B
:10FD50000C00002D05D0AB69002B02D12800FFF765
:10FD600045FB324B9C420FD16C680C23E25E93B290
:10FD700011072DD4D90611D409230120336037335C
:10FD80001343A381404270BD294B9C4201D1AC6812
:10FD9000EBE7284B9C42E8D1EC68E6E75B0713D51C
:10FDA000616B002908D023004433994202D030000F
:10FDB00000F0BCF9002363632422A3899343A38149
:10FDC00000236360236923600823A2891343A3816E
:10FDD0002369002B0BD1A0218022A38989009200E6
:10FDE0000B40934203D02100300000F03FF90C2279
:10FDF000A35E01201A0099B2024003420FD00022F4
:10FE0000A26062695242A261002022698242BAD194
:10FE10000A06B8D540221343A3810138B3E7880707
:10FE200000D46269A260EFE7E81F002054040200DA
:10FE30007404020034040200002370B5064D04006F
:10FE400008002B6000F0FEF9431C03D12B68002B47
:10FE500000D0236070BDC046DC270020F7B58B8939
:10FE600005000C001A075FD44A68002A04DC0A6CFB
:10FE7000002A01DC0020FEBDE76A002FFAD0002234
:10FE800080212E682A601A0049010A400B4234D0B2
:10FE9000606DA3895B0706D56368C01A636B002B8E
:10FEA00001D0236CC01A0200216A00232800E76AEF
:10FEB000B847A189431C06D12B681D2B31D82C4A89
:10FEC000DA40D3072DD50023636023692360CB0478
:10FED00005D5431C02D12B68002B00D16065616BF6
:10FEE0002E600029C6D023004433994202D0280056
:10FEF00000F01CF900206063BDE701232800216A9F
:10FF0000B847431CC5D12B68002BC2D01D2B01D094
:10FF1000162B01D12E60ADE74023A2891343A381A4
:10FF2000A9E740230B43FAE70F69002FA2D00A6824
:10FF30000F60D21B019200229B0700D14A69A26088
:10FF4000019B002B00DC95E73A002800019B216A09
:10FF5000A66AB047002806DC40230120A28940425F
:10FF60001343A38187E7019B3F181B1A0193E7E71F
:10FF7000010040200B6970B505000C00002B02D178
:10FF80000025280070BD002804D08369002B01D112
:10FF9000FFF72CFA144B9C421BD16C680C22A35E19
:10FFA000002BEDD0626ED20704D49B0502D4A06D65
:10FFB000FFF7BDFA28002100FFF750FF636E050030
:10FFC000DB07DED4A3899B05DBD4A06DFFF7B0FA75
:10FFD000D7E7064B9C4201D1AC68DFE7044B9C425B
:10FFE000DCD1EC68DAE7C046540402007404020075
:10FFF0003404020070B50400080011001A00002348
:020000022000DC
:10000000054D2B6000F036F9431C03D12B68002B03
:1000100000D0236070BDC046DC27002070B50E0004
:100020001D000E23C95E140096B0002907DA0023D4
:100030002B60B3891B0611D48023DB000FE06A46D6
:1000400000F0D2F80028F2DBF02301991B021940DE
:10005000054BC9184B4259412960EDE74023002068
:10006000236016B070BDC04600E0FFFFF7B5022662
:100070008B8905000C00334206D0230047332360F0
:10008000236101236361F7BD6A4601ABFFF7C6FF39
:10009000009907002800FFF74DFA002808D10C222C
:1000A000A35E9A05EFD4032293431E43A681E4E79F
:1000B0000F4BAB628023A28920601343A381009B76
:1000C00020616361019B002B0DD028000E23E15EAF
:1000D00000F09CF8002806D00322A38993431A005D
:1000E00001231343A381A0890743A781CBE7C0461F
:1000F00071F30100C9B28218904201D1002070470B
:1001000003788B42FBD00130F6E7000010B50248BF
:10011000FFF70DFA10BDC046D427002010B50248E5
:10012000FFF706FA10BDC046D427002070B50500C1
:10013000002910D00C1F2368002B00DAE4182800D7
:10014000FFF7E4FF1D4A1368002B05D163601460BC
:100150002800FFF7E3FF70BDA34208D921686018AB
:100160008342F3D118685B6841182160EEE71A00FA
:100170005B68002B01D0A342F9D911685018A04246
:100180000BD120680918501811608342E0D118681B
:100190005B68411811605360DAE7A04202D90C2372
:1001A0002B60D5E721686018834203D118685B682B
:1001B0004118216063605460CAE7C046BC27002034
:1001C00070B50400080011001A000023054D2B60D3
:1001D000FBF70AFF431C03D12B68002B00D02360E0
:1001E00070BDC046DC270020002370B5064D04001A
:1001F000080011002B6000F02DF8431C03D12B6880
:10020000002B00D0236070BDDC270020002370B5D8
:10021000064D040008002B6000F024F8431C03D1B5
:100220002B68002B00D0236070BDC046DC27002067
:1002300003B47146490840004900095E49008E44F4
:1002400003BC704758220120014B40421A6070479E
:10025000DC27002058220120014B40421A607047E1
:10026000DC2700205822024B00201A607047C0464D
:10027000DC27002058220120014B40421A607047C1
:10028000DC270020044A03001068002802D0C318AD
:10029000136070470148FAE7C4270020E0270020D8
:1002A000F8B5C046F8BC08BC9E467047F8B5C046D5
:1002B000F8BC08BC9E467047EC1F00209C20002024
:1002C000FFFFFFFFFFFFFFFFFFFFFFFFFFFFFFFF3E
:1002D000000000000000000000E0D7010300000063
:1002E00011121314151617188AD20100B6D1010085
:1002F000B6D10100E8D101002ED20100FED10100EB
:1003000022D2010074D201007AD1010092D1010001
:100310007AD1010092D1010080D201003ED10100CA
:100320003ED101003ED101003ED101003ED101008D
:1003300054D2010094D20100A4D201005ED2010087
:10034000AED10100AED1010094D40100FED3010072
:10035000FED301006AD4010010D5010034D401009D
:10036000F2D4010000D50100BAD30100D4D30100BA
:10037000BAD30100D4D301005CD401007AD30100C8
:100380007AD301007AD301007AD301007AD3010035
:10039000A2D40100B0D40100C4D40100D8D401001B
:1003A000F2D30100F2D301001100030059D0010083
:1003B0001200030059D001001300030059D00100BE
:1003C0001400030059D00100002200202422002044
:1003D000582200204E6F726469635F554152540089
:1003E0000D0A55415254205374617274210D0A0054
:1003F0000B00000009000000080000000A000000D7
:100400000000000000E0D70101000007F8E3010050
:10041000E6E301005AE30100A2E3010000E4010069
:10042000742700209ECADC240EE5A9E093F3A3B54F
:100430000000406E0000000000000000000000000E
:1004400000000000000000000000000000000000AC
:10045000000000000000000000000000000000009C
:10046000000000000000000000000000000000008C
:10047000000000000000000000000000000000007C
:10048000000000000000000000000000000000006C
:1004900000000000232D302B2000686C4C006566A6
:1004A00067454647003031323334353637383941C5
:1004B00042434445460030313233343536373839DB
:0C04C000616263646566000000000000DB
:0804CC003CACFF7F01000000C1
:1004D400EC1F002000000000540402007404020019
:1004E40034040200000000000000000000000000CE
:1004F40000000000000000000000000000000000F8
:1005040000000000000000000000000000000000E7
:1005140000000000000000000000000000000000D7
:1005240000000000000000000000000000000000C7
:100534000000000000200040000000000100020054
:10054400FFFF00001C260020000000003C260020C5
:10055400000000000024F400E9B00100C1B0010073
:040000031000EA25DA
:00000001FF
